:020000040000fa
:080000000002040000000000f2
:020000040000fa
:100008007004000070040000700400007004000018
:100018007004000070040000700400007004000008
:100028007004000070040000700400009a020000d0
:1000380070040000700400007004000070040000e8
:10004800fe020000700400007004000002040000ba
:1000580070040000700400007004000070040000c8
:1000680070040000700400007004000070040000b8
:1000780070040000700400007004000070040000a8
:100088007004000070040000700400007403000095
:1000980098030000700400003c0400005e040000a7
:1000a8007004000070040000700400007004000078
:1000b8007004000070040000700400007004000068
:1000c8007004000070040000700400007004000058
:1000d8007004000070040000700400007004000048
:1000e8007004000070040000700400007004000038
:1000f8007004000070040000700400007004000028
:100108007004000070040000ba03000070040000ce
:100118007004000070040000700400007004000007
:1001280070040000700400007004000070040000f7
:1001380070040000700400007004000070040000e7
:10014800700400007004000070040000de0300006a
:1001580070040000700400007004000070040000c7
:1001680070040000700400007004000070040000b7
:1001780070040000700400007004000070040000a7
:100188007004000070040000700400007004000097
:100198007004000070040000700400007004000087
:1001a8007004000070040000700400007004000077
:1001b8007004000070040000700400007004000067
:1001c8007004000070040000700400007004000057
:1001d8007004000070040000700400007004000047
:1001e8007004000070040000700400007004000037
:0801f800700400007004000017
:020000040000fa
:100208007004000070040000700400007004000016
:100218007004000070040000700400007004000006
:100228007004000070040000700400009a020000ce
:1002380070040000700400007004000070040000e6
:10024800fe020000700400007004000002040000b8
:1002580070040000700400007004000070040000c6
:1002680070040000700400007004000070040000b6
:1002780070040000700400007004000070040000a6
:100288007004000070040000700400007403000093
:1002980098030000700400003c0400005e040000a5
:1002a8007004000070040000700400007004000076
:1002b8007004000070040000700400007004000066
:1002c8007004000070040000700400007004000056
:1002d8007004000070040000700400007004000046
:1002e8007004000070040000700400007004000036
:1002f8007004000070040000700400007004000026
:100308007004000070040000ba03000070040000cc
:100318007004000070040000700400007004000005
:1003280070040000700400007004000070040000f5
:1003380070040000700400007004000070040000e5
:10034800700400007004000070040000de03000068
:1003580070040000700400007004000070040000c5
:1003680070040000700400007004000070040000b5
:1003780070040000700400007004000070040000a5
:100388007004000070040000700400007004000095
:100398007004000070040000700400007004000085
:1003a8007004000070040000700400007004000075
:1003b8007004000070040000700400007004000065
:1003c8007004000070040000700400007004000055
:1003d8007004000070040000700400007004000045
:1003e8007004000070040000700400007004000035
:0803f800700400007004000015
:020000040000fa
:100400008f9e21000e7f24000e0188000000000056
:10041000000020000000e000020032000001200087
:10042000200288000c000700007429000100200051
:1004300011000700000020000000e0000200320070
:100440000000020000000000268c020000000000f6
:100450000040da000000fe004440a90060042000d3
:100460000000e0000300320000002000a00188002e
:100470004440a80000000600910188008000780038
:100480000000eb0015003700e280400032a0b4000d
:100490009101ba00e280400032a0b4009102ba009b
:1004a000e280400032a0b4000002eb00472bde00e7
:1004b000f507b200602ce10004003a000059eb009f
:1004c0008301e900fdff3e00040037006128e100e0
:1004d000010032000082eb00040007001101ba00a5
:1004e0000200e000e8ff3a00000006003159ba00bf
:1004f0008301e9000c0032002159ba008301e900b0
:10050000080032000400e00003003a00e2804000ee
:1005100032a0b400f5ff370011d9ba008301e90019
:10052000faff3a008100e800e180400032a0b40008
:10053000000006003600f800809fbe00829fbe00cb
:10054000849fbe00869fbe000000fa008460a90060
:100550000a300700c099210010407800e14f500098
:1005600001003a00102b0700204580000000e80041
:10057000204588002145800040062000808f5000e3
:1005800008003a0050458000e10f500002003a0098
:10059000aa28ef0002003700100020005045880014
:1005a000a428ef0060458000e10f50000a003a00e7
:1005b000904380000000e800904388009143800051
:1005c000c0122000808f500004003600c0122000ae
:1005d00090438800010037007228ef0000000000ff
:1005e0000080fa004f03be004f02be004f01be0064
:1005f0004f00be003600f900004006003600f8004b
:10060000809fbe00829fbe00849fbe00869fbe006a
:100610000000fa005ac8bf000040e8005ae8b700de
:10062000a18520009140780090c5b30080cf500094
:1006300025003600d2a2a90094e0a9009460a90088
:100640009760a9009780a9009b40a9009d60a90020
:10065000c2e2a9001fe1a90005e1a90011e1a9007a
:1006600021e1a9006011b8000040eb002e4807000e
:100670006011b80010c0b3002b4807006011b8002b
:1006800020c0b300284807009005800000c0a000eb
:1006900000d0a00000e0a000900588009005800038
:1006a0000080a0000090a00000a0a000900588009d
:1006b0008041eb00a20f2000a11e200020c0b3004b
:1006c000673b0700ffff37008500a9000080fa00a4
:1006d0004f03be004f02be004f01be004f00be00e0
:1006e0003600f900004006003600f800809fbe008a
:1006f000829fbe00849fbe00869fbe000000fa005d
:100700001fe1a900fa3e07001421ef008760a9004d
:100710001fe1a8000080fa004f03be004f02be0098
:100720004f01be004f00be003600f9000040060039
:100730003600f800809fbe00829fbe00849fbe00ee
:10074000869fbe000000fa0021e1a9000b470700c8
:100750008780a90021e1a8000080fa004f03be00b5
:100760004f02be004f01be004f00be003600f90030
:1007700000400600809fbe000000fa008b40a900e8
:10078000010f800000802000008060000000e00079
:1007900004003200a0cd80000000e800a0cd880059
:1007a00003003700a0cd80000000e900a0cd880044
:1007b0000080fa004f00be0000400600809fbe008f
:1007c0000000fa008d60a900810f800000802000e9
:1007d000008060000000e00004003200b0cd800026
:1007e0000000e800b0cd880003003700b0cd8000e5
:1007f0000000e900b0cd88000080fa004f00be0084
:1008000000400600809fbe00821f78000200fa00b0
:100810009560a9008560a90030118000004f780024
:10082000a2c8bf00614060000080fb006100600062
:100830004500dd0092168000f1fd2f00810061006f
:100840000100700090168800a2c8bf000004e000fc
:1008500003003a0010c0b300a2e8b700010037005f
:10086000a268ef009560a8000080fa004f017800b0
:100870004f00be00004006003600f800809fbe001a
:10088000829fbe00849fbe00869fbe000000fa00cb
:1008900097c0a90087c0a900fc3b070097c0a8002b
:1008a0000080fa004f03be004f02be004f01be00a1
:1008b0004f00be003600f90000400600809fbe00d9
:1008c0000000fa0087e0a900206e210011c0b300eb
:1008d000014878000080fa004f00be00004006008a
:1008e0000040da000000fe0003f0a200889fbe0076
:1008f0008a9fbe008c1f7800b0010700b70133004b
:100900006450e1004f0032006420e10052003200e8
:1009100003826c0007003b000905d0000306d000ed
:10092000820f54000c065d00020039000200320004
:1009300089017800030678008582550004003d0097
:100940000003fd008103fd008502ea008b85420063
:10095000840f720002003b0060001000e08018006d
:100960006011b8000005eb007a28e1000a003900a8
:1009700006007800c75ddd00f707b20087807500cc
:100980002d003700828171000a0178006105600046
:100990008180d1000080d3008502e900f9ff3b008f
:1009a000060440008784480002003b0060041400f5
:1009b000e0841c000988a300070032008a817100ce
:1009c00082817100610164008904d1000884d30030
:1009d0008b05e800170037000978a30013003a00e0
:1009e0000b00e000130034008b05e900080444000c
:1009f00089844c000a4474000978a3000d003a0071
:100a00000b00e000070034008b05e90008044400f7
:100a100089844c0001003a000b0020000978a300f3
:100a2000f7ff32000001eb00020037008281710005
:100a30000a017800260107000cf0a70001f0a000d1
:100a40006f0137006420e10002003a00838f6c00e0
:100a50006f0133000801be000200be0068013700cc
:100a6000889fbe008a9fbe008c1f7800530107003c
:100a70001002200002003b0080458800570137002b
:100a80008a0062006408e10002003a0080458800a4
:100a90005f0137006108e100fcff32000800be0082
:100aa000030478007200070001f0a10009000700ac
:100ab00008f0a600040037000001be0091042400e5
:100ac000b0fd200088ff070009f0a70001f0a20098
:100ad0004b013700889fbe008a9fbe008c9fbe00de
:100ae0000004be00200107000800be00890678004f
:100af0006420e10008003900040032000160a00019
:100b000012022000824588005300370091fc230028
:100b1000b0fd20004e0037000006eb0009f0a100f8
:100b200003f82300020020000800be00a100070017
:100b30000600340001f82300000020000801be0078
:100b40004b0007000004be002c0020000800be007f
:100b500093e82300320a23009600070012003400b5
:100b60000801be00d1fd2300703d2b005fff070090
:100b70000005be00b3f32300f27a26000800be0091
:100b80002601070003f823000200200056ff07009b
:100b90000801be0055ff07000a01be00340007002f
:100ba0000004be000c06e8000800be0001f0a10031
:100bb00002002000039823007e0007000800be000a
:100bc000160035000801be00140107000005be0034
:100bd00032cd2c0043fb230044ff0700809fbe0062
:100be0001269280003d52b000a00be000b01070084
:100bf000620f210013ef2b003cff07000a01be002b
:100c0000060107004f01be00190007000801be00e1
:100c1000020107000801be0034ff07000c00e000dd
:100c20000b0032000c10a70001f0a200b2fd200062
:100c300093fc23006260e1000400320022a920003e
:100c400063f023000c10a70063f8230027ff0700c0
:100c50000df0a70001f0a2004f06be004f05be0038
:100c60004f04be00000006000081eb001f013700aa
:100c7000889fbe008a9fbe008c1f7800cf000700af
:100c8000d600330003866c006450e1002e00320071
:100c90006420e100330032006150e1002f00320097
:100ca0006120e1003100320085855500eb07b0007e
:100cb0000900200008042000050037000804440053
:100cc00089844c000a0031000603430087834b00ef
:100cd0000001530081815b00f8ff33000203be0076
:100ce0000800a0000804440089844c00f6ff390085
:100cf000c639dd00830173000100320013002000bb
:100d00008904d1000884d3000998a30005003200ab
:100d10000800a7000300a0008904d1000884d300c4
:100d20008b05e8008904d1000884d3000001eb00a2
:100d30000281d2006600070001f0a1000cf0a700bc
:100d400001f0a000ae0037006420e100b0003200e6
:100d50000801be000200be00f7ff37006120e1007d
:100d6000ab0032006000b800f3ff37000000200045
:100d700001f82700f0ff3700839f68000100e000c2
:100d800002003d0060001000e08018000300e00059
:100d900002003d0060011100e081190073010700ad
:100da0004f00e00002003b0060001000e0801800ef
:100db00000000600140020007e023700f4ff2f0020
:100dc0007c0237000001be00670007000470a70026
:100dd00003f0a1006509b100160032000d003500d6
:100de0006828e10006003500f0ff2f00f1ff270022
:100df0000300e00013003b00010028000000050094
:100e000000004000818048008502e900fcff3a00b4
:100e100008003700f88f420002003c008000eb0021
:100e2000000005008100d1000080d3008502e800a9
:100e3000fcff3a000300e00002003b0060001000ed
:100e4000e0801800000006000001be004600070018
:100e50000470a70003f0a10003f8a30013003a00f8
:100e60006509b10010003200090035006928e10071
:100e700002003500010028000000050000004000cd
:100e8000818048008502e900fcff3a00000006006e
:100e9000f88f4200050035008100d1000080d300aa
:100ea0008502e800fcff3a00000006008000eb002d
:100eb000000005004f89de008201780058023700eb
:100ec0006011b800660237000400200039023700c4
:100ed00081002000618055000b003d000b002000c8
:100ee00061fe2f000100e1001d00340082817100cd
:100ef000610164008904d1000884d3000000e80087
:100f0000faff3a00710020006100640003007000e5
:100f1000020060000900320061044400e0844c00db
:100f20000988a500050032008b05e8006808e1008b
:100f300002003a008904d1000884d300f20f200097
:100f40000258e10005003d00c75ddd00f907b20071
:100f50008980750008007800000006000bf8270063
:100f60008b00780000000500c70ade00f107b20020
:100f7000f50fb20008003200e1cf4200020032005b
:100f80000170a00024000500810f700001003200f4
:100f90000408050044000500810f700002003a00bb
:100fa000140005008502e9000000400081c04800ef
:100fb000fcff3b000170a000240005000004be00ff
:100fc000e9ff07000003be000405be000200be00ea
:100fd000e5ff0700844f7500000006000200be0018
:100fe0006450e100050036006420e1000200360094
:100ff0000968a30001003a000800be000160a000db
:101000004f0678004f05be004f04be0000000600ea
:10101000f0ff2f00f1ff2700f9ff3700889fbe0087
:101020008a9fbe008c1f7800e4ff0700ebff3300af
:1010300003866c006450e100240032006420e1006b
:10104000270032006150e100220032006120e100ff
:10105000210032008b854200eb07b1000134b8005b
:10106000003ab8000804420089844a00013ab800f6
:101070000030b8008880400009014a0004003300b5
:101080000000400081804800020149008b05e90012
:10109000c909dd0083017000010032001300200047
:1010a000c814de004814dd004709de001200b2005b
:1010b000c808de000884700085ff070001f0a10069
:1010c0000cf0a70001f0a000cdff37006120e10087
:1010d000cfff32000801be000200be00f7ff37005c
:1010e0006150e100fcff3a00c9ff3700889fbe0055
:1010f0008a9fbe008c9fbe00820578000004be005f
:1011000099ff07000800be006420e10007003900d5
:1011100002003a00f1ff2700f0ff2f000160a0005d
:101120001202200082458800550037006120e1004e
:1011300003003a000b00a70001f82300500037001d
:1011400001f0a100020021009364240019ff0700b0
:101150000800be0004003500b2fd2000930c2400fe
:10116000ee0107000004be000005eb000b00a60026
:101170004f0dde0001f0a1000004be0032982f00e8
:1011800023ea2300a5ff07000001eb0003f0230082
:101190000b00a70003f82300d4fd070009ff070098
:1011a0000000a7000a00a20042ff07000b00e000b9
:1011b000030032000200200003f02300cafd0700f4
:1011c00001f0a2000006be000200200093042400eb
:1011d00092ff07000801be00c4fd0700809fbe000b
:1011e0000c00be0022a22a00d3a723008bff070019
:1011f0004f01be00bdfd07000004be0001f0a100cc
:101200000200200003982300eafe07000800be0049
:10121000190035000001be0080ff07000006be0077
:10122000b2c52900e36223007cff070022222b00c5
:10123000f3942b00adfd07000c01be0077ff070003
:10124000e273280083c02300a8fd07000c01be0044
:1012500072ff070042aa2a00a3e22b00a3fd0700a9
:101260000c01be006dff07000801be006bff070008
:101270000801be009dfd07000a00a70001f0a200c2
:101280004f06be004f05be004f04be000000060022
:101290000001eb0095ff3700889fbe008a9fbe00cb
:1012a0008c1f78000004be002fff07000478a30005
:1012b00026003a006120e1002500320009f8a30071
:1012c00025003a006420e10021003200f507b1005a
:1012d0000508a300020032000000400081804800a1
:1012e0006044b8000310200002002000000040000d
:1012f000818048000805440089854c000a054100aa
:101300008b8549000a0550008b8558000300330087
:101310000a00be0002047400838474008301d100bb
:101320000281d300830f7100f0ff3a008904d100dd
:101330000884d3006001490082017800c1adde005d
:10134000fb07b000e2fe07002dff37000960a00098
:101350000800be002aff37001202200082458800e4
:10136000f0ff2f00f1ff270025ff37006022b800b3
:10137000060220000000d0008180d2000482d2004a
:101380008582d2000000a0000202520083825a002f
:10139000030031000202420083824a000000a100e3
:1013a0000603e900f3ff3a0000000600889fbe0034
:1013b0008a9fbe0030044200b0844a0030054b00d2
:1013c00090854b006000b1000898be000a90be00f6
:1013d0000440e10005c8e10006d0e10007d8e100c3
:1013e00002003100680040001008e8004f05be0010
:1013f0004f04be0000000600889fbe008a9fbe000a
:101400003004be002005be000418540005985c009e
:1014100006185d0007985d00110020000440e100ff
:1014200005c8e10006d0e10007d8e100010039005d
:101430008000eb00108810004f05be004f04be0076
:10144000000006001200fa00889fbe008a9fbe00be
:101450008c9fbe00e0b79f00f1b79f0082bf9f0046
:1014600093bf9f000605be000404be000000eb0011
:10147000d0b79f00c0b79f00b0b79f00a0b79f0034
:1014800090b79f000006eb005fb19700cfb09700c8
:10149000820141003fb097000200e00004003d00df
:1014a000370007007e805700c0ff070003003700a9
:1014b000330007007e805700cfff0700dfb697009c
:1014c0000d00e0000c0035006fb29700ffb29700ee
:1014d0000fbb97009fbb9700100020000100200069
:1014e0006011b80000027200818272000203730072
:1014f000838373001b0007000c06e8000104200032
:10150000810f5600e0ff3a000d00e00004003d00ae
:101510000802be000a03be007e805700a3ff07003a
:101520005fa897000000e00005003a001fb2970096
:10153000afb297003fb39700cfb397000900070001
:101540006fb09700ffb097000fb997009fb9970051
:101550004f06be004f05be004f04be000080fa00db
:10156000000006000100070000000600a4b79f006d
:10157000b5b79f00c6b79f00d7b79f000000060011
:101580004f09de0082817100b3b79f004f01de007a
:101590008180400082807000a1b79f008fb09700cb
:1015a0004f09de00000040000200700090b79f006d
:1015b0007fa897004f01de0081804000828070008c
:1015c00081b79f000d0007004f3ade000000400089
:1015d00004007000f0af9f00080007000402420002
:1015e00085824a0006034b0087834b00dfff07001c
:1015f0000802be000a03be00000006002fb29700da
:10160000bfb297004fb39700dfb39700000006000a
:10161000881f780018002000881f780089ff0700c5
:101620008f87e9004f04780000000600801feb0060
:1016300084ff07008f87e90000000600889fbe0036
:101640008a9fbe00e00f5000e08f5800e00f590065
:10165000e08f59000c003d006044b8006055b800b0
:101660000000540081805c0002015d0083815d0008
:10167000180020001500070008003d0018000700b2
:101680000004eb00050037000004eb000f0007002a
:1016900002003d001200070018002000dcff0700d8
:1016a0000800e000060032006022b8006033b80095
:1016b0000000520081805a0002015b0083815b00c0
:1016c0004f05be004f04be0000000600e00f5200b0
:1016d000e08f5a00e00f5b00e08f5b000000060027
:1016e0006044b8006055b8000402540085825c0074
:1016f00006035d0087835d0000000600889fbe0032
:101700008a9fbe008c1f7800e00f5000e08f5800c9
:10171000e00f5900e08f59000d003d006044b80013
:101720006055b8000000540081805c0002015d003b
:1017300083815d001c0020000820e10009a8e10071
:101740000ab0e1000bb8e1000d003d0008003700d1
:101750000006eb00e00f5200e08f5a00e00f5b0044
:10176000e08f5b0006003d006044b8006055b800a3
:101770000402540085825c0006035d0087835d00df
:10178000aaff07000c00e000060032006022b8004b
:101790006033b8000000520081805a0002015b00f3
:1017a00083815b004f0678004f05be004f04be00ea
:1017b00000000600889fbe008a9fbe00841f78003c
:1017c000fefd07004f00780011003300f0ff2f00ee
:1017d000838f6c0006003b00040565000a00a7002b
:1017e0000800370009f0a6001000200008003700ac
:1017f000820f5400838f5c0003003900100020002a
:1018000001003e000000200009f0a7000000ea00ef
:101810004f05be004f04be000000e00000000600bf
:10182000881f7800030478000300e00007003d00f3
:1018300060001000e080180060011900e0811900cc
:1018400002003b0001f02d000300370004000700f8
:1018500008f0a70001f0a0004f0478000000060087
:10186000889fbe008a9fbe00008270000402710043
:1018700004827100260032000004be000200be0097
:101880006011b8006b092000950220000182cf0092
:101890000a0039000541b1000082cf00070039007d
:1018a0000541b1000982cf00040039000541b100b3
:1018b0000882cf00010039000541b1000542520005
:1018c000120032000a003b00828171006101640055
:1018d0008100d1000080d3008984d3000884d30024
:1018e0008b05e8000442e800f7ff3a0007003700e4
:1018f0000804440089844c000000480081804800ae
:101900008b05e9000442e900f9ff3a0070fd070089
:101910004f05be004f04be0000000600040020007a
:1019200000003700889fbe008a9fbe008c1f780091
:101930004f26dd00a1fd0700a8fd33006120e10076
:10194000430032006250e10041003e003e00390099
:101950006420e1003c003200058255000f003b008e
:101960000402e80038003a00800f5300818f5b00ca
:10197000350034000800be0003f0a10001f0a6000d
:1019800003f0a0000cf0a700d8fb07009cfd370077
:101990000603430087834b000c46460000055300b6
:1019a00081855b00020033000a03be000c00a0002a
:1019b0000402e900f6ff3b008505780006024300bb
:1019c00087824b0004003a006000b80009f0a700cd
:1019d00001f0a0008afd37000002520081825a0007
:1019e0000704e000040033000603430087834b0034
:1019f0008b05e900faff3700090578000604be00f0
:101a00000203be006011b80031fd0700e00f520074
:101a1000e08f5a000700350002003c000c08a300cc
:101a2000040032000601be0003f0a0000cf0a70085
:101a3000aefb07000a85680001f0a1000af0a700cc
:101a400001f0a0006efd37000800be006cfd3700fd
:101a5000100220000cf0a600804588006cfd3700c5
:020000040000fa
:101a60000a0a00000a0a00000a0a00004465000091
:101a7000627500007420000064750000206300009f
:101a80006f640000652000003a2000000a0d00008d
:101a9000000000000a0a00000a0d000020580000a3
:101aa000203a00002000000020590000203a0000e9
:101ab0002000000020540000657400006120000038
:101ac0003a200000000000002020000049440000ef
:101ad00020000000203a0000200000000d0000005f
:0c1ae000090000000a0d000000000000da
:020000040000fa
:101aec000000fa0090168000680060000000e00022
:101afc0002003a0010c0b300010037000040eb00b8
:101b0c000080fa00000006000400fa00008fbe00fe
:101b1c004ec8bf000004e00002003a001e00be00e8
:101b2c00020037001e00be0001f0a2000080fa0087
:101b3c00000006000200fa00004f780006002000aa
:101b4c00872c24001e42780002002000a33f2400b2
:101b5c0000002000a1472400060307000600200017
:101b6c00872c24001e4278006011b8000000200071
:101b7c00a1472400ff02070006002000872c240048
:101b8c001e42780002002000a33f24006000b80031
:101b9c00f802070006002000872c24001e42780063
:101bac006011b8006000b800f202070002002000cb
:101bbc00832c24006000b800c90207000080fa00e2
:101bcc00000006000200fa00004f78008042eb0093
:101bdc0006002000673924001e4278006011b8000e
:101bec0000002000813424003803070025c0b30016
:101bfc0006002000872c24001e42780002002000e2
:101c0c006328240000002000113e24002f0307004d
:101c1c0025c0b30006002000872c24001e4278004b
:101c2c0002002000a337240000002400e14124001e
:101c3c002603070025c0b30006002000872c2400d3
:101c4c001e42780002002000a33f24000000200068
:101c5c00f14224001d03070025c0b300060020003c
:101c6c00872c24001e42780002002800b343240075
:101c7c0000002400e14124001403070025c0b30038
:101c8c0006002000872c24001e427800020024004d
:101c9c009346240000002000113e24000b03070093
:101cac0015c0b30006002000872c24001e427800cb
:101cbc0002002000a34724000000200081342400ef
:101ccc00020307000080fa00000006000200fa0080
:101cdc00004f78008042eb0006002000a73f240054
:101cec001e4278006011b8000000200081342400ee
:101cfc00f602070025c0b30006002000872c240044
:101d0c001e427800020020006330240000002000f6
:101d1c00f1422400ed02070025c0b30006002000ac
:101d2c00872c24001e42780002002000a33f2400d0
:101d3c000000240051482400e402070025c0b30031
:101d4c0006002000872c24001e4278000200200090
:101d5c00a34724000000200061492400db02070097
:101d6c0025c0b30006002000872c24001e427800fa
:101d7c0002002800b34b240000002400514824002a
:101d8c00d202070025c0b30006002000872c2400d7
:101d9c001e42780002002400934e24000000200014
:101dac00f1422400c902070015c0b3000600200050
:101dbc00872c24001e42780002002000a34f240030
:101dcc000000200081342400c00207000080fa00cb
:101ddc00000006000200fa00004f78000600200008
:101dec00872c24001e4278006011b80000002000ef
:101dfc00a13f24005f02070006002000872c24006e
:101e0c001e42780002002000a33f240000002000a6
:101e1c00a13f24005702070006002000872c240055
:101e2c001e42780002002000a33f24006000b8008e
:101e3c005002070006002000872c24001e42780068
:101e4c006011b8006000b8004a02070002002000d0
:101e5c00832c24006000b800210207000080fa00e7
:101e6c00000006000200fa00881f780010c0b300c2
:101e7c0050e8b7000040eb00004f7800e0c1b30021
:101e8c00ca380700e0c1b300c83807001e4078000c
:101e9c00e14f50000b003a0000d02200111320003b
:101eac002e44070002002000832c24000000200098
:101ebc00812c2c006602070000d022001113200098
:101ecc00264407000920070018c0b30002002000b8
:101edc00a34f2400b6fb07000000e00001003c000b
:101eec000044eb000804e000080032000003eb00a3
:101efc0093c0b30004002000c528240012c0b30016
:101f0c0041382000007d20005e1b0700f71f0700f2
:101f1c0018c0b3000200200063492400a4fb070092
:101f2c000000e00001003c000044eb000804e0006d
:101f3c00080032000003eb0093c0b3000400200043
:101f4c00c528240012c0b300e1332000004b200050
:101f5c004c1b07004ec8bf00e14f500009003a006f
:101f6c000003eb0093c0b30004002000c52824003c
:101f7c0012c0b300814d2000004b2000411b070014
:101f8c00080037000003eb0093c0b30004002000ee
:101f9c00c528240012c0b300814d2000804d2000c4
:101fac00381b070002002000832c240000002000b6
:101fbc00412b2400ca010700ffff37000000fa0084
:101fcc00a0428000e30f5000a8003200e30f500045
:101fdc0003003e00e20f5000040032009101370074
:101fec00e40f5000e20032008e01370074c8bf00cd
:101ffc000004e00019003a0020c0b30050e8b7001c
:10200c0010c0b30051e8b70006002000872424005c
:10201c0000c2eb0002002000a347240000002000b7
:10202c0081342400d30107008041eb00c212200050
:10203c005119200030c1b300063507008041eb0078
:10204c00c2122000c135200090c1b3000135070039
:10205c0040002000a04288007201370074c8bf0005
:10206c00e14f50005e01320074c8bf00e24f5000d7
:10207c0047003a0051c8bf00e14f50002d003a0014
:10208c0020c0b30050e8b70020c0b30051e8b7003f
:10209c00060020008724240014c0b3000200200096
:1020ac00834c24000000200061392400b10107009a
:1020bc005ac8bf00a6e8b700000000005ac8bf000d
:1020cc008080fb00a6c8bf000080fb000080500091
:1020dc00e10f5000f9ff34008041eb002235200065
:1020ec00f13c200030c1b300da3407008041eb0032
:1020fc00223520002112200090c1b300d5340700f6
:10210c0020c0b30050e8b70010c0b30051e8b700ce
:10211c00060020008724240000c2eb0002002000ef
:10212c00a347240000002000f13a2400910107008d
:10213c003c01370020c0b30050e8b70010c0b3001a
:10214c0051e8b700060020008724240000c2eb00f1
:10215c0002002000a347240000002000f13a2400d4
:10216c00840107008041eb0022352000f13c200067
:10217c0030c1b300b73407008041eb00223520009a
:10218c002112200090c1b300b234070025013700a2
:10219c0074c8bf00e34f500033003a0051c8bf0071
:1021ac00e14f50000f003a0010c0b30050e8b700e8
:1021bc0020c0b30051e8b7008041eb00223520006d
:1021cc00f13c200030c1b300a23407008041eb0089
:1021dc00223520002112200090c1b3009d3407004d
:1021ec001001370020c0b30050e8b70010c0b30096
:1021fc0051e8b7008041eb0022352000f13c200073
:10220c0030c1b300933407008041eb00223520002d
:10221c002112200090c1b3008e340700060020006c
:10222c008724240000c2eb000200280093482400fd
:10223c0000002000a13724004e0107005ac8bf003f
:10224c00a6e8b700000000005ac8bf008080fb0061
:10225c00a6c8bf000080fb0000805000e30f5000b8
:10226c00f9ff3400ef003700ee00370075c8bf00ef
:10227c000004e0000f003a0020c0b30050e8b700a3
:10228c0010c0b30051e8b7000600200087242400da
:10229c0000c2eb0002002000f34a240000002000e2
:1022ac00a13f24003301070020002000a042880039
:1022bc00dc00370075c8bf00e14f5000ca00320087
:1022cc0075c8bf00e24f500028003a0051c8bf004b
:1022dc00e14f5000c6003a0010c0b30050e8b70000
:1022ec0020c0b30051e8b70006002000872424006a
:1022fc0014c0b30002002000f34a240000002c009c
:10230c00f15024001b010700060020008724240044
:10231c0014c0b30002002000f342240000002c0083
:10232c00f15024001301070006002000872424002c
:10233c0014c0b30002002000f34224000000280067
:10234c00b14b24000b010700060020008724240059
:10235c0014c0b30002002000a34724000000280092
:10236c00b14b240003010700ae003700ad0037006d
:10237c0076c8bf000004e0000d003a0010c0b300a6
:10238c0050e8b70020c0b30051e8b70006002000a9
:10239c000727240014c0b30002002000a347240028
:1023ac000000200081442400f20007009d0037004b
:1023bc0076c8bf00e14f50008f00320076c8bf00d6
:1023cc00e24f50008e00320076c8bf00e34f500041
:1023dc008d00320076c8bf00e44f500027003a0051
:1023ec0051c8bf00e14f500017003a0020c0b300a5
:1023fc0050e8b70020c0b30051e8b7000600200039
:10240c008724240014c0b300020020006331240090
:10241c0000002000113e2400d60007005ac8bf005f
:10242c00a6e8b700000000005ac8bf008080fb007f
:10243c00a6c8bf000080fb0000805000e10f5000d8
:10244c00f9ff34007700370020c0b30050e8b70024
:10245c0010c0b30051e8b700060020000727240085
:10246c0000c2eb00020020006331240000002000b9
:10247c0001422400bf0007006a00370076c8bf0085
:10248c00e54f50006200320076c8bf00e64f5000a6
:10249c0017003a0020c0b30050e8b70020c0b300ca
:1024ac0051e8b700060020000727240014c0b30031
:1024bc0002002000633124000000200001422400af
:1024cc00ac0007005ac8bf00a6e8b7000000000027
:1024dc005ac8bf008080fb00a6c8bf000080fb006c
:1024ec0000805000e10f5000f9ff34004d00370020
:1024fc0076c8bf00e74f500047003a0051c8bf00f4
:10250c00e14f50001d003a0020c0b30050e8b70066
:10251c0020c0b30051e8b70002002000832c240037
:10252c0000002000413324006d00070010c0b300f0
:10253c0050e8b70020c0b30051e8b70002002000fb
:10254c000327240000002000a1372400c00007004e
:10255c005ac8bf00a6e8b700000000005ac8bf0068
:10256c008080fb00a6c8bf000080fb0000805000ec
:10257c00e10f5000f9ff34002a00370050c8bf00ab
:10258c00e14f500026003a0020c0b30050e8b700dd
:10259c0020c0b30051e8b70002002000832c2400b7
:1025ac0000002000413324004d00070020c0b30080
:1025bc0050e8b70010c0b30051e8b7000600200087
:1025cc008724240000c2eb0002002000a337240063
:1025dc000000280091482400660007001100370015
:1025ec00000000000f003700000000000d00370055
:1025fc00000000000b00370000000000090037004d
:10260c000000000007003700000000000500370044
:10261c00000000000300370000000000010037003c
:10262c000000000010c0b30078e8b7000080fa008a
:10263c00000006000e00fa00100798002107980011
:10264c0032079800430798005407980065079800d4
:10265c0078c8bf000004e0001f003a005e02900042
:10266c00ee0290003e019000ce0190001e00900002
:10267c00ae009000ce000700004f78001e4078009e
:10268c00e24f500014003a0052c8bf00e24f500015
:10269c0002003a0049fe07000f00370052c8bf0085
:1026ac00e34f500008003a005e029000ee029000ea
:1026bc003e019000ce0190001e009000ae009000f4
:1026cc00dcff07000400370052c8bf00e44f500085
:1026dc0001003a0039fe07000080fa0000000600f5
:1026ec000a00fa001007980021079800320798009a
:1026fc004307980078c8bf000004e0001b003a00b4
:10270c003e019000ce0190001e009000ae009000a3
:10271c0016010700004f78001e407800e24f500071
:10272c0012003a0052c8bf00e24f500002003a00bb
:10273c00ccfd07000d00370052c8bf00e34f50001e
:10274c0006003a003e019000ce0190001e00900061
:10275c00ae009000e2ff07000400370052c8bf0033
:10276c00e44f500001003a0014fe07000080fa000c
:10277c00000006001000fa00881f7800100798006f
:10278c00210798003207980043079800244f9800bf
:10279c00660798007707980078c8bf000004e0002f
:1027ac0028003a006e039000fe0390002e4a900021
:1027bc003e019000ce0190001e009000ae009000f3
:1027cc00b8010700004f78001e407800e24f50001f
:1027dc001c003a0052c8bf00e24f500002003a0001
:1027ec00a0fd07001700370052c8bf00e34f500090
:1027fc0010003a003e009000ce0090006ef90700e9
:10280c00000478001e009000ae0090006af90700ea
:10281c00000078001600200093c0b3006e029000f8
:10282c00fe0290002e4990008800780015190700d0
:10283c000400370052c8bf00e44f500001003a00ba
:10284c00defd07004f0478000080fa00000006004f
:10285c000a00fa0010079800210798003207980028
:10286c004307980078c8bf000004e00015003a0048
:10287c003e019000ce0190001e009000ae00900032
:10288c00d9010700004f78001e407800e24f50003d
:10289c000c003a0052c8bf00e24f500002003a0050
:1028ac0070fd07000700370052c8bf00e34f50000f
:1028bc000400320052c8bf00e44f500001003a003f
:1028cc00befd07000080fa00000006001200fa00ae
:1028dc00881f78001007980021079800320798008d
:1028ec0043079800244f98006607980077079800d4
:1028fc000557980078c8bf000004e00029003a0092
:10290c008e5290006e039000fe0390002e4a9000b1
:10291c003e019000ce0190001e009000ae00900091
:10292c00fa010700004f78001e407800e24f50007b
:10293c001c003a0052c8bf00e24f500002003a009f
:10294c0048fd07001700370052c8bf00e34f500086
:10295c0010003a003e009000ce00900016f90700df
:10296c00000478001e009000ae00900012f90700e1
:10297c0000007800160020008e5190006e0290002e
:10298c00fe0290002e49900088007800bd180700c8
:10299c000400370052c8bf00e44f500001003a0059
:1029ac0086fd07004f0478000080fa000000060046
:1029bc000c00fa00889fbe00008fbe002207980012
:1029cc003307980044079800550798002e00900094
:1029dc00be0090004cfc07002007980031079800bf
:1029ec00009a210021c0b30001487800be1c0700ea
:1029fc0032b32100432924001e00be0084f90700d5
:102a0c00008fbe0032b32100432924002e00900019
:102a1c00be0090007ef9070020079800310798004f
:102a2c0010c0b30014e8b700c0c48000d1c480004b
:102a3c000001be002e009000be009000a7f707001a
:102a4c006011b8001df907000000e00009003a0011
:102a5c0060c4800071c480000001be001e00be0076
:102a6c009ef707006011b80014f907000000e000a1
:102a7c003900320060c4800071c480000001be00c7
:102a8c001e00be0095f707000004be00c0c4800005
:102a9c00d1c480000001be002e009000be0090004a
:102aac008ef707000801be00eaf7070052dc210090
:102abc00236b240056f907000200200003002400b9
:102acc0068f8070000c6880011c688004e00900008
:102adc00de009000bd1f070014200700d0992100d4
:102aec0021c0b30001487800f099210011c0b30057
:102afc0001487800e099210011c0b300014878002a
:102b0c00409a21008040eb0001487800209a210077
:102b1c0061c0b30001487800309a210041c0b30075
:102b2c0001487800a49a21006000b8006011b80038
:102b3c00009abe000292be00509a21008040eb0029
:102b4c000148780000000000509a210010407800e5
:102b5c00e14f5000fcff3a00909a210010407800a1
:102b6c004f04be000080fa00000006000800fa00c6
:102b7c00008fbe0022079800330798001e00be008d
:102b8c00e1fb0700008fbe00009a210021c0b300ba
:102b9c0001487800541c070010c0b30014e8b700bb
:102bac00b2fd2000930424001e00be0018f907009b
:102bbc0002002000433324002af8070052dc2100d5
:102bcc002363240012f9070000c6880011c6880090
:102bdc002e009000be0090007c1f0700d31f070042
:102bec00d099210021c0b30001487800f099210050
:102bfc0011c0b30001487800e099210011c0b30066
:102c0c0001487800409a21008040eb000148780090
:102c1c00209a210061c0b30001487800309a21004d
:102c2c0041c0b30001487800a49a21006000b800ac
:102c3c006011b800009abe000292be00509a2100aa
:102c4c008040eb000148780000000000509a210001
:102c5c0010407800e14f5000fcff3a00909a2100a0
:102c6c00104078000080fa00000006000800fa000e
:102c7c00300798003e0090000000e00008003d0086
:102c8c003e0090000000ea00300798000000200091
:102c9c0001f82b001007980021079800040037005a
:102cac000000200001f8230010079800210798006d
:102cbc0002002000032f24001e009000ae009000a4
:102ccc00d3f807000041eb00250007000000eb00e3
:102cdc00000f78001200370002002000032f2c0098
:102cec001e009000ae009000c9f8070022c0b3008f
:102cfc001b00070022c0b3006000b80018000700da
:102d0c0002002000032f24001e009000ae00900053
:102d1c00bff8070022c0b300110007001e0fe80027
:102d2c003e0090000000e9009e0f5000eaff3c00be
:102d3c0002002000032f2c001e009000ae0090001b
:102d4c00b3f8070022c0b3000500070012c0b3009f
:102d5c006000b800020007000080fa0000000600c6
:102d6c000600fa00008fbe00424798004e409000cb
:102d7c000004e00006003a00009a210021c0b300d4
:102d8c0001487800d81b070010c0b30014e8b70046
:102d9c001e00be005cfb0700008fbe00b2fd2000d1
:102dac00930424001e00be0099f8070002002000c6
:102dbc0043332400abf7070052dc210023632400cb
:102dcc0093f8070000c6880011c6880050d22f0067
:102ddc00313624002040880031408800531f070002
:102dec00d099210021c0b30001487800f09921004e
:102dfc0011c0b30001487800e099210011c0b30064
:102e0c0001487800809a210071c0b3000148780015
:102e1c00709a210071c0b30001487800409a2100db
:102e2c0031c0b30001487800209a210061c0b30082
:102e3c0001487800309a210041c0b3000148780065
:102e4c00a49a21006000b8006011b800009abe007e
:102e5c000292be004e409000e14f500004003a0038
:102e6c00609a210011c0b3000148780003003700bc
:102e7c00609a210021c0b30001487800509a2100cb
:102e8c008040eb000148780000000000509a2100bf
:102e9c0010407800e14f5000fcff3a000080fa002f
:102eac00000006000e00fa00008fbe0022079800fa
:102ebc0033079800044f980056079800670798004e
:102ecc002e009000be0090000ffb0700200798001a
:102edc0031079800009a210021c0b3000148780006
:102eec00811b070032b32100432924001e00be00c1
:102efc0047f8070020c4880031c4880032b3210091
:102f0c00432924002e009000be00900040f80700da
:102f1c0080c4880091c4880020c0b30014e8b700b6
:102f2c00109a21008e489000014878005e009000b5
:102f3c00ee009000981d0700071e070050d22f00ce
:102f4c00312e24002040880031408800f71e0700f5
:102f5c00d099210011c0b30001487800f0992100ec
:102f6c0011c0b30001487800e099210011c0b300f2
:102f7c0001487800209a210061c0b3000148780014
:102f8c00309a210061c0b30001487800409a2100ba
:102f9c0011c0b30001487800609a210011c0b30041
:102fac0001487800a49a21006000b8006011b800b4
:102fbc00009abe000292be00509a21008040eb00a5
:102fcc000148780000000000509a21001040780061
:102fdc00e14f5000fcff3a00909a2100104078001d
:102fec000080fa00000006000800fa00881f780034
:102ffc00008fbe002207980033079800009a21002a
:10300c0021c0b30001487800371b070010c0b30083
:10301c0014e8b70032b32100432924001e00be007f
:10302c00fbf70700a0c58800b1c5880018c0b30025
:10303c006011b8001e00be005bf707000000e00046
:10304c00010035000044eb000804e00004003200ed
:10305c00109a210080c0eb00014878000300370073
:10306c00109a210011c0b300014878002e00900086
:10307c00be009000481d0700b71d0700d099210025
:10308c0011c0b30001487800f099210021c0b300b1
:10309c0001487800e099210011c0b3000148780084
:1030ac00609a210011c0b30001487800209a2100d9
:1030bc0021c0b30001487800309a210061c0b300f0
:1030cc0001487800a49a21006000b8006011b80093
:1030dc00009abe000292be00509a21008040eb0084
:1030ec000148780000000000509a21001040780040
:1030fc00e14f5000fcff3a00909a210010407800fc
:10310c004f0478000080fa00000006001000fa005e
:10311c00008fbe002207980033079800044f9800d8
:10312c005607980067079800654f98006e48900006
:10313c000004e00006003a00009a210021c0b30010
:10314c0001487800e81a070020c0b30014e8b70063
:10315c002e009000be0090006bfa0700200798002c
:10316c003107980032b32100432924001e00be0011
:10317c00a7f7070020c4880031c4880032b32100af
:10318c00432924002e009000be009000a0f70700f9
:10319c0080c4880091c488005e009000ee0090000e
:1031ac00fd1c07006c1d070050d22f003136240087
:1031bc0020408800314088000000200001082400d5
:1031cc00a0c88800b1c8880000002000010c2400b1
:1031dc00e0c88800f1c88800d099210011c0b30064
:1031ec0001487800f099210011c0b3000148780023
:1031fc00e099210011c0b30001487800109a210019
:10320c008e48900001487800809a210071c0b3006c
:10321c0001487800709a210071c0b3000148780011
:10322c00409a210021c0b30001487800209a210067
:10323c0061c0b30001487800309a210061c0b3002e
:10324c0001487800a49a21006000b8006011b80011
:10325c00009abe000292be006e489000e14f5000f2
:10326c0004003a00609a210011c0b30001487800b4
:10327c0003003700609a210021c0b3000148780098
:10328c00509a21008040eb000148780000000000bb
:10329c00509a210010407800e14f5000fcff3a009a
:1032ac00909a2100104078000080fa00000006007f
:1032bc001000fa00889fbe00004f9800520798003b
:1032cc0063079800614f980010002000000f7800f1
:1032dc00614380001107980050c8bf000080fb00bc
:1032ec002007980051c8bf000080fb0030079800f1
:1032fc0020c0b30051e8b70020c0b30050e8b700bd
:10330c0020c0b3004fe8b7001e0078006600b9007b
:10331c00000078008080e80020212100008040001f
:10332c0090007800400620000088b900000078006a
:10333c00cf80de00dcf6070002002000832424008e
:10334c0067f507000004be001e0078006600b90097
:10335c00800078002021210000804000900078003f
:10336c00400620000088b90000007800cf80de0005
:10337c00cdf60700020020008324240058f5070036
:10338c005e029000ee0290000801be00a9fc07004e
:10339c003e0090000040780051e8b7002e009000ed
:1033ac000040780050e8b70020c0b3004fe8b700e9
:1033bc005c0037006e489000e94f500028003a003e
:1033cc00604380009e009000808f500024003a00e3
:1033dc001e0078006600b900000078008080e800cc
:1033ec002021210000804000900078004006200041
:1033fc000088b90000007800cf80de00aaf6070034
:10340c00020020008324240035f507000004be00d0
:10341c001e0078006600b900800078002021210091
:10342c000080400090007800400620000088b90021
:10343c0000007800cf80de009bf607000200200021
:10344c008324240026f507005e039000ee03900011
:10345c000e4a90000801be00c6fc07003000370081
:10346c001e007800e10f500003003a000040eb0012
:10347c00604f98000200370020c0b300604f9800e6
:10348c00604380009e009000808f500024003a0022
:10349c001e00e8006600b900000078008080e8009b
:1034ac002021210000804000900078004006200080
:1034bc000088b90000007800cf80de007af60700a3
:1034cc00020020008324240005f507000004be0040
:1034dc001e00e8006600b900800078002021210061
:1034ec000080400090007800400620000088b90061
:1034fc0000007800cf80de006bf607000200200091
:10350c0083242400f6f40700ee4a90005e0390003a
:10351c00ee0390000e4a90000801be00ebfc070081
:10352c001e0fe800e04280009e007800808f500063
:10353c000c003d00604380009e009000808f500086
:10354c0008003a001e0078006600b9008000780080
:10355c00202121000080400010007800e10f400085
:10356c0094ff3a004f04be000080fa0000000600f1
:10357c000600fa000000eb00000f78000000eb00e2
:10358c0010079800330037001e0078006600b90061
:10359c008000780020d620000080400010017800c8
:1035ac001e00e8006600b9008000780020d62000dc
:1035bc0000804000100078000000510020079800a7
:1035cc002e0090000000e00003003d002e00900053
:1035dc000000ea00200798009e0090002e0090004a
:1035ec0000804000100798001e0078006600b900ab
:1035fc00000078008080e80020d620000080400089
:10360c00100178001e00e8006600b9000000780088
:10361c008080e80020d62000008040001000780058
:10362c0000005100200798002e0090000000e000e0
:10363c0003003d002e0090000000ea0020079800d7
:10364c009e0090002e009000008040001007980013
:10365c001e0fe800e04280009e007800808f500032
:10366c0004003d009143800050092000808f5000e1
:10367c00c5ff36001e0090000080fa000000060016
:10368c000400fa006c28ef006e28ef005e28ef00b3
:10369c000080eb0010b688000080eb0020b688009c
:1036ac000080eb0030b688000080eb0040b688004c
:1036bc000000eb00100798002b0037000000eb0017
:1036cc00000f7800220037001e007800e10f500038
:1036dc00090034001e007800fb0f500006003c006f
:1036ec001e009000e10f5000030034001e009000fb
:1036fc00f10f50000b0034001e0078007400b9006c
:10370c00800078001e009000008040008000400087
:10371c00208b200000804000110020000108780060
:10372c000a0037001e0078007400b9008000780091
:10373c001e0090000080400080004000208b200084
:10374c00008040008000eb00010878001e0fe800ac
:10375c001e007800fd0f5000dbff34001e009000af
:10376c000000e800100798001e009000f30f5000b6
:10377c00d2ff3400100020003049880010002000d7
:10378c00704a880010002000b04b88001000200008
:10379c00f04c880010002000304e880010002000f3
:1037ac00704f88001000200030628800100020004c
:1037bc00706888001000200030678800100020001e
:1037cc00f065880010002000b06488001000200014
:1037dc007063880090002000000f78001400370000
:1037ec00b0002000100798000d0037001e00780074
:1037fc007400b900800078001e009000008040002a
:10380c0080004000208b2000008040001100200030
:10381c00010878001e0090000000e80010079800d6
:10382c001e009000f30f5000f0ff34001e0fe80054
:10383c001e007800f40f5000e9ff3400a0002000b7
:10384c00000f7800140037000000eb001007980000
:10385c000d0037001e0078007400b900800078005d
:10386c001e0090000080400080004000208b200053
:10387c000080400011002000010878001e0090001c
:10388c000000e800100798001e009000e20f5000a6
:10389c00f0ff34001e0fe8001e007800f30f5000fc
:1038ac00e9ff34000000eb00000f78001400370033
:1038bc0040002000100798000d0037001e00780013
:1038cc007400b900800078001e0090000080400059
:1038dc0080004000208b2000008040001100200060
:1038ec00010878001e0090000000e8001007980006
:1038fc001e009000e80f5000f0ff34001e0fe8008f
:10390c001e007800e50f5000e9ff34000000eb00ca
:10391c00000f780014003700b0002000100798004a
:10392c000d0037001e0078007400b900800078008c
:10393c001e0090000080400080004000208b200082
:10394c000080400011002000010878001e0090004b
:10395c000000e800100798001e009000ef0f5000c8
:10396c00f0ff34001e0fe8001e007800e50f500039
:10397c00e9ff340060012000000f780014003700cc
:10398c0050002000100798000d0037001e00780032
:10399c007400b900800078001e0090000080400088
:1039ac0080004000208b200000804000110020008f
:1039bc00010878001e0090000000e8001007980035
:1039cc001e009000ee0f5000f0ff34001e0fe800b8
:1039dc001e007800fe0f5000e9ff34000080fa0052
:1039ec00000006000200fa00000f78001e007800ac
:1039fc00e30f50000c003200e30f500003003c00ba
:103a0c00e10f5000060032000d003700e50f5000aa
:103a1c0007003200e70f50000700320008003700a3
:103a2c005000200007003700200020000500370060
:103a3c006000200003003700100020000100370058
:103a4c000080eb000080fa00000006000800fa007d
:103a5c001007980021079800320798000000eb002f
:103a6c00000f78003e009000e40f500084023200fa
:103a7c00e40f500007003c00e20f5000e20032005f
:103a8c00e20f5000af013c00e10f50000f0032007c
:103a9c0086063700e60f50001c043200e60f50007b
:103aac0046033500e70f5000e7043200e80f5000e2
:103abc00b40532007d063700104380000000e8009a
:103acc00104388001e0fe8000100370000000000c2
:103adc00104380000000e800f30f500024003c006d
:103aec0000438000114380000101e8007400b9001c
:103afc00000078000200400080004000208b200075
:103b0c0000804000100078000000e00018003a002f
:103b1c00004380000000e900124380007400b900eb
:103b2c00000078000200400080004000208b200044
:103b3c0000804000100078000000e0000c00320013
:103b4c00014380001e009000808f500004003a005a
:103b5c00114380002e009000808f50000400320032
:103b6c009143800050092000808f5000d2ff360016
:103b7c00004380000000e900124380007400b9008b
:103b8c00000078000200400080004000208b2000e4
:103b9c0000804000100078000000e00008003200b7
:103bac00014380001e009000808f50003c003a00c2
:103bbc00114380002e009000808f500038003a0096
:103bcc001e0078000000e00033003200e04280006c
:103bdc006600b9008000780060d6200000804000ac
:103bec001100200001087800e04280000000e8008d
:103bfc00e0428800e0428000024380006600b90089
:103c0c008000780020d62000008040000208780058
:103c1c00e0428000124380006600b900800078000a
:103c2c0040d620000080400002087800e04280006e
:103c3c006600b9008000780060d62000008040004b
:103c4c007100200001087800e04280000000e800cc
:103c5c00e0428800004380000000e9000043880037
:103c6c00e0428000024380006600b90080007800ca
:103c7c0020d620000080400002087800e04280003e
:103c8c00124380006600b9008000780040d6200006
:103c9c0000804000020878000000eb0004063700aa
:103cac0010438000f30f50000c00320000438000e2
:103cbc00114380000101e8007400b9000000780095
:103ccc000200400080004000208b2000008040005b
:103cdc00100078000000e000440032000043800037
:103cec000000e800124380007400b9000000780066
:103cfc000200400080004000208b2000008040002b
:103d0c00100078000000e00038003a001e00780037
:103d1c000000e00033003200e04280006600b90091
:103d2c008000780060d62000008040001100200048
:103d3c0001087800e04280000000e800e0428800c2
:103d4c00e0428000024380006600b90080007800e9
:103d5c0020d620000080400002087800e04280005d
:103d6c00124380006600b9008000780040d6200025
:103d7c000080400002087800e04280006600b90034
:103d8c008000780060d620000080400031002000c8
:103d9c0001087800e04280000000e800e042880062
:103dac00004380000000e80000438800e0428000ef
:103dbc00024380006600b9008000780020d6200005
:103dcc000080400002087800e0428000124380002e
:103ddc006600b9008000780040d6200000804000ca
:103dec000208780050002000b10537000080eb007d
:103dfc00af053700104380000000e8001043880036
:103e0c001e0fe80001003700000000001043800086
:103e1c000000e800f30f500024003c000043800039
:103e2c00114380000101e8007400b9000000780023
:103e3c000200400080004000208b200000804000e9
:103e4c00100078000000e00018003a0000438000e9
:103e5c000000e800124380007400b90000007800f4
:103e6c000200400080004000208b200000804000b9
:103e7c00100078000000e0000c00320001438000cc
:103e8c001e009000808f500004003a001143800007
:103e9c002e009000808f500004003200914380006f
:103eac0050092000808f5000d2ff36000043800064
:103ebc000000e800124380007400b9000000780094
:103ecc000200400080004000208b20000080400059
:103edc00100078000000e000080032000143800070
:103eec001e009000808f50003c003a00114380006f
:103efc002e009000808f500038003a001e00780091
:103f0c000000e00033003200e04280006600b9009f
:103f1c008000780060d62000008040001100200056
:103f2c0001087800e04280000000e800e0428800d0
:103f3c00e0428000024380006600b90080007800f7
:103f4c0020d620000080400002087800e04280006b
:103f5c00124380006600b9008000780040d6200033
:103f6c000080400002087800e04280006600b90042
:103f7c008000780060d620000080400031002000d6
:103f8c0001087800e04280000000e800e042880070
:103f9c00004380000000e80000438800e0428000fd
:103fac00024380006600b9008000780020d6200013
:103fbc000080400002087800e0428000124380003c
:103fcc006600b9008000780040d6200000804000d8
:103fdc00020878000000eb00350537001043800024
:103fec00f30f50000c00320000438000114380009e
:103ffc000101e8007400b9000000780002004000e4
:10400c0080004000208b20000080400010007800d1
:10401c000000e00044003200004380000000e90092
:10402c00124380007400b9000000780002004000c8
:10403c0080004000208b20000080400010007800a1
:10404c000000e00038003a001e0078000000e0009c
:10405c0033003200e04280006600b9008000780036
:10406c0060d620000080400011002000010878007c
:10407c00e04280000000e800e0428800e04280005e
:10408c00024380006600b9008000780020d6200032
:10409c000080400002087800e0428000124380005b
:1040ac006600b9008000780040d6200000804000f7
:1040bc0002087800e04280006600b90080007800b9
:1040cc0060d62000008040007100200001087800bc
:1040dc00e04280000000e800e042880000438000dd
:1040ec000000e90000438800e042800002438000a9
:1040fc006600b9008000780020d6200000804000c7
:10410c0002087800e0428000124380006600b9008b
:10411c008000780040d62000008040000208780023
:10412c0070002000e20437000080eb00e004370050
:10413c00104380000000e900104388001e0fe800c7
:10414c000100370000000000104380000000e9006f
:10415c000000e00024003500004380001143800083
:10416c000101e9007400b900000078000200400071
:10417c0080004000208b2000008040001000780060
:10418c000000e00018003a00004380000000e90045
:10419c00124380007400b900000078000200400057
:1041ac0080004000208b2000008040001000780030
:1041bc000000e0000c003200014380001e00900063
:1041cc00808f500004003a00114380002e009000b4
:1041dc00808f500004003200914380005009200071
:1041ec00808f5000d2ff3600004380000000e900b1
:1041fc00124380007400b9000000780002004000f7
:10420c0080004000208b20000080400010007800cf
:10421c000000e00008003200014380001e00900006
:10422c00808f50003c003a00114380002e0090001b
:10423c00808f500038003a001e0078000000e0002b
:10424c0033003200e04280006600b9008000780044
:10425c0060d620000080400051002000010878004a
:10426c00e04280000000e800e0428800e04280006c
:10427c00024380006600b9008000780020d6200040
:10428c000080400002087800e04280001243800069
:10429c006600b9008000780040d620000080400005
:1042ac0002087800e04280006600b90080007800c7
:1042bc0060d62000008040007100200001087800ca
:1042cc00e04280000000e800e042880000438000eb
:1042dc000000e90000438800e042800002438000b7
:1042ec006600b9008000780020d6200000804000d5
:1042fc0002087800e0428000124380006600b9009a
:10430c008000780040d62000008040000208780031
:10431c000000eb0066043700104380000000e00052
:10432c000c00320000438000114380000101e900c1
:10433c007400b900000078000200400080004000ca
:10434c00208b200000804000100078000000e0006e
:10435c0044003200004380000000e800124380005b
:10436c007400b9000000780002004000800040009a
:10437c00208b200000804000100078000000e0003e
:10438c0038003a001e0078000000e00033003200d4
:10439c00e04280006600b9008000780060d6200002
:1043ac00008040005100200001087800e0428000ad
:1043bc000000e800e0428800e042800002438000f8
:1043cc006600b9008000780020d6200000804000f4
:1043dc0002087800e0428000124380006600b900b9
:1043ec008000780040d62000008040000208780051
:1043fc00e04280006600b9008000780060d62000a2
:10440c00008040003100200001087800e04280006c
:10441c000000e800e0428800004380000000e80053
:10442c0000438800e0428000024380006600b9002f
:10443c008000780020d62000008040000208780020
:10444c00e0428000124380006600b90080007800d2
:10445c0040d6200000804000020878006000200058
:10446c00130437000080eb00110437001043800068
:10447c000000e900104388001e0fe800010037001f
:10448c0000000000104380000000e9000000e00084
:10449c002400350000438000114380000101e90035
:1044ac007400b90000007800020040008000400059
:1044bc00208b200000804000100078000000e000fd
:1044cc0018003a00004380000000e800124380000e
:1044dc007400b90000007800020040008000400029
:1044ec00208b200000804000100078000000e000cd
:1044fc000c003200014380001e009000808f5000a1
:10450c0004003a00114380002e009000808f500070
:10451c00040032009143800050092000808f50002d
:10452c00d2ff3600004380000000e80012438000f8
:10453c007400b900000078000200400080004000c8
:10454c00208b200000804000100078000000e0006c
:10455c0008003200014380001e009000808f500044
:10456c003c003a00114380002e009000808f5000d8
:10457c0038003a001e0078000000e00033003200e2
:10458c00e04280006600b9008000780060d6200010
:10459c00008040005100200001087800e0428000bb
:1045ac000000e800e0428800e04280000243800006
:1045bc006600b9008000780020d620000080400002
:1045cc0002087800e0428000124380006600b900c7
:1045dc008000780040d6200000804000020878005f
:1045ec00e04280006600b9008000780060d62000b0
:1045fc00008040003100200001087800e04280007b
:10460c000000e800e0428800004380000000e80061
:10461c0000438800e0428000024380006600b9003d
:10462c008000780020d6200000804000020878002e
:10463c00e0428000124380006600b90080007800e0
:10464c0040d6200000804000020878000000eb00fb
:10465c0097033700104380000000e0000c0032008c
:10466c0000438000114380000101e9007400b9008f
:10467c00000078000200400080004000208b2000e9
:10468c0000804000100078000000e0004400320080
:10469c00004380000000e900124380007400b90060
:1046ac00000078000200400080004000208b2000b9
:1046bc0000804000100078000000e00038003a0054
:1046cc001e0078000000e00033003200e042800061
:1046dc006600b9008000780060d6200000804000a1
:1046ec005100200001087800e04280000000e80042
:1046fc00e0428800e0428000024380006600b9007e
:10470c008000780020d6200000804000020878004d
:10471c00e0428000124380006600b90080007800ff
:10472c0040d620000080400002087800e042800063
:10473c006600b9008000780060d620000080400040
:10474c007100200001087800e04280000000e800c1
:10475c00e0428800004380000000e900004388002c
:10476c00e0428000024380006600b90080007800bf
:10477c0020d620000080400002087800e042800033
:10478c00124380006600b9008000780040d62000fb
:10479c0000804000020878008000200044033700ad
:1047ac000080eb0042033700004380000000e8006b
:1047bc00004388001e0fe8000100370000000000d5
:1047cc00004380000000e800fd0f500024003c0076
:1047dc00004380000000e800124380007400b90020
:1047ec00000078000200400080004000208b200078
:1047fc0000804000100078000000e00018003a0033
:10480c0000438000114380000101e8007400b900ee
:10481c00000078000200400080004000208b200047
:10482c0000804000100078000000e0000c00320016
:10483c00014380001e009000808f500004003a005d
:10484c00114380002e009000808f50000400320035
:10485c009143800050092000808f5000d2ff360019
:10486c0000438000fe0f500002003a000080eb0075
:10487c000f03370000438000114380000101e80062
:10488c007400b90000007800020040008000400075
:10489c00208b200000804000100078000000e00019
:1048ac0008003200014380001e009000808f5000f1
:1048bc003c003a00114380002e009000808f500085
:1048cc0038003a001e0078000000e000330032008f
:1048dc00e04280006600b9008000780060d62000bd
:1048ec00008040003100200001087800e042800088
:1048fc000000e800e0428800e042800002438000b3
:10490c006600b9008000780020d6200000804000ae
:10491c0002087800e0428000124380006600b90073
:10492c008000780040d6200000804000020878000b
:10493c00e04280006600b9008000780060d620005c
:10494c00008040001100200001087800e042800047
:10495c000000e800e0428800104380000000e800fe
:10496c0010438800e0428000024380006600b900da
:10497c008000780020d620000080400002087800db
:10498c00e0428000124380006600b900800078008d
:10499c0040d6200000804000020878000000eb00a8
:1049ac00c302370000438000fd0f50000c003200a2
:1049bc00004380000000e800124380007400b9003e
:1049cc00000078000200400080004000208b200096
:1049dc0000804000100078000000e000440032002d
:1049ec0000438000114380000101e9007400b9000c
:1049fc00000078000200400080004000208b200066
:104a0c0000804000100078000000e00038003a0000
:104a1c001e0078000000e00033003200e04280000d
:104a2c006600b9008000780060d62000008040004d
:104a3c003100200001087800e04280000000e8000e
:104a4c00e0428800e0428000024380006600b9002a
:104a5c008000780020d620000080400002087800fa
:104a6c00e0428000124380006600b90080007800ac
:104a7c0040d620000080400002087800e042800010
:104a8c006600b9008000780060d6200000804000ed
:104a9c005100200001087800e04280000000e8008e
:104aac00e0428800104380000000e90010438800b9
:104abc00e0428000024380006600b900800078006c
:104acc0020d620000080400002087800e0428000e0
:104adc00124380006600b9008000780040d62000a8
:104aec00008040000208780040002000700237006f
:104afc000080eb006e023700004380000000e800ed
:104b0c00004388001e0fe800010037000000000081
:104b1c00004380000000e800fd0f500024003c0022
:104b2c00004380000000e800124380007400b900cc
:104b3c00000078000200400080004000208b200024
:104b4c0000804000100078000000e00018003a00df
:104b5c0000438000114380000101e9007400b9009a
:104b6c00000078000200400080004000208b2000f4
:104b7c0000804000100078000000e0000c003200c3
:104b8c00014380001e009000808f500004003a000a
:104b9c00114380002e009000808f500004003200e2
:104bac009143800050092000808f5000d2ff3600c6
:104bbc0000438000114380000101e9007400b9003a
:104bcc00000078000200400080004000208b200094
:104bdc0000804000100078000000e0000800320067
:104bec00014380001e009000808f50003c003a0072
:104bfc00114380002e009000808f500038003a0046
:104c0c001e0078000000e00033003200e04280001b
:104c1c006600b9008000780060d62000008040005b
:104c2c003100200001087800e04280000000e8001c
:104c3c00e0428800e0428000024380006600b90038
:104c4c008000780020d62000008040000208780008
:104c5c00e0428000124380006600b90080007800ba
:104c6c0040d620000080400002087800e04280001e
:104c7c006600b9008000780060d6200000804000fb
:104c8c005100200001087800e04280000000e8009c
:104c9c00e0428800104380000000e90010438800c7
:104cac00e0428000024380006600b900800078007a
:104cbc0020d620000080400002087800e0428000ee
:104ccc00124380006600b9008000780040d62000b6
:104cdc0000804000020878000000eb00f40137006f
:104cec0000438000fd0f50000c0032000043800098
:104cfc000000e800124380007400b9000000780046
:104d0c000200400080004000208b2000008040000a
:104d1c00100078000000e0004400320000438000e6
:104d2c00114380000101e8007400b9000000780014
:104d3c000200400080004000208b200000804000da
:104d4c00100078000000e00038003a001e007800e7
:104d5c000000e00033003200e04280006600b90041
:104d6c008000780060d620000080400031002000d8
:104d7c0001087800e04280000000e800e042880072
:104d8c00e0428000024380006600b9008000780099
:104d9c0020d620000080400002087800e04280000d
:104dac00124380006600b9008000780040d62000d5
:104dbc000080400002087800e04280006600b900e4
:104dcc008000780060d62000008040001100200098
:104ddc0001087800e04280000000e800e042880012
:104dec00104380000000e80010438800e04280007f
:104dfc00024380006600b9008000780020d62000b5
:104e0c000080400002087800e042800012438000dd
:104e1c006600b9008000780040d620000080400079
:104e2c000208780020002000a10137000080eb0070
:104e3c009f013700004380000000e9000043880018
:104e4c001e0fe80001003700000000000043800046
:104e5c000000e9000000e000240035000043800061
:104e6c000000e900124380007400b90000007800d3
:104e7c000200400080004000208b20000080400099
:104e8c00100078000000e00018003a000043800099
:104e9c00114380000101e8007400b90000007800a3
:104eac000200400080004000208b20000080400069
:104ebc00100078000000e0000c003200014380007c
:104ecc001e009000808f500004003a0011438000b7
:104edc002e009000808f500004003200914380001f
:104eec0050092000808f5000d2ff36000043800014
:104efc00114380000101e8007400b9000000780043
:104f0c000200400080004000208b20000080400008
:104f1c00100078000000e00008003200014380001f
:104f2c001e009000808f50003c003a00114380001e
:104f3c002e009000808f500038003a001e00780040
:104f4c000000e00033003200e04280006600b9004f
:104f5c008000780060d620000080400071002000a6
:104f6c0001087800e04280000000e800e042880080
:104f7c00e0428000024380006600b90080007800a7
:104f8c0020d620000080400002087800e04280001b
:104f9c00124380006600b9008000780040d62000e3
:104fac000080400002087800e04280006600b900f2
:104fbc008000780060d620000080400011002000a6
:104fcc0001087800e04280000000e800e042880020
:104fdc00104380000000e80010438800e04280008d
:104fec00024380006600b9008000780020d62000c3
:104ffc000080400002087800e042800012438000ec
:10500c006600b9008000780040d620000080400087
:10501c00020878000000eb002501370000438000f7
:10502c000000e0000c003200004380000000e900aa
:10503c00124380007400b9000000780002004000a8
:10504c0080004000208b2000008040001000780081
:10505c000000e00044003200004380001143800057
:10506c000101e9007400b900000078000200400062
:10507c0080004000208b2000008040001000780051
:10508c000000e00038003a001e0078000000e0004c
:10509c0033003200e04280006600b90080007800e6
:1050ac0060d62000008040007100200001087800cc
:1050bc00e04280000000e800e0428800e04280000e
:1050cc00024380006600b9008000780020d62000e2
:1050dc000080400002087800e0428000124380000b
:1050ec006600b9008000780040d6200000804000a7
:1050fc0002087800e04280006600b9008000780069
:10510c0060d620000080400051002000010878008b
:10511c00e04280000000e800e0428800104380007c
:10512c000000e90010438800e04280000243800048
:10513c006600b9008000780020d620000080400076
:10514c0002087800e0428000124380006600b9003b
:10515c008000780040d620000080400002087800d3
:10516c0030002000d20037000080eb00d000370068
:10517c00004380000000e900004388001e0fe80097
:10518c000100370000000000004380000000e9002f
:10519c000000e00024003500004380000000e9001e
:1051ac00124380007400b900000078000200400037
:1051bc0080004000208b2000008040001000780010
:1051cc000000e00018003a0000438000114380000a
:1051dc000101e9007400b9000000780002004000f1
:1051ec0080004000208b20000080400010007800e0
:1051fc000000e0000c003200014380001e00900013
:10520c00808f500004003a00114380002e00900063
:10521c00808f500004003200914380005009200020
:10522c00808f5000d2ff3600004380001143800075
:10523c000101e9007400b900000078000200400090
:10524c0080004000208b200000804000100078007f
:10525c000000e00008003200014380001e009000b6
:10526c00808f50003c003a00114380002e009000cb
:10527c00808f500038003a001e0078000000e000db
:10528c0033003200e04280006600b90080007800f4
:10529c0060d62000008040007100200001087800da
:1052ac00e04280000000e800e0428800e04280001c
:1052bc00024380006600b9008000780020d62000f0
:1052cc000080400002087800e04280001243800019
:1052dc006600b9008000780040d6200000804000b5
:1052ec0002087800e04280006600b9008000780077
:1052fc0060d620000080400051002000010878009a
:10530c00e04280000000e800e0428800104380008a
:10531c000000e90010438800e04280000243800056
:10532c006600b9008000780020d620000080400084
:10533c0002087800e0428000124380006600b90049
:10534c008000780040d620000080400002087800e1
:10535c000000eb0056003700004380000000e00026
:10536c000c003200004380000000e9001243800072
:10537c007400b9000000780002004000800040007a
:10538c00208b200000804000100078000000e0001e
:10539c004400320000438000114380000101e8000a
:1053ac007400b9000000780002004000800040004a
:1053bc00208b200000804000100078000000e000ee
:1053cc0038003a001e0078000000e0003300320084
:1053dc00e04280006600b9008000780060d62000b2
:1053ec00008040007100200001087800e04280003d
:1053fc000000e800e0428800e042800002438000a8
:10540c006600b9008000780020d6200000804000a3
:10541c0002087800e0428000124380006600b90068
:10542c008000780040d62000008040000208780000
:10543c00e04280006600b9008000780060d6200051
:10544c00008040001100200001087800e04280003c
:10545c000000e800e0428800104380000000e800f3
:10546c0010438800e0428000024380006600b900cf
:10547c008000780020d620000080400002087800d0
:10548c00e0428000124380006600b9008000780082
:10549c0040d6200000804000020878001000200058
:1054ac00030037000080eb00010037000080eb00a8
:1054bc000080fa00000006000400fa0010079800b3
:1054cc000000eb00000f7800004380009e0090006d
:1054dc00808f50004c0034000400370000438000e3
:1054ec000000e800004388001e0fe8000043800025
:1054fc000000e800fd0f500014003c000043800049
:10550c000000e800124380007400b900000078002d
:10551c000200400080004000208b200000804000f2
:10552c00100078000000e00008003a000043800002
:10553c009e009000808f5000040032009143800048
:10554c0050092000808f5000e4ff36001e007800c8
:10555c000000e00018003200e04280006600b90054
:10556c008000780060d620000080400031002000d0
:10557c0001087800e04280000000e800e04288006a
:10558c00e0428000024380006600b9008000780091
:10559c0020d620000080400002087800e042800005
:1055ac00124380006600b9008000780040d62000cd
:1055bc000080400002087800004380009e009000ac
:1055cc00808f500002003a000000eb005f003700b3
:1055dc00004380000000e800124380007400b90012
:1055ec00000078000200400080004000208b20006a
:1055fc0000804000100078000000e00052003200f3
:10560c003000200051003700004380009e009000c5
:10561c00808f50004c003d00040037000043800098
:10562c000000e900004388001e0fe80000438000e2
:10563c000000e9000000e000140035000043800089
:10564c000000e900124380007400b90000007800eb
:10565c000200400080004000208b200000804000b1
:10566c00100078000000e00008003a0000438000c1
:10567c009e009000808f5000040032009143800007
:10568c0050092000808f5000e4ff36001e00780087
:10569c000000e00018003200e04280006600b90013
:1056ac008000780060d6200000804000710020004f
:1056bc0001087800e04280000000e800e042880029
:1056cc00e0428000024380006600b9008000780050
:1056dc0020d620000080400002087800e0428000c4
:1056ec00124380006600b9008000780040d620008c
:1056fc000080400002087800004380009e0090006b
:10570c00808f500002003a000000eb000f003700c1
:10571c00004380000000e900124380007400b900cf
:10572c00000078000200400080004000208b200028
:10573c0000804000100078000000e0000200320001
:10574c0070002000010037000080eb000080fa00a0
:10575c00000006000400fa00100798000000eb009f
:10576c00000f7800104380009e009000808f500046
:10577c004c00340004003700104380000000e800a7
:10578c00104388001e0fe800104380000000e80062
:10579c00f30f500014003c000043800011438000c4
:1057ac000101e8007400b90000007800020040001c
:1057bc0080004000208b200000804000100078000a
:1057cc000000e00008003a00104380009e009000aa
:1057dc00808f50000400320091438000500920005b
:1057ec00808f5000e4ff36001e0078000000e000bf
:1057fc0018003200e04280006600b900800078009a
:10580c0060d62000008040001100200001087800c4
:10581c00e04280000000e800e0428800e0428000a6
:10582c00024380006600b9008000780020d620007a
:10583c000080400002087800e042800012438000a3
:10584c006600b9008000780040d62000008040003f
:10585c0002087800104380009e009000808f50005a
:10586c0002003a000000eb005f00370000438000ac
:10587c00114380000101e8007400b90000007800b9
:10588c000200400080004000208b2000008040007f
:10589c00100078000000e0005200320010002000e0
:1058ac0051003700104380009e009000808f500004
:1058bc004c003d0004003700104380000000e9005c
:1058cc00104388001e0fe800104380000000e90020
:1058dc000000e000140035000043800011438000fc
:1058ec000101e9007400b9000000780002004000da
:1058fc0080004000208b20000080400010007800c9
:10590c000000e00008003a00104380009e00900068
:10591c00808f500004003200914380005009200019
:10592c00808f5000e4ff36001e0078000000e0007d
:10593c0018003200e04280006600b9008000780058
:10594c0060d6200000804000510020000108780043
:10595c00e04280000000e800e0428800e042800065
:10596c00024380006600b9008000780020d6200039
:10597c000080400002087800e04280001243800062
:10598c006600b9008000780040d6200000804000fe
:10599c0002087800104380009e009000808f500019
:1059ac0002003a000000eb000f00370000438000bb
:1059bc00114380000101e9007400b9000000780077
:1059cc000200400080004000208b2000008040003e
:1059dc00100078000000e0000200320050002000af
:1059ec00010037000080eb000080fa000000060088
:1059fc000600fa000000eb00000f78000000eb003e
:105a0c0010079800620037000000eb002007980098
:105a1c00040037001e0fe8002e0090000000e80084
:105a2c00200798001e0078006600b900000078007e
:105a3c00e400400020d620000080400010017800d7
:105a4c001e00e8006600b90000007800e400400089
:105a5c0020d620000080400010007800800f5100fc
:105a6c0004003a009143800050092000808f5000c0
:105a7c00e8ff36002e0090000000e00043003400e8
:105a8c002e0090001e0010000000e8001007980087
:105a9c002f0037009e0090002e00900000804000e8
:105aac006600b9008000780020d6200000804000fd
