:020000040000fa
:080000000002040000000000f2
:020000040000fa
:100008009e0400009e0400009e0400009e04000060
:100018009e0400009e0400009e0400009e04000050
:100028009e0400009e0400009e0400009a02000046
:100038009e0400009e0400009e0400009e04000030
:100048000a0300009e0400009e0400003004000023
:100058009e0400009e0400009e0400009e04000010
:100068009e0400009e0400009e0400009e04000000
:100078009e0400009e0400009e0400009e040000f0
:100088009e0400009e0400009e040000a2030000dd
:10009800c60300009e0400006a0400008c040000ef
:1000a8009e0400009e0400009e0400009e040000c0
:1000b8009e0400009e0400009e0400009e040000b0
:1000c8009e0400009e0400009e0400009e040000a0
:1000d8009e0400009e0400009e0400009e04000090
:1000e8009e0400009e0400009e0400009e04000080
:1000f8009e0400009e0400009e0400009e04000070
:100108009e0400009e040000e80300009e04000016
:100118009e0400009e0400009e0400009e0400004f
:100128009e0400009e0400009e0400009e0400003f
:100138009e0400009e0400009e0400009e0400002f
:100148009e0400009e0400009e0400000c040000b1
:100158009e0400009e0400009e0400009e0400000f
:100168009e0400009e0400009e0400009e040000ff
:100178009e0400009e0400009e0400009e040000ef
:100188009e0400009e0400009e0400009e040000df
:100198009e0400009e0400009e0400009e040000cf
:1001a8009e0400009e0400009e0400009e040000bf
:1001b8009e0400009e0400009e0400009e040000af
:1001c8009e0400009e0400009e0400009e0400009f
:1001d8009e0400009e0400009e0400009e0400008f
:1001e8009e0400009e0400009e0400009e0400007f
:0801f8009e0400009e040000bb
:020000040000fa
:100208009e0400009e0400009e0400009e0400005e
:100218009e0400009e0400009e0400009e0400004e
:100228009e0400009e0400009e0400009a02000044
:100238009e0400009e0400009e0400009e0400002e
:100248000a0300009e0400009e0400003004000021
:100258009e0400009e0400009e0400009e0400000e
:100268009e0400009e0400009e0400009e040000fe
:100278009e0400009e0400009e0400009e040000ee
:100288009e0400009e0400009e040000a2030000db
:10029800c60300009e0400006a0400008c040000ed
:1002a8009e0400009e0400009e0400009e040000be
:1002b8009e0400009e0400009e0400009e040000ae
:1002c8009e0400009e0400009e0400009e0400009e
:1002d8009e0400009e0400009e0400009e0400008e
:1002e8009e0400009e0400009e0400009e0400007e
:1002f8009e0400009e0400009e0400009e0400006e
:100308009e0400009e040000e80300009e04000014
:100318009e0400009e0400009e0400009e0400004d
:100328009e0400009e0400009e0400009e0400003d
:100338009e0400009e0400009e0400009e0400002d
:100348009e0400009e0400009e0400000c040000af
:100358009e0400009e0400009e0400009e0400000d
:100368009e0400009e0400009e0400009e040000fd
:100378009e0400009e0400009e0400009e040000ed
:100388009e0400009e0400009e0400009e040000dd
:100398009e0400009e0400009e0400009e040000cd
:1003a8009e0400009e0400009e0400009e040000bd
:1003b8009e0400009e0400009e0400009e040000ad
:1003c8009e0400009e0400009e0400009e0400009d
:1003d8009e0400009e0400009e0400009e0400008d
:1003e8009e0400009e0400009e0400009e0400007d
:0803f8009e0400009e040000b9
:020000040000fa
:10040000af9d21000e7f24000e0188000000000037
:10041000000020000000e000020032000001200087
:10042000200288000c000700a09028000100200096
:1004300011000700000020000000e0000200320070
:100440000000020000000000c6770200000000006b
:100450000040da000000fe004440a9002001200016
:100460000000e0000300320000002000a00188002e
:100470004440a80000000600910188008000780038
:100480000000eb0015003700e280400032a0b4000d
:100490009101ba00e280400032a0b4009102ba009b
:1004a000e280400032a0b4000002eb00472bde00e7
:1004b000f507b200602ce10004003a000059eb009f
:1004c0008301e900fdff3e00040037006128e100e0
:1004d000010032000082eb00040007001101ba00a5
:1004e0000200e000e8ff3a00000006003159ba00bf
:1004f0008301e9000c0032002159ba008301e900b0
:10050000080032000400e00003003a00e2804000ee
:1005100032a0b400f5ff370011d9ba008301e90019
:10052000faff3a008100e800e180400032a0b40008
:10053000000006003600f800809fbe00829fbe00cb
:10054000849fbe00869fbe000000fa008460a90060
:10055000bf2d0700e098210010407800e14f5000c7
:1005600001003a00c5280700a0428000e10f4000ca
:1005700003003a00c04280000000e800c04288004a
:10058000c04480000000e800c0448800c1448000ee
:1005900040062000808f500008003a00e0448000b0
:1005a000e10f500002003a009c28ef0002003700e3
:1005b00010002000e04488009828ef00f0448000fc
:1005c000e10f50000a003a00904380000000e8006c
:1005d0009043880091438000c0122000808f50001b
:1005e00004003600c012200090438800010037004c
:1005f0007228ef00000000000080fa004f03be00e8
:100600004f02be004f01be004f00be003600f90091
:10061000004006003600f800809fbe00829fbe00aa
:10062000849fbe00869fbe000000fa005ac8bf002b
:100630000040e8005ae8b700a1852000914078000a
:1006400060c3b30080cf50000600360097c8bf00db
:100650000004e00003003a0010c0b30097e8b700c0
:1006600030003700a18520009140780040c5b300dc
:1006700080cf50000600360097c8bf00e14f500001
:1006800003003a0020c0b30097e8b7002500370008
:10069000a18520009140780090c5b30080cf500024
:1006a00020003600d2a2a90094e0a9009460a9001d
:1006b0009760a9009780a9009b40a9009d60a900b0
:1006c000c2e2a9001fe1a90005e1a90011e1a9000a
:1006d00021e1a9006011b8000040eb00f7400700dd
:1006e0006011b80010c0b300f44007006011b800fa
:1006f00020c0b300f14007009005800000c0a000ba
:1007000000d0a00000e0a0009005880090058000c7
:100710000080a0000090a00000a0a000900588002c
:10072000ffff37008500a9000080fa004f03be00dc
:100730004f02be004f01be004f00be003600f90060
:10074000004006003600f800809fbe00829fbe0079
:10075000849fbe00869fbe000000fa001fe1a90032
:100760001d3f07001421ef008760a9001fe1a800ca
:100770000080fa004f03be004f02be004f01be00d2
:100780004f00be003600f900004006003600f800b9
:10079000809fbe00829fbe00849fbe00869fbe00d9
:1007a0000000fa0021e1a900d93f07008780a900d5
:1007b00021e1a8000080fa004f03be004f02be00f6
:1007c0004f01be004f00be003600f9000040060099
:1007d000809fbe000000fa008b40a900010f80003e
:1007e00000802000008060000000e0000400320073
:1007f00030cd80000000e80030cd880003003700d5
:1008000030cd80000000e90030cd88000080fa0083
:100810004f00be0000400600809fbe000000fa00ae
:100820008d60a900810f80000080200000806000a2
:100830000000e0000400320040cd80000000e8002d
:1008400040cd88000300370040cd80000000e90063
:1008500040cd88000080fa004f00be000040060036
:10086000809fbe00821f78000200fa009560a900f8
:100870008560a90030118000004f780096c8bf0045
:10088000614060000080fb00610060004500dd0009
:1008900092168000f1fd2f008100610001007000c0
:1008a0009016880096c8bf000004e00003003a00dc
:1008b00010c0b30096e8b700010037009668ef005b
:1008c0009560a8000080fa004f0178004f00be003c
:1008d000004006003600f800809fbe00829fbe00e8
:1008e000849fbe00869fbe000000fa0097c0a9004a
:1008f00087c0a9000235070097c0a8000080fa0051
:100900004f03be004f02be004f01be004f00be00ad
:100910003600f90000400600809fbe000000fa008b
:1009200087e0a900406d210011c0b30001487800a4
:100930000080fa004f00be00004006000040da00d0
:100940000000fe0003f0a200889fbe008a9fbe0048
:100950008c1f7800b0010700b70133006450e1003c
:100960004f0032006420e1005200320003826c002c
:1009700007003b000905d0000306d000820f540099
:100980000c065d0002003900020032008901780087
:10099000030678008582550004003d000003fd0039
:1009a0008103fd008502ea008b854200840f7200fe
:1009b00002003b0060001000e08018006011b800e9
:1009c0000005eb007a28e1000a00390006007800f3
:1009d000c75ddd00f707b200878075002d00370086
:1009e000828171000a017800610560008180d10078
:1009f0000080d3008502e900f9ff3b0006044000b7
:100a00008784480002003b0060041400e0841c005e
:100a10000988a300070032008a8171008281710079
:100a2000610164008904d1000884d3008b05e800cb
:100a3000170037000978a30013003a000b00e0000c
:100a4000130034008b05e9000804440089844c003d
:100a50000a4474000978a3000d003a000b00e0007e
:100a6000070034008b05e9000804440089844c0029
:100a700001003a000b0020000978a300f7ff3200c4
:100a80000001eb0002003700828171000a0178004a
:100a9000260107000cf0a70001f0a0006f0137004d
:100aa0006420e10002003a00838f6c006f01330084
:100ab0000801be000200be0068013700889fbe002a
:100ac0008a9fbe008c1f780053010700100220008f
:100ad00002003b0010458800570137008a00620081
:100ae0006408e10002003a00104588005f01370009
:100af0006108e100fcff32000800be00030478003a
:100b00007200070001f0a1000900070008f0a6002c
:100b1000040037000001be0091042400b0fd200055
:100b200088ff070009f0a70001f0a2004b01370081
:100b3000889fbe008a9fbe008c9fbe000004be003e
:100b4000200107000800be00890678006420e1004b
:100b500008003900040032000160a00012022000e9
:100b6000124588005300370091fc2300b0fd20009f
:100b70004e0037000006eb0009f0a10003f8230047
:100b8000020020000800be00a1000700060034009b
:100b900001f82300000020000801be004b00070000
:100ba0000004be002c0020000800be0093e82300d3
:100bb000320a230096000700120034000801be002c
:100bc000d1fd2300703d2b005fff07000005be0034
:100bd000b3f32300f27a26000800be0026010700c6
:100be00003f823000200200056ff07000801be00a2
:100bf00055ff07000a01be00340007000004be00d4
:100c00000c06e8000800be0001f0a1000200200070
:100c1000039823007e0007000800be001600350080
:100c20000801be00140107000005be0032cd2c00f3
:100c300043fb230044ff0700809fbe001269280089
:100c400003d52b000a00be000b010700620f210034
:100c500013ef2b003cff07000a01be00060107004e
:100c60004f01be00190007000801be000201070085
:100c70000801be0034ff07000c00e0000b0032004a
:100c80000c10a70001f0a200b2fd200093fc23008d
:100c90006260e1000400320022a9200063f023001a
:100ca0000c10a70063f8230027ff07000df0a70032
:100cb00001f0a2004f06be004f05be004f04be006b
:100cc000000006000081eb001f013700889fbe0076
:100cd0008a9fbe008c1f7800cf000700d60033002b
:100ce00003866c006450e1002e0032006420e100b5
:100cf000330032006150e1002f0032006120e1003a
:100d00003100320085855500eb07b0000900200056
:100d100008042000050037000804440089844c00c2
:100d20000a0031000603430087834b000001530093
:100d300081815b00f8ff33000203be000800a000c1
:100d40000804440089844c00f6ff3900c639dd00f0
:100d50008301730001003200130020008904d100d8
:100d60000884d3000998a300050032000800a700fa
:100d70000300a0008904d1000884d3008b05e8009b
:100d80008904d1000884d3000001eb000281d20065
:100d90006600070001f0a1000cf0a70001f0a00020
:100da000ae0037006420e100b00032000801be0050
:100db0000200be00f7ff37006120e100ab00320007
:100dc0006000b800f3ff37000000200001f82700a2
:100dd000f0ff3700839f68000100e00002003d0043
:100de00060001000e08018000300e00002003d00f9
:100df00060011100e0811900730107004f00e0005d
:100e000002003b0060001000e080180000000600b7
:100e1000140020007e023700f4ff2f007c02370010
:100e20000001be00670007000470a70003f0a100e6
:100e30006509b100160032000d0035006828e10098
:100e400006003500f0ff2f00f1ff27000300e0004f
:100e500013003b00010028000000050000004000d6
:100e6000818048008502e900fcff3a000800370055
:100e7000f88f420002003c008000eb0000000500fb
:100e80008100d1000080d3008502e800fcff3a0019
:100e90000300e00002003b0060001000e08018004a
:100ea000000006000001be00460007000470a70015
:100eb00003f0a10003f8a30013003a006509b10094
:100ec00010003200090035006928e10002003500f9
:100ed000010028000000050000004000818048005b
:100ee0008502e900fcff3a0000000600f88f42008e
:100ef000050035008100d1000080d3008502e800a4
:100f0000fcff3a00000006008000eb000000050036
:100f10004f89de0082017800580237006011b80066
:100f200066023700040020003902370081002000eb
:100f3000618055000b003d000b00200061fe2f007a
:100f40000100e1001d003400828171006101640034
:100f50008904d1000884d3000000e800faff3a00b9
:100f60007100200061006400030070000200600056
:100f70000900320061044400e0844c000988a500a7
:100f8000050032008b05e8006808e10002003a0025
:100f90008904d1000884d300f20f20000258e10038
:100fa00005003d00c75ddd00f907b20089807500ce
:100fb00008007800000006000bf827008b0078007e
:100fc00000000500c70ade00f107b200f50fb2000d
:100fd00008003200e1cf4200020032000170a000a0
:100fe00024000500810f7000010032000408050094
:100ff00044000500810f700002003a001400050053
:101000008502e9000000400081c04800fcff3b0071
:101010000170a000240005000004be00e9ff0700e5
:101020000003be000405be000200be00e5ff07008d
:10103000844f7500000006000200be006450e1000d
:10104000050036006420e100020036000968a300b4
:1010500001003a000800be000160a0004f067800c1
:101060004f05be004f04be0000000600f0ff2f0039
:10107000f1ff2700f9ff3700889fbe008a9fbe005e
:101080008c1f7800e4ff0700ebff330003866c0041
:101090006450e100240032006420e10027003200a7
:1010a0006150e100220032006120e10021003200a5
:1010b0008b854200eb07b1000134b800003ab8005c
:1010c0000804420089844a00013ab8000030b800a0
:1010d0008880400009014a000400330000004000fd
:1010e00081804800020149008b05e900c909dd0043
:1010f000830170000100320013002000c814de00dc
:101100004814dd004709de001200b200c808de0006
:101110000884700085ff070001f0a1000cf0a70013
:1011200001f0a000cdff37006120e100cfff3200c9
:101130000801be000200be00f7ff37006150e10069
:10114000fcff3a00c9ff3700889fbe008a9fbe009f
:101150008c9fbe00820578000004be0099ff070046
:101160000800be006420e1000700390002003a00d8
:10117000f1ff2700f0ff2f000160a0001202200005
:1011800012458800550037006120e10003003a0055
:101190000b00a70001f823005000370001f0a10068
:1011a000020021009364240019ff07000800be001c
:1011b00004003500b2fd2000930c2400ee0107006e
:1011c0000004be000005eb000b00a6004f0dde0082
:1011d00001f0a1000004be0032982f0023ea230092
:1011e000a5ff07000001eb0003f023000b00a700a0
:1011f00003f82300d4fd070009ff07000000a70043
:101200000a00a20042ff07000b00e00003003200ca
:101210000200200003f02300cafd070001f0a20035
:101220000006be00020020009304240092ff070085
:101230000801be00c4fd0700809fbe000c00be0078
:1012400022a22a00d3a723008bff07004f01be0074
:10125000bdfd07000004be0001f0a1000200200057
:1012600003982300eafe07000800be0019003500bd
:101270000001be0080ff07000006be00b2c52900c5
:10128000e36223007cff070022222b00f3942b0053
:10129000adfd07000c01be0077ff0700e2732800d8
:1012a00083c02300a8fd07000c01be0072ff0700e9
:1012b00042aa2a00a3e22b00a3fd07000c01be00f6
:1012c0006dff07000801be006bff07000801be00ac
:1012d0009dfd07000a00a70001f0a2004f06be0016
:1012e0004f05be004f04be00000006000001eb00e9
:1012f00095ff3700889fbe008a9fbe008c1f780034
:101300000004be002fff07000478a30026003a0067
:101310006120e1002500320009f8a30025003a0011
:101320006420e10021003200f507b1000508a300a8
:101330000200320000004000818048006044b80094
:1013400003102000020020000000400081804800bf
:101350000805440089854c000a0541008b85490039
:101360000a0550008b855800030033000a00be00b8
:1013700002047400838474008301d1000281d300cd
:10138000830f7100f0ff3a008904d1000884d30074
:101390006001490082017800c1adde00fb07b000aa
:1013a000e2fe07002dff37000960a0000800be0024
:1013b0002aff37001202200012458800f0ff2f009c
:1013c000f1ff270025ff37006022b8000602200049
:1013d0000000d0008180d2000482d2008582d20039
:1013e0000000a0000202520083825a000300310074
:1013f0000202420083824a000000a1000603e900c5
:10140000f3ff3a0000000600889fbe008a9fbe00de
:1014100030044200b0844a0030054b0090854b00f8
:101420006000b1000898be000a90be000440e100d0
:1014300005c8e10006d0e10007d8e1000200310054
:10144000680040001008e8004f05be004f04be00d1
:1014500000000600889fbe008a9fbe003004be00c8
:101460002005be000418540005985c0006185d00b5
:1014700007985d00110020000440e10005c8e1006c
:1014800006d0e10007d8e100010039008000eb0040
:10149000108810004f05be004f04be00000006007b
:1014a0001200fa00889fbe008a9fbe008c9fbe007b
:1014b000e0b79f00f1b79f0082bf9f0093bf9f00de
:1014c0000605be000404be000000eb00d0b79f007c
:1014d000c0b79f00b0b79f00a0b79f0090b79f0014
:1014e0000006eb005fb19700cfb09700820141008a
:1014f0003fb097000200e00004003d003700070005
:101500007e805700c0ff070003003700330007004c
:101510007e805700cfff0700dfb697000d00e00088
:101520000c0035006fb29700ffb297000fbb970019
:101530009fbb970010002000010020006011b80040
:1015400000027200818272000203730083837300c1
:101550001b0007000c06e80001042000810f560064
:10156000e0ff3a000d00e00004003d000802be006c
:101570000a03be007e805700a3ff07005fa8970004
:101580000000e00005003a001fb29700afb29700dc
:101590003fb39700cfb39700090007006fb09700e3
:1015a000ffb097000fb997009fb997004f06be0094
:1015b0004f05be004f04be000080fa000000060088
:1015c0000100070000000600a4b79f00b5b79f0008
:1015d000c6b79f00d7b79f00000006004f09de0086
:1015e00082817100b3b79f004f01de00818040000f
:1015f00082807000a1b79f008fb097004f09de0076
:10160000000040000200700090b79f007fa8970084
:101610004f01de00818040008280700081b79f0012
:101620000d0007004f3ade0000004000040070008b
:10163000f0af9f00080007000402420085824a00c4
:1016400006034b0087834b00dfff07000802be0044
:101650000a03be00000006002fb29700bfb2970039
:101660004fb39700dfb3970000000600881f780093
:1016700018002000881f780089ff07008f87e90085
:101680004f04780000000600801feb0084ff070075
:101690008f87e90000000600889fbe008a9fbe0079
:1016a000e00f5000e08f5800e00f5900e08f590024
:1016b0000c003d006044b8006055b80000005400c4
:1016c00081805c0002015d0083815d0018002000c4
:1016d0001500070008003d00180007000004eb009b
:1016e000050037000004eb000f00070002003d007a
:1016f0001200070018002000dcff07000800e000cf
:10170000060032006022b8006033b80000005200ca
:1017100081805a0002015b0083815b004f05be009f
:101720004f04be0000000600e00f5200e08f5a0098
:10173000e00f5b00e08f5b00000006006044b80033
:101740006055b8000402540085825c0006035d0009
:1017500087835d0000000600889fbe008a9fbe0050
:101760008c1f7800e00f5000e08f5800e00f590008
:10177000e08f59000d003d006044b8006055b8008e
:101780000000540081805c0002015d0083815d00e7
:101790001c0020000820e10009a8e1000ab0e100d7
:1017a0000bb8e1000d003d00080037000006eb001b
:1017b000e00f5200e08f5a00e00f5b00e08f5b000b
:1017c00006003d006044b8006055b80004025400b3
:1017d00085825c0006035d0087835d00aaff070029
:1017e0000c00e000060032006022b8006033b80050
:1017f0000000520081805a0002015b0083815b007f
:101800004f0678004f05be004f04be0000000600e2
:10181000889fbe008a9fbe00841f7800fefd0700df
:101820004f00780011003300f0ff2f00838f6c0011
:1018300006003b00040565000a00a7000800370009
:1018400009f0a6001000200008003700820f5400a5
:10185000838f5c00030039001000200001003e006f
:101860000000200009f0a7000000ea004f05be00bc
:101870004f04be000000e00000000600881f780052
:10188000030478000300e00007003d006000100042
:10189000e080180060011900e081190002003b009f
:1018a00001f02d00030037000400070008f0a70036
:1018b00001f0a0004f04780000000600889fbe00e1
:1018c0008a9fbe00008270000402710004827100d1
:1018d000260032000004be000200be006011b80005
:1018e0006b092000950220000182cf000a00390018
:1018f0000541b1000082cf00070039000541b10069
:101900000982cf00040039000541b1000882cf00f0
:10191000010039000541b1000542520012003200b9
:101920000a003b0082817100610164008100d100e6
:101930000080d3008984d3000884d3008b05e8009d
:101940000442e800f7ff3a000700370008044400ab
:1019500089844c0000004800818048008b05e90024
:101960000442e900f9ff3a0070fd07004f05be0090
:101970004f04be00000006000400200000003700f5
:10198000889fbe008a9fbe008c1f78004f26dd0016
:10199000a1fd0700a8fd33006120e10043003200f3
:1019a0006250e10041003e003e0039006420e10049
:1019b0003c003200058255000f003b000402e800a5
:1019c00038003a00800f5300818f5b0035003400ef
:1019d0000800be0003f0a10001f0a60003f0a00083
:1019e0000cf0a700d8fb07009cfd3700060343005e
:1019f00087834b000c4646000005530081855b0041
:101a0000020033000a03be000c00a0000402e9003b
:101a1000f6ff3b00850578000602430087824b00f5
:101a200004003a006000b80009f0a70001f0a0002f
:101a30008afd37000002520081825a000704e0004c
:101a4000040033000603430087834b008b05e90045
:101a5000faff3700090578000604be000203be0045
:101a60006011b80031fd0700e00f5200e08f5a000e
:101a70000700350002003c000c08a30004003200ff
:101a80000601be0003f0a0000cf0a700aefb0700ab
:101a90000a85680001f0a1000af0a70001f0a0008b
:101aa0006efd37000800be006cfd370010022000fc
:0c1ab0000cf0a600104588006cfd37000b
:020000040000fa
:101abc00202000004944000020000000203a0000d3
:101acc00200000000d000000090000000a0d0000bd
:041adc000000000006
:020000040000fa
:101ae0000000fa0090168000680060000000e0002e
:101af00002003a0010c0b300010037000040eb00c4
:101b00000080fa00000006000400fa00008fbe000a
:101b10004ec8bf000004e00002003a001e00be00f4
:101b2000020037001e00be0001f0a2000080fa0093
:101b3000000006000200fa00004f780006002000b6
:101b4000872c24001e42780002002000a33f2400be
:101b500000002000a1472400030107000600200028
:101b6000872c24001e4278006011b800000020007d
:101b7000a1472400fc00070006002000872c240059
:101b80001e42780002002000a33f24006000b8003d
:101b9000f500070006002000872c24001e42780074
:101ba0006011b8006000b800ef00070002002000dc
:101bb000832c24006000b800ce0007000080fa00eb
:101bc000000006000200fa00004f78008042eb009f
:101bd00006002000673924001e4278006011b8001a
:101be00000002000813424002201070025c0b3003a
:101bf00006002000872c24001e42780002002000ee
:101c00006328240000002000113e24001901070071
:101c100025c0b30006002000872c24001e42780057
:101c200002002000a337240000002400e14124002a
:101c30001001070025c0b30006002000872c2400f7
:101c40001e42780002002000a33f24000000200074
:101c5000f14224000701070025c0b3000600200060
:101c6000872c24001e42780002002800b343240081
:101c700000002400e1412400fe00070025c0b3005d
:101c800006002000872c24001e4278000200240059
:101c90009346240000002000113e2400f5000700b8
:101ca00015c0b30006002000872c24001e427800d7
:101cb00002002000a34724000000200081342400fb
:101cc000ec0007000080fa00000006000200fa00a5
:101cd000004f78008042eb0006002000a73f240060
:101ce0001e4278006011b8000000200081342400fa
:101cf000e000070025c0b30006002000872c240068
:101d00001e42780002002000633024000000200002
:101d1000f1422400d700070025c0b30006002000d0
:101d2000872c24001e42780002002000a33f2400dc
:101d30000000240051482400ce00070025c0b30055
:101d400006002000872c24001e427800020020009c
:101d5000a34724000000200061492400c5000700bb
:101d600025c0b30006002000872c24001e42780006
:101d700002002800b34b2400000024005148240036
:101d8000bc00070025c0b30006002000872c2400fb
:101d90001e42780002002400934e24000000200020
:101da000f1422400b300070015c0b3000600200074
:101db000872c24001e42780002002000a34f24003c
:101dc0000000200081342400aa0007000080fa00ef
:101dd000000006000200fa00004f78000600200014
:101de000872c24001e4278006011b80000002000fb
:101df000a13f24005c00070006002000872c24007f
:101e00001e42780002002000a33f240000002000b2
:101e1000a13f24005400070006002000872c240066
:101e20001e42780002002000a33f24006000b8009a
:101e30004d00070006002000872c24001e42780079
:101e40006011b8006000b800470007000080fa0089
:101e5000000006000000fa0010c0b30050e8b70010
:101e60000080fa00000006000e00fa00100798003b
:101e700021079800320798004307980054079800fc
:101e8000650798005e029000ee0290003e0190000f
:101e9000ce0190001e009000ae009000a60007004a
:101ea000004f78001e407800e24f50000f003a00cb
:101eb00052c8bf00e24f500002003a00e5ff0700a1
:101ec0000a00370052c8bf00e34f500007003a0035
:101ed0005e029000ee0290003e019000ce01900064
:101ee0001e009000ae009000dfff07000080fa00a7
:101ef000000006000a00fa00100798002107980069
:101f000032079800430798003e019000ce019000f0
:101f10001e009000ae009000f6000700004f780011
:101f20001e407800e24f50000d003a0052c8bf003a
:101f3000e24f500002003a00c6ff070008003700d9
:101f400052c8bf00e34f500005003a003e01900028
:101f5000ce0190001e009000ae009000e5ff07004b
:101f60000080fa00000006001000fa00881f7800c8
:101f7000100798002107980032079800430798003f
:101f8000244f980066079800770798006e0390002a
:101f9000fe0390002e4a90003e019000ce0190007a
:101fa0001e009000ae009000a0010700004f7800d6
:101fb0001e407800e24f500017003a0052c8bf00a0
:101fc000e24f500002003a00a2ff07001200370063
:101fd00052c8bf00e34f50000f003a003e0090008f
:101fe000ce0090008efb0700000478001e009000d9
:101ff000ae0090008afb0700000078001600200069
:1020000093c0b3006e029000fe0290002e49900033
:1020100088007800bb1807004f0478000080fa00a1
:10202000000006000a00fa00100798002107980037
:1020300032079800430798003e019000ce019000bf
:102040001e009000ae009000c9010700004f78000c
:102050001e407800e24f500004003a0052c8bf0012
:10206000e24f500001003a007aff07000080fa00ba
:10207000000006001200fa00881f78001007980080
:10208000210798003207980043079800244f9800d2
:102090006607980077079800055798008e529000c1
:1020a0006e039000fe0390002e4a90003e019000c7
:1020b000ce0190001e009000ae009000f5010700d8
:1020c000004f78001e407800e24f500017003a00a1
:1020d00052c8bf00e24f500002003a005dff070007
:1020e0001200370052c8bf00e34f50000f003a0003
:1020f0003e009000ce00900049fb070000047800ed
:102100001e009000ae00900045fb07000000780024
:10211000160020008e5190006e029000fe0290008a
:102120002e49900088007800761807004f04780048
:102130000080fa00000006000c00fa00889fbe0034
:10214000008fbe00220798003307980044079800cc
:10215000550798002e009000be0090006afe070010
:1021600020079800310798002099210021c0b30072
:1021700001487800941c070032b321004329240051
:102180001e00be00bcfb0700008fbe0032b3210062
:10219000432924002e009000be009000b6fb0700eb
:1021a000200798003107980010c0b30014e8b7006a
:1021b00050c4800061c480000001be002e00900069
:1021c000be009000dff907006011b80055fb070062
:1021d0000000e00009003a00f0c3800001c4800064
:1021e0000001be001e00be00d6f907006011b80055
:1021f0004cfb07000000e00039003200f0c3800013
:1022000001c480000001be001e00be00cdf9070021
:102210000004be0050c4800061c480000001be0004
:102220002e009000be009000c6f907000801be0015
:1022300022fa0700227d2500236b24008efb070075
:102240000200200003002400a0fa070090c58800c7
:10225000a1c588004e009000de009000931f07008b
:10226000ea1f0700f098210021c0b3000148780060
:102270001099210011c0b300014878000099210095
:1022800011c0b30001487800609921008040eb0044
:10229000014878004099210061c0b30001487800ee
:1022a0005099210041c0b30001487800c499210031
:1022b0006000b8006011b800009abe000292be0033
:1022c000709921008040eb00014878000000000078
:1022d0007099210010407800e14f5000fcff3a0057
:1022e000b0992100104078004f04be000080fa0031
:1022f000000006000800fa00008fbe0022079800c8
:10230000330798001e00be00fffd0700008fbe00cf
:102310002099210021c0b300014878002a1c070041
:1023200010c0b30014e8b700b2fd200093042400ed
:102330001e00be0050fb07000200200043332400b3
:1023400062fa0700227d2500236324004afb070070
:1023500090c58800a1c588002e009000be009000a6
:10236000521f0700a91f0700f098210021c0b300e9
:10237000014878001099210011c0b300014878008d
:102380000099210011c0b300014878006099210034
:102390008040eb00014878004099210061c0b30003
:1023a000014878005099210041c0b30001487800ed
:1023b000c49921006000b8006011b800009abe0006
:1023c0000292be00709921008040eb000148780025
:1023d000000000007099210010407800e14f50008b
:1023e000fcff3a00b0992100104078000080fa000c
:1023f000000006000800fa00300798003e00900038
:102400000000e00008003d003e0090000000ea00ef
:10241000300798000000200001f82b0010079800fa
:1024200021079800040037000000200001f8230075
:10243000100798002107980002002000032f2400b5
:102440001e009000ae0090000bfb07000041eb0067
:10245000250007000000eb00000f78001200370095
:1024600002002000032f2c001e009000ae00900000
:1024700001fb070022c0b3001b00070022c0b3000d
:102480006000b8001800070002002000032f24009d
:102490001e009000ae009000f7fa070022c0b300c3
:1024a000110007001e0fe8003e0090000000e90048
:1024b0009e0f5000eaff3c0002002000032f2c007a
:1024c0001e009000ae009000ebfa070022c0b3009f
:1024d0000500070012c0b3006000b800020007004a
:1024e0000080fa00000006000600fa00008fbe001f
:1024f000424798004e4090000004e00006003a0079
:102500002099210021c0b30001487800ae1b0700cc
:1025100010c0b30014e8b7001e00be007afd07002b
:10252000008fbe00b2fd2000930424001e00be00f8
:10253000d1fa07000200200043332400e3f907002a
:10254000227d250023632400cbfa070090c5880074
:10255000a1c588003077240041362400204088003f
:1025600031408800291f0700f098210021c0b300e6
:10257000014878001099210011c0b300014878008b
:102580000099210011c0b30001487800a0992100f2
:1025900071c0b300014878009099210071c0b30068
:1025a000014878006099210031c0b30001487800eb
:1025b0004099210061c0b300014878005099210082
:1025c00041c0b30001487800c49921006000b80000
:1025d0006011b800009abe000292be004e4090000a
:1025e000e14f500004003a008099210011c0b3006f
:1025f00001487800030037008099210021c0b30012
:1026000001487800709921008040eb000148780073
:10261000000000007099210010407800e14f500048
:10262000fcff3a000080fa00000006000e00fa00ed
:10263000008fbe002207980033079800044f9800cf
:1026400056079800670798002e009000be00900083
:102650002dfd0700200798003107980020992100e0
:1026600021c0b30001487800571b070032b3210096
:10267000432924001e00be007ffa0700b0c3880073
:10268000c1c3880032b32100432924002e009000ea
:10269000be00900078fa070010c4880021c48800aa
:1026a00020c0b30014e8b700309921008e48900094
:1026b000014878005e009000ee0090006e1d07005b
:1026c000dd1d070030772400412e240020408800c3
:1026d00031408800cd1e0700f098210011c0b300e2
:1026e000014878001099210011c0b300014878001a
:1026f0000099210011c0b3000148780040992100e1
:1027000061c0b300014878005099210061c0b30056
:10271000014878006099210011c0b3000148780099
:102720008099210011c0b30001487800c4992100ac
:102730006000b8006011b800009abe000292be00ae
:10274000709921008040eb000148780000000000f3
:102750007099210010407800e14f5000fcff3a00d2
:10276000b0992100104078000080fa0000000600b7
:102770000800fa00881f7800008fbe00220798002a
:10278000330798002099210021c0b3000148780048
:102790000d1b070010c0b30014e8b70032b32100ce
:1027a000432924001e00be0033fa070030c588000c
:1027b00041c5880018c0b3006011b8001e00be00fb
:1027c00093f907000000e000010035000044eb0031
:1027d0000804e000040032003099210080c0eb00c2
:1027e00001487800030037003099210011c0b30080
:1027f000014878002e009000be0090001e1d0700ca
:102800008d1d0700f098210011c0b3000148780029
:102810001099210021c0b3000148780000992100df
:1028200011c0b300014878008099210011c0b300a5
:10283000014878004099210021c0b3000148780088
:102840005099210061c0b30001487800c49921006b
:102850006000b8006011b800009abe000292be008d
:10286000709921008040eb000148780000000000d2
:102870007099210010407800e14f5000fcff3a00b1
:10288000b0992100104078004f0478000080fa00d1
:10289000000006001000fa00008fbe00220798001a
:1028a00033079800044f9800560798006707980070
:1028b000654f98006e4890000004e00006003a0062
:1028c0002099210021c0b30001487800be1a0700fa
:1028d00020c0b30014e8b7002e009000be009000a6
:1028e00089fc0700200798003107980032b32100c7
:1028f000432924001e00be00dff90700b0c3880092
:10290000c1c3880032b32100432924002e00900067
:10291000be009000d8f9070010c4880021c48800c8
:102920005e009000ee009000d31c0700421d0700df
:102930003077240041362400204088003140880050
:10294000000020000108240030c8880041c8880029
:1029500000002000010c240070c8880081c8880095
:10296000f098210011c0b3000148780010992100af
:1029700011c0b300014878000099210011c0b300d4
:1029800001487800309921008e4890000148780075
:10299000a099210071c0b3000148780090992100ee
:1029a00071c0b300014878006099210021c0b300d4
:1029b000014878004099210061c0b30001487800c7
:1029c0005099210061c0b30001487800c4992100ea
:1029d0006000b8006011b800009abe000292be000c
:1029e0006e489000e14f500004003a0080992100a9
:1029f00011c0b3000148780003003700809921001e
:102a000021c0b30001487800709921008040eb009c
:102a10000148780000000000709921001040780003
:102a2000e14f5000fcff3a00b099210010407800bf
:102a30000080fa00000006001000fa00889fbe0027
:102a4000004f98005207980063079800614f980064
:102a500010002000000f78006143800011079800eb
:102a600050c8bf000080fb002007980051c8bf007d
:102a70000080fb003007980020c0b30051e8b70089
:102a800020c0b30050e8b70020c0b3004fe8b70043
:102a90001e0078006600b900000078008080e80021
:102aa0004020210000804000900078004006200077
:102ab0000088b90000007800cf80de0014f907001c
:102ac00002002000832424009ff707000004be00ba
:102ad0001e0078006600b9008000780040202100c8
:102ae0000080400090007800400620000088b90077
:102af00000007800cf80de0005f90700020020000a
:102b00008324240090f707005e029000ee029000fc
:102b10000801be00d4fc070020c0b3004fe8b70096
:102b20003e0090000040780051e8b7002e00900071
:102b30000040780050e8b7005c0037006e48900015
:102b4000e94f500028003a00604380009e0090004a
:102b5000808f500024003a001e0078006600b90003
:102b6000000078008080e8004020210000804000c4
:102b700090007800400620000088b900000078002e
:102b8000cf80de00e2f8070002002000832424004a
:102b90006df707000004be001e0078006600b90053
:102ba00080007800402021000080400090007800e4
:102bb000400620000088b90000007800cf80de00c9
:102bc000d3f8070002002000832424005ef70700ea
:102bd0005e039000ee03900014c0b3000801be0035
:102be000e1fc0700300037001e007800e10f5000c4
:102bf00003003a000040eb00604f980002003700ed
:102c000020c0b300604f9800604380009e00900099
:102c1000808f500024003a001e00e8006600b900d2
:102c2000000078008080e800402021000080400003
:102c300090007800400620000088b900000078006d
:102c4000cf80de00b2f807000200200083242400b9
:102c50003df707000004be001e00e8006600b90052
:102c60008000780040202100008040009000780023
:102c7000400620000088b90000007800cf80de0008
:102c8000a3f8070002002000832424002ef7070089
:102c9000ee4a90005e039000ee03900014c0b30073
:102ca0000801be00f3fc07001e0fe800e0428000b0
:102cb0009e007800808f50000c003d006043800033
:102cc0009e009000808f500008003a001e0078009f
:102cd0006600b9008000780040202100008040009c
:102ce00010007800e10f400094ff3a004f04be004e
:102cf0000080fa00000006000600fa000000eb0069
:102d0000000f78000000eb00100798003300370038
:102d10001e0078006600b9008000780040d52000d1
:102d200000804000100178001e00e8006600b90035
:102d30008000780040d5200000804000100078001e
:102d400000005100200798002e0090000000e000d5
:102d500003003d002e0090000000ea0020079800cc
:102d60009e0090002e009000008040001007980008
:102d70001e0078006600b900000078008080e8003e
:102d800040d5200000804000100178001e00e800bf
:102d90006600b900000078008080e80040d520007f
:102da00000804000100078000000510020079800cb
:102db0002e0090000000e00003003d002e00900077
:102dc0000000ea00200798009e0090002e0090006e
:102dd00000804000100798001e0fe800e0428000cd
:102de0009e007800808f500004003d0091438000d9
:102df00050092000808f5000c5ff36001e00900053
:102e00000080fa00000006000400fa006c28ef00c1
:102e10006e28ef005e28ef000080eb00a0b5880070
:102e20000080eb00b0b588000080eb00c0b58800e2
:102e30000080eb00d0b588000000eb001007980080
:102e40002b0037000000eb00000f78002200370055
:102e50001e007800e10f5000090034001e007800c9
:102e6000fb0f500006003c001e009000e10f5000d8
:102e7000030034001e009000f10f50000b003400de
:102e80001e0078007400b900800078001e009000d9
:102e90000080400080004000408a20000080400008
:102ea00011002000010878000a0037001e00780099
:102eb0007400b900800078001e009000008040007f
:102ec00080004000408a2000008040008000eb002d
:102ed000010878001e0fe8001e007800fd0f50006a
:102ee000dbff34001e0090000000e800100798008f
:102ef0001e009000f30f5000d2ff3400100020009d
:102f0000000f7800350037009e0078008002200016
:102f10000088b90080007800808c2000008040008c
:102f200011002000010878001e017800fb0041001c
:102f3000800220000088b90080007800808c20008a
:102f40000080400011002000010878009e007800f9
:102f5000800220000088b90080007800a08c20004a
:102f60000080400011002000010878001e01780058
:102f7000fb004100800220000088b900800078003a
:102f8000a08c200000804000110020000108780083
:102f90009e00e800800220000088b90080007800d0
:102fa000408a2000008040001100200001087800c5
:102fb0009e0078007b8040008000e80080022000b6
:102fc0000088b90080007800408a2000008040001e
:102fd00011002000010878001e0fe8001e00780094
:102fe000e30f5000c8ff340080002000000f78007d
:102ff000090037009e007800800220000088b90098
:1030000080007800008b200000804000110020002c
:10301000010878001e0fe8001e007800f60f50002f
:10302000f4ff340060002000000f78000800370033
:10303000c21220001e00410080004000408a200093
:103040000080400011002000010878001e0fe800f9
:103050001e007800ec0f5000f5ff34000080fa00ed
:10306000000006000200fa00000f78001e00780041
:10307000e30f50000c003200e30f500003003c004f
:10308000e10f5000060032000d003700e50f500040
:1030900007003200e70f5000070032000800370039
:1030a00050002000070037002000200005003700f6
:1030b00060002000030037001000200001003700ee
:1030c0000080eb000080fa00000006000800fa0013
:1030d0001007980021079800320798000000eb00c5
:1030e000000f78003e009000e40f50008402320090
:1030f000e40f500007003c00e20f5000e2003200f5
:10310000e20f5000af013c00e10f50000f00320011
:1031100086063700e60f50001c043200e60f500010
:1031200046033500e70f5000e7043200e80f500077
:10313000b40532007d063700104380000000e8002f
:10314000104388001e0fe800010037000000000057
:10315000104380000000e800f30f500024003c0002
:1031600000438000114380000101e8007400b900b1
:10317000000078000200400080004000408a2000eb
:1031800000804000100078000000e00018003a00c5
:10319000004380000000e900124380007400b90081
:1031a000000078000200400080004000408a2000bb
:1031b00000804000100078000000e0000c003200a9
:1031c000014380001e009000808f500004003a00f0
:1031d000114380002e009000808f500004003200c8
:1031e0009143800050092000808f5000d2ff3600ac
:1031f000004380000000e900124380007400b90021
:10320000000078000200400080004000408a20005a
:1032100000804000100078000000e000080032004c
:10322000014380001e009000808f50003c003a0057
:10323000114380002e009000808f500038003a002b
:103240001e0078000000e00033003200e042800001
:103250006600b9008000780080d520000080400022
:103260001100200001087800e04280000000e80022
:10327000e0428800e0428000024380006600b9001e
:103280008000780040d520000080400002087800cf
:10329000e0428000124380006600b90080007800a0
:1032a00060d520000080400002087800e0428000e5
:1032b0006600b9008000780080d5200000804000c2
:1032c0007100200001087800e04280000000e80062
:1032d000e0428800004380000000e90000438800cd
:1032e000e0428000024380006600b9008000780060
:1032f00040d520000080400002087800e0428000b5
:10330000124380006600b9008000780060d520007c
:1033100000804000020878000000eb00040637003f
:1033200010438000f30f50000c0032000043800077
:10333000114380000101e8007400b900000078002a
:103340000200400080004000408a200000804000d1
:10335000100078000000e0004400320000438000cc
:103360000000e800124380007400b90000007800fb
:103370000200400080004000408a200000804000a1
:10338000100078000000e00038003a001e007800cd
:103390000000e00033003200e04280006600b90027
:1033a0008000780080d520000080400011002000bf
:1033b00001087800e04280000000e800e042880058
:1033c000e0428000024380006600b900800078007f
:1033d00040d520000080400002087800e0428000d4
:1033e000124380006600b9008000780060d520009c
:1033f0000080400002087800e04280006600b900ca
:103400008000780080d5200000804000310020003e
:1034100001087800e04280000000e800e0428800f7
:10342000004380000000e80000438800e042800084
:10343000024380006600b9008000780040d520007b
:103440000080400002087800e042800012438000c3
:103450006600b9008000780060d520000080400040
:103460000208780050002000b10537000080eb0012
:10347000af053700104380000000e80010438800cb
:103480001e0fe8000100370000000000104380001c
:103490000000e800f30f500024003c0000438000cf
:1034a000114380000101e8007400b90000007800b9
:1034b0000200400080004000408a20000080400060
:1034c000100078000000e00018003a00004380007f
:1034d0000000e800124380007400b900000078008a
:1034e0000200400080004000408a20000080400030
:1034f000100078000000e0000c0032000143800062
:103500001e009000808f500004003a00114380009c
:103510002e009000808f5000040032009143800004
:1035200050092000808f5000d2ff360000438000f9
:103530000000e800124380007400b9000000780029
:103540000200400080004000408a200000804000cf
:10355000100078000000e000080032000143800005
:103560001e009000808f50003c003a001143800004
:103570002e009000808f500038003a001e00780026
:103580000000e00033003200e04280006600b90035
:103590008000780080d520000080400011002000cd
:1035a00001087800e04280000000e800e042880066
:1035b000e0428000024380006600b900800078008d
:1035c00040d520000080400002087800e0428000e2
:1035d000124380006600b9008000780060d52000aa
:1035e0000080400002087800e04280006600b900d8
:1035f0008000780080d5200000804000310020004d
:1036000001087800e04280000000e800e042880005
:10361000004380000000e80000438800e042800092
:10362000024380006600b9008000780040d5200089
:103630000080400002087800e042800012438000d1
:103640006600b9008000780060d52000008040004e
:10365000020878000000eb003505370010438000b9
:10366000f30f50000c003200004380001143800033
:103670000101e8007400b900000078000200400079
:1036800080004000408a2000008040001000780048
:103690000000e00044003200004380000000e90028
:1036a000124380007400b90000007800020040005e
:1036b00080004000408a2000008040001000780018
:1036c0000000e00038003a001e0078000000e00032
:1036d00033003200e04280006600b90080007800cc
:1036e00080d52000008040001100200001087800f3
:1036f000e04280000000e800e0428800e0428000f4
:10370000024380006600b9008000780040d52000a8
:103710000080400002087800e042800012438000f0
:103720006600b9008000780060d52000008040006d
:1037300002087800e04280006600b900800078004e
:1037400080d5200000804000710020000108780032
:10375000e04280000000e800e04288000043800072
:103760000000e90000438800e0428000024380003e
:103770006600b9008000780040d52000008040003d
:1037800002087800e0428000124380006600b90021
:103790008000780060d5200000804000020878009a
:1037a00070002000e20437000080eb00e0043700e6
:1037b000104380000000e900104388001e0fe8005d
:1037c0000100370000000000104380000000e90005
:1037d0000000e00024003500004380001143800019
:1037e0000101e9007400b900000078000200400007
:1037f00080004000408a20000080400010007800d7
:103800000000e00018003a00004380000000e900da
:10381000124380007400b9000000780002004000ec
:1038200080004000408a20000080400010007800a6
:103830000000e0000c003200014380001e009000f8
:10384000808f500004003a00114380002e00900049
:10385000808f500004003200914380005009200006
:10386000808f5000d2ff3600004380000000e90046
:10387000124380007400b90000007800020040008c
:1038800080004000408a2000008040001000780046
:103890000000e00008003200014380001e0090009c
:1038a000808f50003c003a00114380002e009000b1
:1038b000808f500038003a001e0078000000e000c1
:1038c00033003200e04280006600b90080007800da
:1038d00080d52000008040005100200001087800c1
:1038e000e04280000000e800e0428800e042800002
:1038f000024380006600b9008000780040d52000b7
:103900000080400002087800e042800012438000fe
:103910006600b9008000780060d52000008040007b
:1039200002087800e04280006600b900800078005c
:1039300080d5200000804000710020000108780040
:10394000e04280000000e800e04288000043800080
:103950000000e90000438800e0428000024380004c
:103960006600b9008000780040d52000008040004b
:1039700002087800e0428000124380006600b9002f
:103980008000780060d520000080400002087800a8
:103990000000eb0066043700104380000000e000e8
:1039a0000c00320000438000114380000101e90057
:1039b0007400b90000007800020040008000400060
:1039c000408a200000804000100078000000e000e5
:1039d00044003200004380000000e80012438000f1
:1039e0007400b90000007800020040008000400030
:1039f000408a200000804000100078000000e000b5
:103a000038003a001e0078000000e0003300320069
:103a1000e04280006600b9008000780080d5200078
:103a2000008040005100200001087800e042800042
:103a30000000e800e0428800e0428000024380008d
:103a40006600b9008000780040d52000008040006a
:103a500002087800e0428000124380006600b9004e
:103a60008000780060d520000080400002087800c7
:103a7000e04280006600b9008000780080d5200018
:103a8000008040003100200001087800e042800002
:103a90000000e800e0428800004380000000e800e9
:103aa00000438800e0428000024380006600b900c5
:103ab0008000780040d52000008040000208780097
:103ac000e0428000124380006600b9008000780068
:103ad00060d52000008040000208780060002000cf
:103ae000130437000080eb001104370010438000fe
:103af0000000e900104388001e0fe80001003700b5
:103b000000000000104380000000e9000000e00019
:103b10002400350000438000114380000101e900ca
:103b20007400b900000078000200400080004000ee
:103b3000408a200000804000100078000000e00073
:103b400018003a00004380000000e80012438000a3
:103b50007400b900000078000200400080004000be
:103b6000408a200000804000100078000000e00043
:103b70000c003200014380001e009000808f500036
:103b800004003a00114380002e009000808f500006
:103b9000040032009143800050092000808f5000c3
:103ba000d2ff3600004380000000e800124380008e
:103bb0007400b9000000780002004000800040005e
:103bc000408a200000804000100078000000e000e3
:103bd00008003200014380001e009000808f5000da
:103be0003c003a00114380002e009000808f50006e
:103bf00038003a001e0078000000e0003300320078
:103c0000e04280006600b9008000780080d5200086
:103c1000008040005100200001087800e042800050
:103c20000000e800e0428800e0428000024380009b
:103c30006600b9008000780040d520000080400078
:103c400002087800e0428000124380006600b9005c
:103c50008000780060d520000080400002087800d5
:103c6000e04280006600b9008000780080d5200026
:103c7000008040003100200001087800e042800010
:103c80000000e800e0428800004380000000e800f7
:103c900000438800e0428000024380006600b900d3
:103ca0008000780040d520000080400002087800a5
:103cb000e0428000124380006600b9008000780076
:103cc00060d5200000804000020878000000eb0072
:103cd00097033700104380000000e0000c00320022
:103ce00000438000114380000101e9007400b90025
:103cf000000078000200400080004000408a200060
:103d000000804000100078000000e0004400320015
:103d1000004380000000e900124380007400b900f5
:103d2000000078000200400080004000408a20002f
:103d300000804000100078000000e00038003a00e9
:103d40001e0078000000e00033003200e0428000f6
:103d50006600b9008000780080d520000080400017
:103d60005100200001087800e04280000000e800d7
:103d7000e0428800e0428000024380006600b90013
:103d80008000780040d520000080400002087800c4
:103d9000e0428000124380006600b9008000780095
:103da00060d520000080400002087800e0428000da
:103db0006600b9008000780080d5200000804000b7
:103dc0007100200001087800e04280000000e80057
:103dd000e0428800004380000000e90000438800c2
:103de000e0428000024380006600b9008000780055
:103df00040d520000080400002087800e0428000aa
:103e0000124380006600b9008000780060d5200071
:103e10000080400002087800800020004403370042
:103e20000080eb0042033700004380000000e80000
:103e3000004388001e0fe80001003700000000006a
:103e4000004380000000e800fd0f500024003c000b
:103e5000004380000000e800124380007400b900b5
:103e6000000078000200400080004000408a2000ee
:103e700000804000100078000000e00018003a00c8
:103e800000438000114380000101e8007400b90084
:103e9000000078000200400080004000408a2000be
:103ea00000804000100078000000e0000c003200ac
:103eb000014380001e009000808f500004003a00f3
:103ec000114380002e009000808f500004003200cb
:103ed0009143800050092000808f5000d2ff3600af
:103ee00000438000fe0f500002003a000080eb000b
:103ef0000f03370000438000114380000101e800f8
:103f00007400b9000000780002004000800040000a
:103f1000408a200000804000100078000000e0008f
:103f200008003200014380001e009000808f500086
:103f30003c003a00114380002e009000808f50001a
:103f400038003a001e0078000000e0003300320024
:103f5000e04280006600b9008000780080d5200033
:103f6000008040003100200001087800e04280001d
:103f70000000e800e0428800e04280000243800048
:103f80006600b9008000780040d520000080400025
:103f900002087800e0428000124380006600b90009
:103fa0008000780060d52000008040000208780082
:103fb000e04280006600b9008000780080d52000d3
:103fc000008040001100200001087800e0428000dd
:103fd0000000e800e0428800104380000000e80094
:103fe00010438800e0428000024380006600b90070
:103ff0008000780040d52000008040000208780052
:10400000e0428000124380006600b9008000780022
:1040100060d5200000804000020878000000eb001e
:10402000c302370000438000fd0f50000c00320037
:10403000004380000000e800124380007400b900d3
:10404000000078000200400080004000408a20000c
:1040500000804000100078000000e00044003200c2
:1040600000438000114380000101e9007400b900a1
:10407000000078000200400080004000408a2000dc
:1040800000804000100078000000e00038003a0096
:104090001e0078000000e00033003200e0428000a3
:1040a0006600b9008000780080d5200000804000c4
:1040b0003100200001087800e04280000000e800a4
:1040c000e0428800e0428000024380006600b900c0
:1040d0008000780040d52000008040000208780071
:1040e000e0428000124380006600b9008000780042
:1040f00060d520000080400002087800e042800087
:104100006600b9008000780080d520000080400063
:104110005100200001087800e04280000000e80023
:10412000e0428800104380000000e900104388004e
:10413000e0428000024380006600b9008000780001
:1041400040d520000080400002087800e042800056
:10415000124380006600b9008000780060d520001e
:104160000080400002087800400020007002370004
:104170000080eb006e023700004380000000e80082
:10418000004388001e0fe800010037000000000017
:10419000004380000000e800fd0f500024003c00b8
:1041a000004380000000e800124380007400b90062
:1041b000000078000200400080004000408a20009b
:1041c00000804000100078000000e00018003a0075
:1041d00000438000114380000101e9007400b90030
:1041e000000078000200400080004000408a20006b
:1041f00000804000100078000000e0000c00320059
:10420000014380001e009000808f500004003a009f
:10421000114380002e009000808f50000400320077
:104220009143800050092000808f5000d2ff36005b
:1042300000438000114380000101e9007400b900cf
:10424000000078000200400080004000408a20000a
:1042500000804000100078000000e00008003200fc
:10426000014380001e009000808f50003c003a0007
:10427000114380002e009000808f500038003a00db
:104280001e0078000000e00033003200e0428000b1
:104290006600b9008000780080d5200000804000d2
:1042a0003100200001087800e04280000000e800b2
:1042b000e0428800e0428000024380006600b900ce
:1042c0008000780040d5200000804000020878007f
:1042d000e0428000124380006600b9008000780050
:1042e00060d520000080400002087800e042800095
:1042f0006600b9008000780080d520000080400072
:104300005100200001087800e04280000000e80031
:10431000e0428800104380000000e900104388005c
:10432000e0428000024380006600b900800078000f
:1043300040d520000080400002087800e042800064
:10434000124380006600b9008000780060d520002c
:1043500000804000020878000000eb00f401370004
:1043600000438000fd0f50000c003200004380002d
:104370000000e800124380007400b90000007800db
:104380000200400080004000408a20000080400081
:10439000100078000000e00044003200004380007c
:1043a000114380000101e8007400b90000007800aa
:1043b0000200400080004000408a20000080400051
:1043c000100078000000e00038003a001e0078007d
:1043d0000000e00033003200e04280006600b900d7
:1043e0008000780080d5200000804000310020004f
:1043f00001087800e04280000000e800e042880008
:10440000e0428000024380006600b900800078002e
:1044100040d520000080400002087800e042800083
:10442000124380006600b9008000780060d520004b
:104430000080400002087800e04280006600b90079
:104440008000780080d5200000804000110020000e
:1044500001087800e04280000000e800e0428800a7
:10446000104380000000e80010438800e042800014
:10447000024380006600b9008000780040d520002b
:104480000080400002087800e04280001243800073
:104490006600b9008000780060d5200000804000f0
:1044a0000208780020002000a10137000080eb0006
:1044b0009f013700004380000000e90000438800ae
:1044c0001e0fe800010037000000000000438000dc
:1044d0000000e9000000e0002400350000438000f7
:1044e0000000e900124380007400b9000000780069
:1044f0000200400080004000408a20000080400010
:10450000100078000000e00018003a00004380002e
:10451000114380000101e8007400b9000000780038
:104520000200400080004000408a200000804000df
:10453000100078000000e0000c0032000143800011
:104540001e009000808f500004003a00114380004c
:104550002e009000808f50000400320091438000b4
:1045600050092000808f5000d2ff360000438000a9
:10457000114380000101e8007400b90000007800d8
:104580000200400080004000408a2000008040007f
:10459000100078000000e0000800320001438000b5
:1045a0001e009000808f50003c003a0011438000b4
:1045b0002e009000808f500038003a001e007800d6
:1045c0000000e00033003200e04280006600b900e5
:1045d0008000780080d5200000804000710020001d
:1045e00001087800e04280000000e800e042880016
:1045f000e0428000024380006600b900800078003d
:1046000040d520000080400002087800e042800091
:10461000124380006600b9008000780060d5200059
:104620000080400002087800e04280006600b90087
:104630008000780080d5200000804000110020001c
:1046400001087800e04280000000e800e0428800b5
:10465000104380000000e80010438800e042800022
:10466000024380006600b9008000780040d5200039
:104670000080400002087800e04280001243800081
:104680006600b9008000780060d5200000804000fe
:10469000020878000000eb0025013700004380008d
:1046a0000000e0000c003200004380000000e90040
:1046b000124380007400b90000007800020040003e
:1046c00080004000408a20000080400010007800f8
:1046d0000000e000440032000043800011438000ed
:1046e0000101e9007400b9000000780002004000f8
:1046f00080004000408a20000080400010007800c8
:104700000000e00038003a001e0078000000e000e1
:1047100033003200e04280006600b900800078007b
:1047200080d5200000804000710020000108780042
:10473000e04280000000e800e0428800e0428000a3
:10474000024380006600b9008000780040d5200058
:104750000080400002087800e042800012438000a0
:104760006600b9008000780060d52000008040001d
:1047700002087800e04280006600b90080007800fe
:1047800080d5200000804000510020000108780002
:10479000e04280000000e800e04288001043800012
:1047a0000000e90010438800e042800002438000de
:1047b0006600b9008000780040d5200000804000ed
:1047c00002087800e0428000124380006600b900d1
:1047d0008000780060d5200000804000020878004a
:1047e00030002000d20037000080eb00d0003700fe
:1047f000004380000000e900004388001e0fe8002d
:104800000100370000000000004380000000e900c4
:104810000000e00024003500004380000000e900b3
:10482000124380007400b9000000780002004000cc
:1048300080004000408a2000008040001000780086
:104840000000e00018003a0000438000114380009f
:104850000101e9007400b900000078000200400086
:1048600080004000408a2000008040001000780056
:104870000000e0000c003200014380001e009000a8
:10488000808f500004003a00114380002e009000f9
:10489000808f5000040032009143800050092000b6
:1048a000808f5000d2ff360000438000114380000b
:1048b0000101e9007400b900000078000200400026
:1048c00080004000408a20000080400010007800f6
:1048d0000000e00008003200014380001e0090004c
:1048e000808f50003c003a00114380002e00900061
:1048f000808f500038003a001e0078000000e00071
:1049000033003200e04280006600b9008000780089
:1049100080d5200000804000710020000108780050
:10492000e04280000000e800e0428800e0428000b1
:10493000024380006600b9008000780040d5200066
:104940000080400002087800e042800012438000ae
:104950006600b9008000780060d52000008040002b
:1049600002087800e04280006600b900800078000c
:1049700080d5200000804000510020000108780010
:10498000e04280000000e800e04288001043800020
:104990000000e90010438800e042800002438000ec
:1049a0006600b9008000780040d5200000804000fb
:1049b00002087800e0428000124380006600b900df
:1049c0008000780060d52000008040000208780058
:1049d0000000eb0056003700004380000000e000bc
:1049e0000c003200004380000000e9001243800008
:1049f0007400b90000007800020040008000400010
:104a0000408a200000804000100078000000e00094
:104a10004400320000438000114380000101e8009f
:104a20007400b900000078000200400080004000df
:104a3000408a200000804000100078000000e00064
:104a400038003a001e0078000000e0003300320019
:104a5000e04280006600b9008000780080d5200028
:104a6000008040007100200001087800e0428000d2
:104a70000000e800e0428800e0428000024380003d
:104a80006600b9008000780040d52000008040001a
:104a900002087800e0428000124380006600b900fe
:104aa0008000780060d52000008040000208780077
:104ab000e04280006600b9008000780080d52000c8
:104ac000008040001100200001087800e0428000d2
:104ad0000000e800e0428800104380000000e80089
:104ae00010438800e0428000024380006600b90065
:104af0008000780040d52000008040000208780047
:104b0000e0428000124380006600b9008000780017
:104b100060d52000008040000208780010002000ce
:104b2000030037000080eb00010037000080eb003d
:104b30000080fa00000006000400fa001007980048
:104b40000000eb00000f7800004380009e00900002
:104b5000808f50004c003400040037000043800078
:104b60000000e800004388001e0fe80000438000ba
:104b70000000e800fd0f500014003c0000438000de
:104b80000000e800124380007400b90000007800c3
:104b90000200400080004000408a20000080400069
:104ba000100078000000e00008003a000043800098
:104bb0009e009000808f50000400320091438000de
:104bc00050092000808f5000e4ff36001e0078005e
:104bd0000000e00018003200e04280006600b900ea
:104be0008000780080d52000008040003100200047
:104bf00001087800e04280000000e800e042880000
:104c0000e0428000024380006600b9008000780026
:104c100040d520000080400002087800e04280007b
:104c2000124380006600b9008000780060d5200043
:104c30000080400002087800004380009e00900041
:104c4000808f500002003a000000eb005f00370048
:104c5000004380000000e800124380007400b900a7
:104c6000000078000200400080004000408a2000e0
:104c700000804000100078000000e0005200320088
:104c80003000200051003700004380009e0090005b
:104c9000808f50004c003d0004003700004380002e
:104ca0000000e900004388001e0fe8000043800078
:104cb0000000e9000000e00014003500004380001f
:104cc0000000e900124380007400b9000000780081
:104cd0000200400080004000408a20000080400028
:104ce000100078000000e00008003a000043800057
:104cf0009e009000808f500004003200914380009d
:104d000050092000808f5000e4ff36001e0078001c
:104d10000000e00018003200e04280006600b900a8
:104d20008000780080d520000080400071002000c5
:104d300001087800e04280000000e800e0428800be
:104d4000e0428000024380006600b90080007800e5
:104d500040d520000080400002087800e04280003a
:104d6000124380006600b9008000780060d5200002
:104d70000080400002087800004380009e00900000
:104d8000808f500002003a000000eb000f00370057
:104d9000004380000000e900124380007400b90065
:104da000000078000200400080004000408a20009f
:104db00000804000100078000000e0000200320097
:104dc00070002000010037000080eb000080fa0036
:104dd000000006000400fa00100798000000eb0035
:104de000000f7800104380009e009000808f5000dc
:104df0004c00340004003700104380000000e8003d
:104e0000104388001e0fe800104380000000e800f7
:104e1000f30f500014003c00004380001143800059
:104e20000101e8007400b9000000780002004000b1
:104e300080004000408a2000008040001000780080
:104e40000000e00008003a00104380009e0090003f
:104e5000808f5000040032009143800050092000f0
:104e6000808f5000e4ff36001e0078000000e00054
:104e700018003200e04280006600b900800078002f
:104e800080d520000080400011002000010878003b
:104e9000e04280000000e800e0428800e04280003c
:104ea000024380006600b9008000780040d52000f1
:104eb0000080400002087800e04280001243800039
:104ec0006600b9008000780060d5200000804000b6
:104ed00002087800104380009e009000808f5000f0
:104ee00002003a000000eb005f0037000043800042
:104ef000114380000101e8007400b900000078004f
:104f00000200400080004000408a200000804000f5
:104f1000100078000000e000520032001000200075
:104f200051003700104380009e009000808f500099
:104f30004c003d0004003700104380000000e900f1
:104f4000104388001e0fe800104380000000e900b5
:104f50000000e00014003500004380001143800091
:104f60000101e9007400b90000007800020040006f
:104f700080004000408a200000804000100078003f
:104f80000000e00008003a00104380009e009000fe
:104f9000808f5000040032009143800050092000af
:104fa000808f5000e4ff36001e0078000000e00013
:104fb00018003200e04280006600b90080007800ee
:104fc00080d52000008040005100200001087800ba
:104fd000e04280000000e800e0428800e0428000fb
:104fe000024380006600b9008000780040d52000b0
:104ff0000080400002087800e042800012438000f8
:105000006600b9008000780060d520000080400074
:1050100002087800104380009e009000808f5000ae
:1050200002003a000000eb000f0037000043800050
:10503000114380000101e9007400b900000078000c
:105040000200400080004000408a200000804000b4
:10505000100078000000e000020032005000200044
:10506000010037000080eb000080fa00000006001d
:105070000600fa000000eb00000f78000000eb00d3
:1050800010079800620037000000eb00200798002e
:10509000040037001e0fe8002e0090000000e8001a
:1050a000200798001e0078006600b9000000780014
:1050b000e400400040d5200000804000100178004e
:1050c0001e00e8006600b90000007800e40040001f
:1050d00040d520000080400010007800800f510073
:1050e00004003a009143800050092000808f500056
:1050f000e8ff36002e0090000000e000430034007e
:105100002e0090001e0010000000e800100798001c
:105110002f0037009e0090002e009000008040007d
:105120006600b9008000780040d520000080400073
:10513000100178001e0090006600b9008000780021
:1051400040d5200000804000020878009e009000ba
:105150002e009000008040006600b900000078003a
:105160008080e80040d520000080400010017800d9
:105170001e0090006600b9008000780060d5200015
:1051800000804000020878009e0090002e009000f1
:10519000008040006600b90000007800e400400094
:1051a00040d5200000804000100178001e009000d3
:1051b0006600b9008000780080d5200000804000a3
:1051c000020878001e0090000000e8001007980018
:1051d000e04280009e009000808f5000cdff3400a0
:1051e000e14280002e00900000805000e0428800e4
:1051f0002e0090001e0f10001e0078000000e0003e
:1052000002003d000000eb00000f78001e0fe800d8
:10521000e04280009e007800808f500004003d0036
:105220009143800050092000808f500096ff360087
:105230000080fa00000006000600fa000000eb0003
:10524000000f78006b003700e142800011079800e2
:10525000600037001e0078006600b900800078000a
:1052600040d5200000804000100178001e00900012
:105270006600b9008000780040d520000080400022
:1052800010007800800f51004f003a001e00780097
:105290006600b900000078008080e80040d520005a
:1052a00000804000100178001e0090006600b900e8
:1052b000000078008080e80040d520000080400099
:1052c00010007800800f51003f003a009e007800e7
:1052d00021079800320037009e0090002e009000b9
:1052e000008040001e0050006600b9008000780079
:1052f00040d5200000804000100178002e00900072
:105300006600b9008000780040d520000080400091
:10531000020878009e0090002e009000008040005f
:105320001e0050006600b900000078008080e80090
:1053300040d5200000804000100178002e00900031
:105340006600b9008000780060d520000080400031
:10535000020878009e0090002e009000008040001f
:105360001e0050006600b90000007800e400400014
:1053700040d5200000804000100178002e009000f1
:105380006600b9008000780080d5200000804000d1
:10539000020878002e0090000000e8002007980026
:1053a000e0428000ae009000808f5000caff3400c1
:1053b0001e0090009e001000e0428000008040002f
:1053c000e04288000a0037001e0090000000e9005b
:1053d000100798001e0090009e0f5000040034003b
:1053e0009143800050092000808f500099ff3600c3
:1053f0001e0fe800e04280000000e8009e0f500011
:10540000040034009143800050092000808f500038
:105410008dff36000080fa00000006000a00fa0046
:105420000000eb00000f7800590137001e007800e3
:105430006600b9008000780040d520000080400060
:10544000100178001e80e8006600b9008000780036
:1054500040d520000080400010007800000051007e
:10546000e10f50000f0032001e0078006600b90006
:105470008000780040d520000080400010017800b6
:105480001e80e8006600b9008000780040d520004a
:10549000008040001000780000005100e10f400043
:1054a0003a013a001e0078006600b900000078005a
:1054b0008080e80040d52000008040001001780086
:1054c0001e80e8006600b900000078008080e800d7
:1054d00040d52000008040001000780000005100fe
:1054e000e10f5000110032001e0078006600b90084
:1054f000000078008080e80040d520000080400057
:10550000100178001e80e8006600b90000007800f5
:105510008080e80040d52000008040001000780026
:1055200000005100e10f400018013a001e80e80021
:10553000100798001e0078006600b900000078008f
:10554000e400400040d5200000804000900078003a
:10555000410798009e00e800e0428000808f5000e4
:105560000d003c001e00e8006600b9000000780055
:10557000e400400040d5200000804000900078000a
:1055800031079800050037001e0090000000e80079
:105590001007980001003700000000001e00900076
:1055a0008000e800e0428000808f500078003d00dd
:1055b0001e0090006600b90000007800e400400082
:1055c00040d5200000804000900078004e00900000
:1055d000808f50000a0032001e0090006600b90063
:1055e00000007800e400400040d52000008040002a
:1055f000900078003e009000808f500064003a00d8
:105600001e0090006600b9008000780040d52000a0
:1056100000804000100178001e0090000000e800ab
:105620006600b9008000780040d52000008040006e
:105630001000780000005100e10f5000100032000f
:105640001e0090006600b9008000780040d5200060
:1056500000804000100178001e0090000000e8006b
:105660006600b9008000780040d52000008040002e
:105670001000780000005100e10f400011003a00d6
:105680001e0090006600b900000078008080e800ed
:1056900040d5200000804000100178001e009000de
:1056a0000000e8006600b900000078008080e80093
:1056b00040d520000080400010007800800f51008d
:1056c000b1ff32001e0090006600b90000007800b3
:1056d0008080e80040d52000008040001001780064
:1056e0001e0090000000e8006600b900000078008d
:1056f0008080e80040d52000008040001000780045
:1057000000005100e10f5000120032001e00900016
:105710006600b900000078008080e80040d52000d5
:1057200000804000100178001e0090000000e8009a
:105730006600b900000078008080e80040d52000b5
:10574000008040001000780000005100e10f400090
:105750000f003a001e0090006600b900800078003b
:1057600040d5200000804000100178001e0090000d
:105770000000e8006600b9008000780040d52000f5
:105780000080400010007800800f51007eff320042
:105790001e0078006600b90000007800e4004000b8
:1057a00040d520000080400010007800e10f50003c
:1057b00009003a001e00e8006600b9000000780009
:1057c000e400400040d52000008040001000780038
:1057d000e70f5000120032001e0078006600b9008a
:1057e00000007800e400400040d520000080400028
:1057f00010007800e70f500011003a001e00e8008a
:105800006600b90000007800e400400040d52000a8
:105810000080400010007800e10f500008003a00be
:105820001e0078006600b9008000780080d5200056
:105830000080400081002000010878000f00370040
:10584000ce0090003e009000808f50000300340096
:105850004e0090000001e800020037003e0090007a
:105860000001e8001e0078006600b90080007800a2
:1058700080d5200000804000020878000000eb0086
:1058800020079800350037009e00e8002e009000a9
:10589000808140009e0090002e009000008040001b
:1058a0006600b9008000780040d5200000804000ec
:1058b000100178006618b9008000780040d52000fb
:1058c00000804000020878009e00e8002e00900052
:1058d000808140009e0090002e00900000804000db
:1058e0006600b900000078008080e80040d5200004
:1058f00000804000100178006618b9008000780030
:1059000060d5200000804000020878009e00e8007a
:105910002e009000808140009e0090002e0090009c
:10592000008040006600b90000007800e4004000fc
:1059300040d5200000804000100178006618b900b2
:105940008000780080d520000080400002087800a8
:105950002e0090000000e800200798009e009000b4
:105960002e00900080804000e0428000808f500038
:10597000c5ff3400e14280001e009000008050000e
:105980001e0040000000e800e04288001e0fe80012
:105990009e00e800e0428000808f5000a3fe3500aa
:1059a0000080fa00000006000200fa000000eb0090
:1059b000000f7800270037001e0078006600b9004d
:1059c0008000780040d52000008040001001780061
:1059d0001e0078006600b90080007800c0fa200040
:1059e00000804000020878001e0078006600b900c0
:1059f000000078008080e80040d520000080400052
:105a0000100178001e0078006600b9008000780060
:105a1000e0fa200000804000020878001e007800b4
:105a20006600b90000007800e400400040d5200086
:105a300000804000100178001e0078006600b90068
:105a40008000780000fb2000008040000208780001
:105a50001e0fe800e04280009e007800808f50001a
:105a6000d5ff3400f4fd070081fd07006bfe070041
:105a70000080fa00000006001400fa006007980099
:105a800071079800020f9800130f9800e142800000
:105a900041079800f1428000510798000000eb0098
:105aa00030079800e7003700f14280003006200000
:105ab000808f5000020034000080eb00f3003700bc
