:020000040000fa
:080000000002040000000000f2
:020000040000fa
:040008005e04000092
:020000040000fa
:04000c005e0400008e
:020000040000fa
:040010005e0400008a
:020000040000fa
:040014005e04000086
:020000040000fa
:040018005e04000082
:020000040000fa
:04001c005e0400007e
:020000040000fa
:040020005e0400007a
:020000040000fa
:040024005e04000076
:020000040000fa
:040028005e04000072
:020000040000fa
:04002c005e0400006e
:020000040000fa
:040030005e0400006a
:020000040000fa
:04003400a80200001e
:020000040000fa
:040038005e04000062
:020000040000fa
:04003c005e0400005e
:020000040000fa
:040040005e0400005a
:020000040000fa
:040044005e04000056
:020000040000fa
:04004800f0020000c2
:020000040000fa
:04004c005e0400004e
:020000040000fa
:040050005e0400004a
:020000040000fa
:04005400f0030000b5
:020000040000fa
:040058005e04000042
:020000040000fa
:04005c005e0400003e
:020000040000fa
:040060005e0400003a
:020000040000fa
:040064005e04000036
:020000040000fa
:040068005e04000032
:020000040000fa
:04006c005e0400002e
:020000040000fa
:040070005e0400002a
:020000040000fa
:040074005e04000026
:020000040000fa
:040078005e04000022
:020000040000fa
:04007c005e0400001e
:020000040000fa
:040080005e0400001a
:020000040000fa
:040084005e04000016
:020000040000fa
:040088005e04000012
:020000040000fa
:04008c005e0400000e
:020000040000fa
:040090005e0400000a
:020000040000fa
:040094005c03000009
:020000040000fa
:0400980086030000db
:020000040000fa
:04009c005e040000fe
:020000040000fa
:0400a0002a0400002e
:020000040000fa
:0400a4004c04000008
:020000040000fa
:0400a8005e040000f2
:020000040000fa
:0400ac005e040000ee
:020000040000fa
:0400b0005e040000ea
:020000040000fa
:0400b4005e040000e6
:020000040000fa
:0400b8005e040000e2
:020000040000fa
:0400bc005e040000de
:020000040000fa
:0400c0005e040000da
:020000040000fa
:0400c4005e040000d6
:020000040000fa
:0400c8005e040000d2
:020000040000fa
:0400cc005e040000ce
:020000040000fa
:0400d0005e040000ca
:020000040000fa
:0400d4005e040000c6
:020000040000fa
:0400d8005e040000c2
:020000040000fa
:0400dc005e040000be
:020000040000fa
:0400e0005e040000ba
:020000040000fa
:0400e4005e040000b6
:020000040000fa
:0400e8005e040000b2
:020000040000fa
:0400ec005e040000ae
:020000040000fa
:0400f0005e040000aa
:020000040000fa
:0400f4005e040000a6
:020000040000fa
:0400f8005e040000a2
:020000040000fa
:0400fc005e0400009e
:020000040000fa
:040100005e04000099
:020000040000fa
:040104005e04000095
:020000040000fa
:040108005e04000091
:020000040000fa
:04010c005e0400008d
:020000040000fa
:04011000a803000040
:020000040000fa
:040114005e04000085
:020000040000fa
:040118005e04000081
:020000040000fa
:04011c005e0400007d
:020000040000fa
:040120005e04000079
:020000040000fa
:040124005e04000075
:020000040000fa
:040128005e04000071
:020000040000fa
:04012c005e0400006d
:020000040000fa
:040130005e04000069
:020000040000fa
:040134005e04000065
:020000040000fa
:040138005e04000061
:020000040000fa
:04013c005e0400005d
:020000040000fa
:040140005e04000059
:020000040000fa
:040144005e04000055
:020000040000fa
:040148005e04000051
:020000040000fa
:04014c005e0400004d
:020000040000fa
:040150005e04000049
:020000040000fa
:04015400cc030000d8
:020000040000fa
:040158005e04000041
:020000040000fa
:04015c005e0400003d
:020000040000fa
:040160005e04000039
:020000040000fa
:040164005e04000035
:020000040000fa
:040208005e04000090
:020000040000fa
:04020c005e0400008c
:020000040000fa
:040210005e04000088
:020000040000fa
:040214005e04000084
:020000040000fa
:040218005e04000080
:020000040000fa
:04021c005e0400007c
:020000040000fa
:040220005e04000078
:020000040000fa
:040224005e04000074
:020000040000fa
:040228005e04000070
:020000040000fa
:04022c005e0400006c
:020000040000fa
:040230005e04000068
:020000040000fa
:040234005e04000064
:020000040000fa
:040238005e04000060
:020000040000fa
:04023c005e0400005c
:020000040000fa
:040240005e04000058
:020000040000fa
:040244005e04000054
:020000040000fa
:040248005e04000050
:020000040000fa
:04024c005e0400004c
:020000040000fa
:040250005e04000048
:020000040000fa
:040254005e04000044
:020000040000fa
:040258005e04000040
:020000040000fa
:04025c005e0400003c
:020000040000fa
:040260005e04000038
:020000040000fa
:040264005e04000034
:020000040000fa
:040268005e04000030
:020000040000fa
:04026c005e0400002c
:020000040000fa
:040270005e04000028
:020000040000fa
:040274005e04000024
:020000040000fa
:040278005e04000020
:020000040000fa
:04027c005e0400001c
:020000040000fa
:040280005e04000018
:020000040000fa
:040284005e04000014
:020000040000fa
:040288005e04000010
:020000040000fa
:04028c005e0400000c
:020000040000fa
:040290005e04000008
:020000040000fa
:040294005e04000004
:020000040000fa
:040298005e04000000
:020000040000fa
:04029c005e040000fc
:020000040000fa
:0402a0005e040000f8
:020000040000fa
:0402a4005e040000f4
:020000040000fa
:0402a8005e040000f0
:020000040000fa
:0402ac005e040000ec
:020000040000fa
:0402b0005e040000e8
:020000040000fa
:0402b4005e040000e4
:020000040000fa
:0402b8005e040000e0
:020000040000fa
:0402bc005e040000dc
:020000040000fa
:0402c0005e040000d8
:020000040000fa
:0402c4005e040000d4
:020000040000fa
:0402c8005e040000d0
:020000040000fa
:0402cc005e040000cc
:020000040000fa
:0402d0005e040000c8
:020000040000fa
:0402d4005e040000c4
:020000040000fa
:0402d8005e040000c0
:020000040000fa
:0402dc005e040000bc
:020000040000fa
:0402e0005e040000b8
:020000040000fa
:0402e4005e040000b4
:020000040000fa
:0402e8005e040000b0
:020000040000fa
:0402ec005e040000ac
:020000040000fa
:0402f0005e040000a8
:020000040000fa
:0402f4005e040000a4
:020000040000fa
:0402f8005e040000a0
:020000040000fa
:0402fc005e0400009c
:020000040000fa
:040300005e04000097
:020000040000fa
:040304005e04000093
:020000040000fa
:040308005e0400008f
:020000040000fa
:04030c005e0400008b
:020000040000fa
:040310005e04000087
:020000040000fa
:040314005e04000083
:020000040000fa
:040318005e0400007f
:020000040000fa
:04031c005e0400007b
:020000040000fa
:040320005e04000077
:020000040000fa
:040324005e04000073
:020000040000fa
:040328005e0400006f
:020000040000fa
:04032c005e0400006b
:020000040000fa
:040330005e04000067
:020000040000fa
:040334005e04000063
:020000040000fa
:040338005e0400005f
:020000040000fa
:04033c005e0400005b
:020000040000fa
:040340005e04000057
:020000040000fa
:040344005e04000053
:020000040000fa
:040348005e0400004f
:020000040000fa
:04034c005e0400004b
:020000040000fa
:040350005e04000047
:020000040000fa
:040354005e04000043
:020000040000fa
:040358005e0400003f
:020000040000fa
:04035c005e0400003b
:020000040000fa
:040360005e04000037
:020000040000fa
:040364005e04000033
:020000040000fa
:10040000afbc20000e7f24000e0188000000000019
:10041000000020000000e000020032000001200087
:10042000200288000c00070080ed2400010020005d
:1004300011000700000020000000e0000200320070
:1004400000000200000000003e4f0200000000001b
:100450000040da000000fe004440a90060042000d3
:100460000000e0000300320000002000a00188002e
:100470004440a80000000600910188008000780038
:100480000000eb0015003700e280400032a0b4000d
:100490009101ba00e280400032a0b4009102ba009b
:1004a000e280400032a0b4000002eb00472bde00e7
:1004b000f507b200602ce10004003a000059eb009f
:1004c0008301e900fdff3e00040037006128e100e0
:1004d000010032000082eb000b00070011c3ba00dc
:1004e0001101ba000604e00003003a000200e00037
:1004f000e5ff3a0000000600f607b200960188000a
:1005000082007800f5ff37003159ba008301e90015
:100510000c0032002159ba008301e90008003200c2
:100520000400e00003003a00e280400032a0b40082
:10053000f5ff370011d9ba008301e900faff3a004c
:100540008100e800e180400032a0b4000000060015
:100550003600f800809fbe00829fbe00849fbe00d0
:10056000869fbe000000fa008460a9000710070003
:10057000e09f200010407800e14f500001003a0059
:100580000d0b0700004480000000e80000448800d4
:100590000144800040062000808f50000800340095
:1005a00040448000e10f500002003a008828ef002c
:1005b0000200370010002000404488008028ef002f
:1005c000000000000080fa004f03be004f02be0092
:1005d0004f01be004f00be003600f900004006008b
:1005e0003600f800809fbe00829fbe00849fbe0040
:1005f000869fbe000000fa008500a90056c8bf0013
:100600000040e80056e8b70061852000914078007e
:1006100090c5b30080cf500020003600d2a2a900c0
:1006200094e0a9009460a9009760a9009780a900b0
:100630009b40a9009d60a900c2e2a9001fe1a9009a
:1006400005e1a90011e1a90021e1a9006011b800ac
:100650000040eb00532307006011b80010c0b30046
:10066000502307006011b80020c0b3004d230700dd
:100670009005800000c0a00000d0a00000e0a00015
:1006800090058800900580000080a0000090a000e8
:1006900000a0a00090058800ffff37000080fa004e
:1006a0004f03be004f02be004f01be004f00be0010
:1006b0003600f900004006003600f800809fbe00ba
:1006c000829fbe00849fbe00869fbe000000fa008d
:1006d0001fe1a9002b210700c04280000000e800b4
:1006e000c04288001421ef008760a9001fe1a80024
:1006f0000080fa004f03be004f02be004f01be0053
:100700004f00be003600f900004006003600f80039
:10071000809fbe00829fbe00849fbe00869fbe0059
:100720000000fa0021e1a900332207008780a90018
:1007300021e1a8000080fa004f03be004f02be0076
:100740004f01be004f00be003600f9000040060019
:10075000809fbe000000fa008b40a900010f8000be
:1007600000802000008060000000e00004003200f3
:10077000b05c80000000e800b05c88000300370037
:10078000b05c80000000e900b05c88000080fa00e6
:100790004f00be0000400600809fbe000000fa002f
:1007a0008d60a900810f8000008020000080600023
:1007b0000000e00004003200c05c80000000e8009f
:1007c000c05c880003003700c05c80000000e900c6
:1007d000c05c88000080fa004f00be0000400600a8
:1007e000809fbe00821f78000200fa009560a90079
:1007f0008560a90030118000004f78007ec8bf00de
:10080000614060000080fb00610060004500dd0089
:1008100092168000f1fd2f00810061000100700040
:10082000901688007ec8bf000004e00003003a0074
:1008300010c0b3007ee8b700010037007e68ef000b
:100840009560a8000080fa004f0178004f00be00bc
:10085000004006003600f800809fbe00829fbe0068
:10086000849fbe00869fbe000000fa0097c0a900ca
:1008700087c0a900ab1b070097c0a8000080fa0042
:100880004f03be004f02be004f01be004f00be002e
:100890003600f90000400600809fbe000000fa000c
:1008a00087e0a90060a2200011c0b30001487800d1
:1008b0000080fa004f00be00004006000040da0051
:1008c0000000fe0003f0a200889fbe008a9fbe00c9
:1008d0008c1f7800b0010700b70133006450e100bd
:1008e0004f0032006420e1005200320003826c00ad
:1008f00007003b000905d0000306d000820f54001a
:100900000c065d0002003900020032008901780007
:10091000030678008582550004003d000003fd00b9
:100920008103fd008502ea008b854200840f72007e
:1009300002003b0060001000e08018006011b80069
:100940000005eb007a28e1000a0039000600780073
:10095000c75ddd00f707b200878075002d00370006
:10096000828171000a017800610560008180d100f8
:100970000080d3008502e900f9ff3b000604400037
:100980008784480002003b0060041400e0841c00df
:100990000988a300070032008a81710082817100fa
:1009a000610164008904d1000884d3008b05e8004c
:1009b000170037000978a30013003a000b00e0008d
:1009c000130034008b05e9000804440089844c00be
:1009d0000a4474000978a3000d003a000b00e000ff
:1009e000070034008b05e9000804440089844c00aa
:1009f00001003a000b0020000978a300f7ff320045
:100a00000001eb0002003700828171000a017800ca
:100a1000260107000cf0a70001f0a0006f013700cd
:100a20006420e10002003a00838f6c006f01330004
:100a30000801be000200be0068013700889fbe00aa
:100a40008a9fbe008c1f780053010700100220000f
:100a500002003b0060448800570137008a006200b2
:100a60006408e10002003a00604488005f0137003a
:100a70006108e100fcff32000800be0003047800ba
:100a80007200070001f0a1000900070008f0a600ad
:100a9000040037000001be0091042400b0fd2000d6
:100aa00088ff070009f0a70001f0a2004b01370002
:100ab000889fbe008a9fbe008c9fbe000004be00bf
:100ac000200107000800be00890678006420e100cc
:100ad00008003900040032000160a000120220006a
:100ae000624488005300370091fc2300b0fd2000d1
:100af0004e0037000006eb0009f0a10003f82300c8
:100b0000020020000800be00a1000700060034001b
:100b100001f82300000020000801be004b00070080
:100b20000004be002c0020000800be0093e8230053
:100b3000320a230096000700120034000801be00ac
:100b4000d1fd2300703d2b005fff07000005be00b4
:100b5000b3f32300f27a26000800be002601070046
:100b600003f823000200200056ff07000801be0022
:100b700055ff07000a01be00340007000004be0054
:100b80000c06e8000800be0001f0a10002002000f1
:100b9000039823007e0007000800be001600350001
:100ba0000801be00140107000005be0032cd2c0074
:100bb00043fb230044ff0700809fbe00126928000a
:100bc00003d52b000a00be000b010700620f2100b5
:100bd00013ef2b003cff07000a01be0006010700cf
:100be0004f01be00190007000801be000201070006
:100bf0000801be0034ff07000c00e0000b003200cb
:100c00000c10a70001f0a200b2fd200093fc23000d
:100c10006260e1000400320022a9200063f023009a
:100c20000c10a70063f8230027ff07000df0a700b2
:100c300001f0a2004f06be004f05be004f04be00eb
:100c4000000006000081eb001f013700889fbe00f6
:100c50008a9fbe008c1f7800cf000700d6003300ab
:100c600003866c006450e1002e0032006420e10035
:100c7000330032006150e1002f0032006120e100ba
:100c80003100320085855500eb07b00009002000d7
:100c900008042000050037000804440089844c0043
:100ca0000a0031000603430087834b000001530014
:100cb00081815b00f8ff33000203be000800a00042
:100cc0000804440089844c00f6ff3900c639dd0071
:100cd0008301730001003200130020008904d10059
:100ce0000884d3000998a300050032000800a7007b
:100cf0000300a0008904d1000884d3008b05e8001c
:100d00008904d1000884d3000001eb000281d200e5
:100d10006600070001f0a1000cf0a70001f0a000a0
:100d2000ae0037006420e100b00032000801be00d0
:100d30000200be00f7ff37006120e100ab00320087
:100d40006000b800f3ff37000000200001f8270022
:100d5000f0ff3700839f68000100e00002003d00c3
:100d600060001000e08018000300e00002003d0079
:100d700060011100e0811900730107004f00e000dd
:100d800002003b0060001000e08018000000060038
:100d9000140020007e023700f4ff2f007c02370091
:100da0000001be00670007000470a70003f0a10067
:100db0006509b100160032000d0035006828e10019
:100dc00006003500f0ff2f00f1ff27000300e000d0
:100dd00013003b0001002800000005000000400057
:100de000818048008502e900fcff3a0008003700d6
:100df000f88f420002003c008000eb00000005007c
:100e00008100d1000080d3008502e800fcff3a0099
:100e10000300e00002003b0060001000e0801800ca
:100e2000000006000001be00460007000470a70095
:100e300003f0a10003f8a30013003a006509b10014
:100e400010003200090035006928e1000200350079
:100e500001002800000005000000400081804800db
:100e60008502e900fcff3a0000000600f88f42000e
:100e7000050035008100d1000080d3008502e80024
:100e8000fcff3a00000006008000eb0000000500b7
:100e90004f89de0082017800580237006011b800e7
:100ea000660237000400200039023700810020006c
:100eb000618055000b003d000b00200061fe2f00fb
:100ec0000100e1001d0034008281710061016400b5
:100ed0008904d1000884d3000000e800faff3a003a
:100ee00071002000610064000300700002006000d7
:100ef0000900320061044400e0844c000988a50028
:100f0000050032008b05e8006808e10002003a00a5
:100f10008904d1000884d300f20f20000258e100b8
:100f200005003d00c75ddd00f907b200898075004e
:100f300008007800000006000bf827008b007800fe
:100f400000000500c70ade00f107b200f50fb2008d
:100f500008003200e1cf4200020032000170a00020
:100f600024000500810f7000010032000408050014
:100f700044000500810f700002003a0014000500d3
:100f80008502e9000000400081c04800fcff3b00f2
:100f90000170a000240005000004be00e9ff070066
:100fa0000003be000405be000200be00e5ff07000e
:100fb000844f7500000006000200be006450e1008e
:100fc000050036006420e100020036000968a30035
:100fd00001003a000800be000160a0004f06780042
:100fe0004f05be004f04be0000000600f0ff2f00ba
:100ff000f1ff2700f9ff3700889fbe008a9fbe00df
:101000008c1f7800e4ff0700ebff330003866c00c1
:101010006450e100240032006420e1002700320027
:101020006150e100220032006120e1002100320025
:101030008b854200eb07b1000134b800003ab800dc
:101040000804420089844a00013ab8000030b80020
:101050008880400009014a0004003300000040007d
:1010600081804800020149008b05e900c909dd00c3
:10107000830170000100320013002000c814de005c
:101080004814dd004709de001200b200c808de0087
:101090000884700085ff070001f0a1000cf0a70094
:1010a00001f0a000cdff37006120e100cfff32004a
:1010b0000801be000200be00f7ff37006150e100ea
:1010c000fcff3a00c9ff3700889fbe008a9fbe0020
:1010d0008c9fbe00820578000004be0099ff0700c7
:1010e0000800be006420e1000700390002003a0059
:1010f000f1ff2700f0ff2f000160a0001202200086
:1011000062448800550037006120e10003003a0086
:101110000b00a70001f823005000370001f0a100e8
:10112000020021009364240019ff07000800be009c
:1011300004003500b2fd2000930c2400ee010700ee
:101140000004be000005eb000b00a6004f0dde0002
:1011500001f0a1000004be0032982f0023ea230012
:10116000a5ff07000001eb0003f023000b00a70020
:1011700003f82300d4fd070009ff07000000a700c3
:101180000a00a20042ff07000b00e000030032004b
:101190000200200003f02300cafd070001f0a200b6
:1011a0000006be00020020009304240092ff070006
:1011b0000801be00c4fd0700809fbe000c00be00f9
:1011c00022a22a00d3a723008bff07004f01be00f5
:1011d000bdfd07000004be0001f0a10002002000d8
:1011e00003982300eafe07000800be00190035003e
:1011f0000001be0080ff07000006be00b2c5290046
:10120000e36223007cff070022222b00f3942b00d3
:10121000adfd07000c01be0077ff0700e273280058
:1012200083c02300a8fd07000c01be0072ff070069
:1012300042aa2a00a3e22b00a3fd07000c01be0076
:101240006dff07000801be006bff07000801be002c
:101250009dfd07000a00a70001f0a2004f06be0096
:101260004f05be004f04be00000006000001eb0069
:1012700095ff3700889fbe008a9fbe008c1f7800b4
:101280000004be002fff07000478a30026003a00e8
:101290006120e1002500320009f8a30025003a0092
:1012a0006420e10021003200f507b1000508a30029
:1012b0000200320000004000818048006044b80015
:1012c0000310200002002000000040008180480040
:1012d0000805440089854c000a0541008b854900ba
:1012e0000a0550008b855800030033000a00be0039
:1012f00002047400838474008301d1000281d3004e
:10130000830f7100f0ff3a008904d1000884d300f4
:101310006001490082017800c1adde00fb07b0002a
:10132000e2fe07002dff37000960a0000800be00a4
:101330002aff37001202200062448800f0ff2f00cd
:10134000f1ff270025ff37006022b80006022000c9
:101350000000d0008180d2000482d2008582d200b9
:101360000000a0000202520083825a0003003100f4
:101370000202420083824a000000a1000603e90045
:10138000f3ff3a0000000600889fbe008a9fbe005f
:1013900030044200b0844a0030054b0090854b0079
:1013a0006000b1000898be000a90be000440e10051
:1013b00005c8e10006d0e10007d8e10002003100d5
:1013c000680040001008e8004f05be004f04be0052
:1013d00000000600889fbe008a9fbe003004be0049
:1013e0002005be000418540005985c0006185d0036
:1013f00007985d00110020000440e10005c8e100ed
:1014000006d0e10007d8e100010039008000eb00c0
:10141000108810004f05be004f04be0000000600fb
:101420001200fa00889fbe008a9fbe008c9fbe00fb
:10143000e0b79f00f1b79f0082bf9f0093bf9f005e
:101440000605be000404be000000eb00d0b79f00fc
:10145000c0b79f00b0b79f00a0b79f0090b79f0094
:101460000006eb005fb19700cfb09700820141000a
:101470003fb097000200e00004003d003700070085
:101480007e805700c0ff07000300370033000700cd
:101490007e805700cfff0700dfb697000d00e00009
:1014a0000c0035006fb29700ffb297000fbb97009a
:1014b0009fbb970010002000010020006011b800c1
:1014c0000002720081827200020373008383730042
:1014d0001b0007000c06e80001042000810f5600e5
:1014e000e0ff3a000d00e00004003d000802be00ed
:1014f0000a03be007e805700a3ff07005fa8970085
:101500000000e00005003a001fb29700afb297005c
:101510003fb39700cfb39700090007006fb0970063
:10152000ffb097000fb997009fb997004f06be0014
:101530004f05be004f04be000080fa000000060008
:101540000100070000000600a4b79f00b5b79f0088
:10155000c6b79f00d7b79f00000006004f09de0006
:1015600082817100b3b79f004f01de00818040008f
:1015700082807000a1b79f008fb097004f09de00f6
:10158000000040000200700090b79f007fa8970005
:101590004f01de00818040008280700081b79f0093
:1015a0000d0007004f3ade0000004000040070000c
:1015b000f0af9f00080007000402420085824a0045
:1015c00006034b0087834b00dfff07000802be00c5
:1015d0000a03be00000006002fb29700bfb29700ba
:1015e0004fb39700dfb3970000000600881f780014
:1015f00018002000881f780089ff07008f87e90006
:101600004f04780000000600801feb0084ff0700f5
:101610008f87e90000000600889fbe008a9fbe00f9
:10162000e00f5000e08f5800e00f5900e08f5900a4
:101630000c003d006044b8006055b8000000540044
:1016400081805c0002015d0083815d001800200044
:101650001500070008003d00180007000004eb001b
:10166000050037000004eb000f00070002003d00fa
:101670001200070018002000dcff07000800e0004f
:10168000060032006022b8006033b800000052004b
:1016900081805a0002015b0083815b004f05be0020
:1016a0004f04be0000000600e00f5200e08f5a0019
:1016b000e00f5b00e08f5b00000006006044b800b4
:1016c0006055b8000402540085825c0006035d008a
:1016d00087835d0000000600889fbe008a9fbe00d1
:1016e0008c1f7800e00f5000e08f5800e00f590089
:1016f000e08f59000d003d006044b8006055b8000f
:101700000000540081805c0002015d0083815d0067
:101710001c0020000820e10009a8e1000ab0e10057
:101720000bb8e1000d003d00080037000006eb009b
:10173000e00f5200e08f5a00e00f5b00e08f5b008b
:1017400006003d006044b8006055b8000402540033
:1017500085825c0006035d0087835d00aaff0700a9
:101760000c00e000060032006022b8006033b800d0
:101770000000520081805a0002015b0083815b00ff
:101780004f0678004f05be004f04be000000060063
:10179000889fbe008a9fbe00841f7800fefd070060
:1017a0004f00780011003300f0ff2f00838f6c0092
:1017b00006003b00040565000a00a700080037008a
:1017c00009f0a6001000200008003700820f540026
:1017d000838f5c00030039001000200001003e00f0
:1017e0000000200009f0a7000000ea004f05be003d
:1017f0004f04be000000e00000000600881f7800d3
:10180000030478000300e00007003d0060001000c2
:10181000e080180060011900e081190002003b001f
:1018200001f02d00030037000400070008f0a700b6
:1018300001f0a0004f04780000000600889fbe0061
:101840008a9fbe0000827000040271000482710051
:10185000260032000004be000200be006011b80085
:101860006b092000950220000182cf000a00390098
:101870000541b1000082cf00070039000541b100e9
:101880000982cf00040039000541b1000882cf0071
:10189000010039000541b10005425200120032003a
:1018a0000a003b0082817100610164008100d10067
:1018b0000080d3008984d3000884d3008b05e8001e
:1018c0000442e800f7ff3a0007003700080444002c
:1018d00089844c0000004800818048008b05e900a5
:1018e0000442e900f9ff3a0070fd07004f05be0011
:1018f0004f04be0000000600040020000000370076
:10190000889fbe008a9fbe008c1f78004f26dd0096
:10191000a1fd0700a8fd33006120e1004300320073
:101920006250e10041003e003e0039006420e100c9
:101930003c003200058255000f003b000402e80025
:1019400038003a00800f5300818f5b00350034006f
:101950000800be0003f0a10001f0a60003f0a00003
:101960000cf0a700d8fb07009cfd370006034300de
:1019700087834b000c4646000005530081855b00c1
:10198000020033000a03be000c00a0000402e900bc
:10199000f6ff3b00850578000602430087824b0076
:1019a00004003a006000b80009f0a70001f0a000b0
:1019b0008afd37000002520081825a000704e000cd
:1019c000040033000603430087834b008b05e900c6
:1019d000faff3700090578000604be000203be00c6
:1019e0006011b80031fd0700e00f5200e08f5a008f
:1019f0000700350002003c000c08a3000400320080
:101a00000601be0003f0a0000cf0a700aefb07002b
:101a10000a85680001f0a1000af0a70001f0a0000b
:101a20006efd37000800be006cfd3700100220007c
:0c1a30000cf0a600604488006cfd37003c
:020000040000fa
:101a3c000a0a00000a0a00000a0a000044650000b5
:101a4c0062750000742000006475000020630000c3
:101a5c006f640000652000003a2000000a0d0000b1
:101a6c00000000000a0a00000a0d000020580000c7
:101a7c00203a00002000000020590000203a00000d
:101a8c00200000002054000065740000612000005c
:101a9c003a20000000000000202000004944000013
:101aac0020000000203a0000200000000d00000083
:0c1abc00090000000a0d000000000000fe
:020000040000fa
:101ac8000000fa00f09f200021c0b3000148780010
:101ad80000a0200021c0b3000148780010a0200019
:101ae80021c0b3000148780070a0200011c0b300e5
:101af8000148780020a0200021c0b30001487800e8
:101b0800b0a020008040eb000148780080a02000b1
:101b180011c0b3000148780030a0200011c0b30004
:101b280001487800550007002d090700d2a2a80037
:101b3800e09f200011c0b300014878000080fa003f
:101b4800000006000c00fa00008fbe002207980073
:101b58003307980044079800550798001e00be00f8
:101b6800090007002e009000be0090001400070036
:101b78004e009000de009000c6fc07001f00070022
:101b88000080fa00000006000400fa00008fbe0082
:101b98001e01be00b2448800c3448800b0448000df
:101ba800c144800032b321004329240010fd0700fe
:101bb80070478800814788000080fa00000006000e
:101bc8000400fa00008fbe001e00be009c10070033
:101bd800d0448800e1448800d0448000e14480007b
:101be80032b321004329240001fd0700d0478800b3
:101bf800e14788000080fa00000006000400fa00af
:101c0800008fbe001e00be008d100700008fbe00b2
:101c1800b2fd2000930424001e00be00f4fc07005f
:101c2800020020004333240006fc070052dc210098
:101c3800236b2400eefc07000200200003002400b0
:101c480000fc070050498800614988000080fa00bc
:101c5800000006000000fa00c28020006000b80002
:101c68000089be00c28020006000b80020019800f2
:101c7800310198000080fa00000006000000fa0018
:101c880020a0200021c0b30001487800b0a02000a7
:101c98008040eb000148780080a0200011c0b3000c
:101ca8000148780090a0200071c0b3000148780076
:101cb800a0a0200071c0b30001487800c4a0200093
:101cc8006000b8006011b800009abe000292be0021
:101cd8006000b800f0488800014988006000b8003a
:101ce800d0488800e14888006000b800b048880003
:101cf800c14888006000b800304988004149880020
:101d08006000b80010498800214988006000b800c8
:101d1800304c8800414c88006000b800504c880066
:101d2800614c88006000b800904c8800a14c880085
:101d38006000b800104e8800214e88006000b8008e
:101d4800704e8800814e88006000b800304e8800d0
:101d5800414e88006000b800d04c8800e14c8800f3
:101d68006000b800f04c8800014d88006000b800a1
:101d7800304d8800414d88006000b800704d8800e3
:101d8800814d88006000b800904d8800a14d880002
:101d98006000b800d04d8800e14d88006000b800b0
:101da800d04a8800e14a88006000b800904a88005c
:101db800a14a88006000b800b04a8800c14a88007b
:101dc8006000b800304b8800414b88006000b800c4
:101dd800f04a8800014b88006000b800104b88006a
:101de800214b88006000b800704b8800814b880048
:101df8006000b800504b8800614b88006000b80054
:101e0800904b8800a14b88006000b800b04988005a
:101e1800c14988006000b80070498800814988007d
:101e28006000b80090498800a14988006000b800a7
:101e3800104a8800214a88006000b800d04988000c
:101e4800e14988006000b800f0498800014a88002c
:101e58006000b800704a8800814a88006000b800b5
:101e6800304a8800414a88006000b800504a88001b
:101e7800614a8800e48a2000400620000100200012
:101e88006011b800009abe000292be0000002a004d
:101e9800c15824005045880061458800d2a2a80096
:101ea8000080fa00000006000000fa00b04480003c
:101eb800c14480000080fa00000006000000fa001b
:101ec800d0448000e1448000dd0f07000080fa0064
:101ed800000006000000fa00704480008144800081
:101ee800d70f07000080fa00000006000000fa0083
:101ef800881f7800c08020001000be0018c0b30002
:101f080002002000832c2400a1fb07000000e00051
:101f180001003c000044eb000804e000050032002a
:101f2800c280200000002000812c24000089be000f
:101f38000f003700c08020001000be0018c0b3009a
:101f480002002000832c2c008ffb07000000e0001b
:101f5800010035000044eb000804e00004003200f2
:101f6800c280200000002000812c2c000089be00c7
:101f7800c0802000b00090002000900018c0b3007e
:101f880002002000832c240081fb07000000e000f1
:101f980001003c000044eb000804e00006003200a9
:101fa800c280200000002000812c2400200198001d
:101fb8003101980011003700c0802000b000900067
:101fc8002000900018c0b30002002000832c2c00d1
:101fd8006dfb07000000e000010035000044eb0045
:101fe8000804e00005003200c28020000000200044
:101ff800812c2c0020019800310198004f047800b2
:102008000080fa00000006000200fa00881f78002d
:10201800004f78001e407800e14f500044003a001d
:10202800744b8000854b8000404080005140800008
:1020380018c0b3000001be000400be0054fb070036
:102048000000e00001003c000044eb000804e00050
:10205800050032004040800051408000704b8800ed
:10206800814b880078003700744b8000854b8000d6
:10207800404080005140800001f0a20018c0b30029
:102088000001be000400be003ffb07000000e000a6
:10209800010035000044eb000804e00006003200af
:1020a800404080005140800001f0a200704b880041
:1020b800814b880064003700504b8000614b8000e2
:1020c8006011b80030fb07000000e0005e003a0035
:1020d800704b8000814b80002ffb070000007800c8
:1020e80000f0a7000000ea00cf80de0066fb0700d2
:1020f8000002be00104c8000214c800018c0b300c4
:102108000001be000400be001ffb07000000e00045
:10211800010035000044eb000804e0004a003200ea
:102128006000b800704b8800814b8800460037007b
:102138001e407800e24f500043003a00544a8000a5
:10214800654a8000204080003140800018c0b300fc
:102158000001be000400be000dfb07000000e00007
:1021680001003c000044eb000804e00005003200d8
:102178002040800031408000504a8800614a880031
:1021880031003700544a8000654a800020408000b2
:102198003140800001f0a20018c0b3000001be0069
:1021a8000400be00f8fa07000000e0000100350056
:1021b8000044eb000804e0000600320020408000e4
:1021c8003140800001f0a200504a8800614a88002e
:1021d8001d003700304a8000414a80006011b80075
:1021e800e9fa07000000e00017003a00504a8000b2
:1021f800614a8000e8fa07000000780000f0a700b4
:102208000000ea00cf80de001ffb07000002be00ce
:10221800f04b8000014c800018c0b3000001be00e4
:102228000400be00d8fa07000000e00001003500f5
:102238000044eb000804e000030032006000b8002e
:10224800504a8800614a88004f0478000080fa00ec
:10225800000006000000fa00881f7800f44c800097
:10226800054d8000504580006145800018c0b300ce
:102278000001be000400be00c5fa07000000e0002f
:1022880001003c000044eb000804e00005003200b7
:102298005045800061458000f04c8800014d880061
:1022a80013003700f44c8000054d80005045800035
:1022b8006145800001f0a20018c0b3000001be0013
:1022c8000400be00b0fa07000000e000010035007d
:1022d8000044eb000804e00005003200504580008f
:1022e8006145800001f0a200f04c8800014d880093
:1022f800944d8000a54d80005045800061458000c8
:1023080018c0b3000001be000400be00a0fa070018
:102318000000e00001003c000044eb000804e0007d
:10232800050032005045800061458000904d8800ce
:10233800a14d880013003700944d8000a54d800002
:10234800504580006145800001f0a20018c0b3002c
:102358000001be000400be008bfa07000000e00088
:10236800010035000044eb000804e00005003200dd
:10237800504580006145800001f0a200904d880022
:10238800a14d88004f0478000080fa000000060084
:102398000000fa00889fbe008a9fbe00d84a8000cd
:1023a800e94a80009a4a8000ab4a800030a02000a9
:1023b800104078000000fb00cf80de00b2fa070072
:1023c8000001be000a00be0009fb0700d2cc2c00a9
:1023d800c3e4230006fb07001ac0b3000001be00d7
:1023e8000800be0068fa07000000e00001003500a0
:1023f8000045eb000a04e00024003200f44c8000a1
:10240800054d800050458000614580000001be00f8
:102418000400be005cfa07000000e0000a00320079
:10242800f44c8000054d80005045800061458000d7
:1024380001f0a2000001be000400be0052fa07002d
:102448000000e00055003a00c0a020003002be00a5
:102458002003be0010002000010020006011b80019
:102468000000420081804a0002014b0083814b003a
:10247800c4a02000009abe000292be00b0a02000b6
:1024880011c0b3000148780044003700384b800081
:10249800494b8000fa4a80000b4b800030a0200096
:1024a800104078000000fb00cf80de0076fa0700bd
:1024b8000001be000a00be00cdfa0700d2cc2c00f5
:1024c800c3e42300cafa07001ac0b3000001be0023
:1024d8000800be002cfa07000000e00001003500eb
:1024e8000045eb000a04e00024003200944d80000f
:1024f800a54d800050458000614580000001be0068
:102508000400be0020fa07000000e0000a003200c4
:10251800944d8000a54d80005045800061458000a5
:1025280001f0a2000001be000400be0016fa070078
:102538000000e00019003a00c0a020003002be00f0
:102548002003be0010002000010020006011b80028
:102558000000420081804a0002014b0083814b0049
:10256800c4a02000009abe000292be00b0a02000c5
:1025780011c0b3000148780008003700c4a020004b
:102588006000b8006011b800009abe000292be0058
:10259800b0a020008040eb00014878004f05be0045
:1025a8004f04be000080fa00000006000800fa0090
:1025b800881f78002007980031079800fd01070060
:1025c800b0488000c148800018c0b30002292a0022
:1025d80003712400eef907000000e00001003c0050
:1025e8000044eb000804e00011003200b04880000d
:1025f800c148800002292a0003712400aff80700af
:10260800008fbe0002002000030024001e00be0050
:102618008cf90700008fbe0002292a0003712400ec
:102628001e00be00a6f80700008fbe00030037009a
:10263800b2488000c3488000028fbe0002202200fa
:10264800933324001e00be0069fa0700404088004a
:1026580051408800404080005140800002292a00f3
:102668000371240077f90700404088005140880032
:1026780040408000514080002e019000be01900033
:102688005bfa0700404088005140880040408000c5
:102698005140800002002000832c240069f90700c3
:1026a80040408800514088004040800051408000f0
:1026b80018c0b3006011b800b3f907000000e000cb
:1026c800010035000044eb000804e000050032007a
:1026d800404080005140800001f0a2004040880046
:1026e80051408800404080005140800018c0b3002d
:1026f800c28c2200e33d2400a5f907000000e00099
:1027080001003c000044eb000804e0000500320032
:10271800c08c2200e13d24004040880051408800e0
:102728000f003700404080005140800018c0b300bf
:10273800c28c2200e325240093f907000000e00082
:10274800010035000044eb000804e00004003200fa
:10275800c08c2200e12524004040880051408800b8
:102768004f0478000080fa00000006000000fa001c
:10277800881f7800404080005140800018c0b30096
:1027880002202200933324007ff907000000e000b4
:10279800010035000044eb000804e000540032005a
:1027a800b0488000c148800018c0b3006011b8006c
:1027b80077f907000000e00001003c000044eb004e
:1027c8000804e000250032004040800051408000ad
:1027d800d04b8800e14b8800d04b8000e14b800053
:1027e800020020000304240001fa0700d04b8800ef
:1027f800e14b8800d04b8000e14b80000220220092
:10280800933324000ff90700d04b8800e14b880070
:102818004040800051408000104c8800214c8800c6
:10282800104c8000214c8000020020000308240086
:10283800eff90700104c8800214c8800104c8000ec
:10284800214c80000220220093332400fdf8070069
:10285800104c8800214c8800400037004040800020
:1028680051408000d04b8800e14b8800d04b80005d
:10287800e14b80000200200003082400dcf9070077
:10288800d04b8800e14b8800d04b8000e14b8000a2
:102898000220220093332400eaf80700d04b880076
:1028a800e14b88004040800051408000104c880077
:1028b800214c8800104c8000214c80000200200030
:1028c80003042400caf90700104c8800214c880032
:1028d800104c8000214c80000220220093332400f9
:1028e800d8f80700104c8800214c88001b003700de
:1028f800b0488000c148800018c0b3006011b8001b
:1029080023f907000000e00001003c000044eb0050
:102918000804e0000900320000002000010424003f
:10292800d04b8800e14b88000000200001082400fb
:10293800104c8800214c8800080037000000200057
:1029480001082400d04b8800e14b880000002000db
:1029580001042400104c8800214c8800d04b8000d2
:10296800e14b800018c0b3000200200003fc2300e4
:1029780005f907000000e000010035000044eb0005
:102988000804e000040032000000200001fc2300dd
:10299800d04b8800e14b8800104c8000214c80000f
:1029a80018c0b3000200200003fc2300f8f8070059
:1029b8000000e00001003c000044eb000804e000d7
:1029c800040032000000200001fc2300104c8800a5
:1029d800214c88004f0478000080fa0000000600af
:1029e8000400fa00881f7800008fbe00f10007007d
:1029f80020c0b3009d05070050d22f0031362400b7
:102a08002040880031408800144e8000254e800008
:102a180020408000314080000001be000400be005c
:102a280073f907002040880031408800204080006a
:102a38003140800082462e00b368240081f80700e8
:102a480020408800314088002040800031408000cc
:102a58001e01be0066f9070020408800314088004a
:102a6800204080003140800002002000832c240098
:102a780074f807002040880031408800204080001a
:102a88003140800018c0b3006011b800bef80700dc
:102a98000000e000010035000044eb000804e000fd
:102aa80005003200204080003140800001f0a20083
:102ab800204088003140880020408000314080005c
:102ac80018c0b300c28c2200e33d2400b0f8070010
:102ad8000000e00001003c000044eb000804e000b6
:102ae80005003200c08c2200e13d2400204088000f
:102af800314088000f0037002040800031408000be
:102b080018c0b30052d22f00332624009ef80700c5
:102b18000000e000010035000044eb000804e0007c
:102b28000400320050d22f003126240020408800b3
:102b3800314088004f0478000080fa000000060049
:102b48000000fa00881f7800204080003140800093
:102b580018c0b30052d22f00333624008af8070079
:102b68000000e000010035000044eb000804e0002c
:102b780054003200104e8000214e800018c0b3006f
:102b88006011b80082f807000000e00001003c0076
:102b98000044eb000804e0002500320020408000db
:102ba80031408000b04b8800c14b8800b04b80009a
:102bb800c14b800002002000030824000cf9070024
:102bc800b04b8800c14b8800b04b8000c14b8000df
:102bd80052d22f00333624001af80700b04b880071
:102be800c14b88002040800031408000f04b8800b5
:102bf800014c8800f04b8000014c8000020020004e
:102c0800030c2400faf80700f04b8800014c8800f8
:102c1800f04b8000014c800052d22f003336240044
:102c280008f80700f04b8800014c88004000370086
:102c38002040800031408000b04b8800c14b8800a4
:102c4800b04b8000c14b800002002000030c240020
:102c5800e7f80700b04b8800c14b8800b04b8000f4
:102c6800c14b800052d22f0033362400f5f70700fd
:102c7800b04b8800c14b8800204080003140800064
:102c8800f04b8800014c8800f04b8000014c80001c
:102c98000200200003082400d5f80700f04b880044
:102ca800014c8800f04b8000014c800052d22f006c
:102cb80033362400e3f70700f04b8800014c880006
:102cc8001b003700104e8000214e800018c0b30052
:102cd8006011b8002ef807000000e00001003c0079
:102ce8000044eb000804e000090032000000200066
:102cf80001082400b04b8800c14b88000000200068
:102d0800010c2400f04b8800014c880008003700b3
:102d180000002000010c2400b04b8800c14b880043
:102d28000000200001082400f04b8800014c8800b6
:102d3800b04b8000c14b800018c0b30002002000d7
:102d48000300240010f807000000e000010035002f
:102d58000044eb000804e0000400320000002000fa
:102d680001002400b04b8800c14b8800f04b800064
:102d7800014c800018c0b3000200200003042400a6
:102d880001f807000000e000010035000044eb00f6
:102d98000804e000040032000000200001042400c0
:102da800f04b8800014c88004f0478000080fa003e
:102db800000006000000fa00889fbe0014c8bf008b
:102dc800e24f50008e003a003447800045478000ab
:102dd80070478000814780000001be000400be00eb
:102de800b6f60700304288004142880094478000c8
:102df800a5478000d0478000e14780000001be0061
:102e08000400be00adf60700504288006142880009
:102e18003042800041428000544280006542800078
:102e28000001be000400be0002f7070052dc2100ca
:102e3800236324006ef807001049880021498800a0
:102e480030a0200010407800e14f400019003a00ff
:102e5800104980002149800018c0b3006011b800f3
:102e6800c9f707000000e000010035000044eb004e
:102e78000804e00008003200104980002149800061
:102e880082462e00b37024008df607001049880092
:102e98002149880007003700104980002149800037
:102ea80082462e00b370240084f60700104988007b
:102eb8002149880034428000454280003042800029
:102ec800414280000001be000400be0048f807002f
:102ed8000004be00544280006542800050428000d9
:102ee800614280000001be000400be0040f80700f7
:102ef8000001be000800be0071f60700dbf80700fd
:102f0800b0488800c1488800b8488000c948800097
:102f180030a02000104078000000fb00cf80de00c9
:102f2800d9f707000001be000800be0030f807000e
:102f3800b0488800c14888006000b800f0488800a0
:102f480001498800144980002549800050498000c3
:102f5800614980000001be000400be0057f607006a
:102f680018c0b30082462e00b370240088f707000b
:102f78000000e00001003c000044eb000804e00011
:102f880008003200104980002149800082462e0046
:102f9800b378240049f607001049880021498800c1
:102fa80017003700144980002549800050498000e7
:102fb800614980000001be000400be003ff6070022
:102fc80018c0b30082462e00b3702c006ef70700bd
:102fd8000000e000010035000044eb000804e000b8
:102fe80007003200104980002149800082462e00e7
:102ff800b378240032f60700104988002149880078
:103008004f04be000080fa00000006000000fa002d
:103018006000b800b04e8800c14e88006000b8005b
:10302800d04e8800e14e88006000b800104f88003c
:10303800214f88006000b800504f8800614f880019
:103048006000b800704f8800814f88006000b800a9
:10305800b04f8800c14f88006000b8003048880031
:10306800414888006000b80090488800a14888005e
:1030780020a0200011c0b300014878000080fa00a9
:10308800000006000000fa006000b800d04c88007c
:10309800e14c88006000b800f04c8800014d8800c1
:1030a8006000b800304d8800414d88006000b800cd
:1030b800704d8800814d88006000b800904d8800f0
:1030c800a14d88006000b800d04d8800e14d88000f
:1030d8006000b800d04a8800e14a88006000b80063
:1030e800904a8800a14a88006000b800b04a880069
:1030f800c14a88006000b800304b8800414b880006
:103108006000b800f04a8800014b88006000b800f1
:10311800104b8800214b88006000b800b049880037
:10312800c14988006000b80070498800814988005a
:103138006000b80090498800a14988006000b80084
:10314800104a8800214a88006000b800d0498800e9
:10315800e14988006000b800f0498800014a880009
:10316800b0a020008040eb000148780020a020009b
:1031780021c0b300014878000080fa000000060072
:103188000000fa0040a0200021c0b30001487800e8
:1031980050a0200041c0b3000148780070a0200072
:1031a80011c0b300014878000080fa000000060052
:1031b8000000fa006000b800904a8800a14a880020
:1031c8006000b800f04a8800014b880040a0200049
:1031d80010407800e24f500036003a0050a020001e
:1031e80010407800e44f500032003a0070a02000f0
:1031f80010407800e14f50002e003200d2a2a90002
:10320800c0a020003002be002003be001000200035
:10321800010020006011b8000000420081804a00cf
:1032280002014b0083814b00c4a02000009abe001d
:103238000292be0080a0200010407800e14f5000ac
:1032480005003a0020a0200010407800e24f50000e
:1032580001003a006dff0700c0a020003002be0048
:103268002003be00e08a20005001be004000be00de
:103278000020e10001a8e10002b0e10003b8e1008c
:103288000400390070a0200011c0b3000148780084
:103298001b00370080a0200010407800e24f50004b
:1032a80016003a0070a0200011c0b3000148780051
:1032b80013003700c0a020003002be002003be006b
:1032c80060092000010020006011b8000020e10022
:1032d80001a8e10002b0e10003b8e10008003600ef
:1032e80040a0200021c0b3000148780050a0200071
:1032f80041c0b30001487800010037000000000019
:1033080070a0200010407800e14f50000800320003
:1033180040a0200010407800e64f5000080032001e
:1033280050a0200010407800e64f50000400320002
:1033380020a0200010407800e14f500032003a00f1
:1033480020a0200010407800e24f500018003a00fa
:10335800f09f200010407800e14f500001003a0033
:10336800d500070010a0200010407800e14f500061
:1033780001003a002402070000a020001040780055
:10338800e14f50000a003a00f09f200010407800fa
:10339800e14f500001003a00c501070010a02000cd
:1033a80010407800e14f500001003a00bc020700cd
:1033b80028fa070020a0200010407800e24f5000b3
:1033c80003003a000040eb00280307000100370023
:1033d80019000700c5fa0700c08020001000be00d1
:1033e8000001be000040eb00ec170700c080200081
:1033f800b0009000200090000001be0010c0b30093
:10340800e61707000a00370080a020001040780067
:10341800e14f500006003a006011b8000040eb0090
:10342800de1707006011b80010c0b300db170700f3
:103438000080fa00000006000000fa00889fbe0025
:103448003048800041488000b04e8800c14e880056
:1034580090488000a1488000504f8800614f880044
:10346800d44e8000e54e8000b04e8000c14e8000f2
:103478000001be000400be0011f50700d04e880010
:10348800e14e8800744f8000854f8000504f8000c7
:10349800614f80000001be000400be0008f507006f
:1034a800704f8800814f8800d04e8000e14e800028
:1034b80018c0b30002002000a33f240034f6070020
:1034c8000000e00001003c000044eb000804e000bc
:1034d8000400320000002000a13f2400d04e8800e4
:1034e800e14e8800704f8000814f800018c0b30003
:1034f80002002000a33f240025f607000000e0009a
:1035080001003c000044eb000804e0000400320025
:1035180000002000a13f2400704f8800814f8800e0
:10352800d04e8000e14e800018c0b3000200200099
:10353800a33f2c0014f607000000e000010035004e
:103548000044eb000804e000040032000000200002
:10355800a13f2c00d04e8800e14e8800704f8000bb
:10356800814f800018c0b30002002000a33f2c0048
:1035780005f607000000e000010035000044eb00fc
:103588000804e0000400320000002000a13f2c00e5
:10359800704f8800814f8800b04e8000c14e800077
:1035a800d2cc2c00c3d4230091f607000004be003f
:1035b800d04e8000e14e800072712b00138d2300e5
:1035c8008bf607000001be000800be00bcf407002f
:1035d8000004be00b44e8000c54e8000104f80002d
:1035e800214f80000001be000400be00b3f40700b4
:1035f8000200200003f023007df607000001be0052
:103608000800be00aef40700c28020000089be009a
:10361800504f8000614f8000d2cc2c00c3d42300cf
:1036280073f607000004be00704f8000814f8000d1
:1036380072712b00138d23006df607000001be0088
:103648000800be009ef407000004be00544f80002e
:10365800654f8000b04f8000c14f80000001be0060
:103668000400be0095f407000200200003f02300c8
:103678005ff607000001be000800be0090f40700d6
:10368800c28020002001980031019800b04e8000cf
:10369800c14e8000104f8800214f8800504f800095
:1036a800614f8000b04f8800c14f88004f04be00b2
:1036b8000080fa00000006000000fa00881f780069
:1036c800bcfd070010c0b30068020700d0418800a5
:1036d800e141880014c8bf00e14f500011003a00d2
:1036e800d0418000e141800018c0b3006011b800eb
:1036f800a5f507000000e000010035000044eb00dc
:103708000804e0000400320030a0200080c0eb0074
:10371800014878000300370030a0200011c0b30032
:103728000148780030a02000104078000000fb001d
:10373800cf80de00d4f507000002be00d041800033
:10374800e14180000001be000400be0028f6070029
:1037580018c0b30032b32100433124008cf50700b0
:103768000000e00001003c000044eb000804e00019
:10377800c000320030a02000104078000000fb009c
:10378800cf80de00c0f507000002be00d0418000f7
:10379800e14180000001be000400be0014f60700ed
:1037a80018c0b30002982d00a350240076f5070036
:1037b8000000e000010035000044eb000804e000d0
:1037c8001d00320010a0200021c0b300014878007d
:1037d800344c8000454c8000904c8000a14c800007
:1037e80018c0b3000001be000400be0068f5070061
:1037f8000000e00001003c000044eb000804e00089
:103808000d003200f09f200021c0b300014878006d
:1038180010a0200021c0b3000148780050a020006b
:1038280041c0b3000148780040a0200021c0b30087
:10383800014878009b00370080a0200010407800e5
:10384800e24f50001b003a0030a0200010407800e2
:103858000000fb00cf80de008bf507000002be00f1
:10386800d0418000e14180000001be000400be009c
:10387800dff5070018c0b30002fe2800d362240059
:1038880041f507000000e000010035000044eb00ae
:103898000804e0000700320040a0200021c0b30067
:1038a8000148780050a0200041c0b30001487800ca
:1038b8007c00370050a0200061c0b30001487800a8
:1038c800d0418000e141800018c0b3006011b80009
:1038d8002ff507000000e00001003c000044eb0069
:1038e8000804e0000500320040408000514080009c
:1038f800504b8800614b88000f003700d041800092
:10390800e141800018c0b3006011b8001ef507003f
:103918000000e000010035000044eb000804e0006e
:1039280005003200404080005140800001f0a200b4
:10393800504b8800614b880080a020001040780020
:10394800e14f500057003a00d4418000e541800023
:10395800704b8000814b80000001be000400be0057
:10396800b8f40700f041880001428800744b8000d9
:10397800854b8000104c8000214c80000001be0067
:103988000400be00aff407001042880021428800fe
:1039980010428000214280000200200003fa230028
:1039a800a8f40700104288002142880010428000d5
:1039b8002142800018c0b3006011b800f2f407007b
:1039c8000000e000010035000044eb000804e000be
:1039d80005003200104280002142800001f0a20060
:1039e8001042880021428800f04180000142800096
:1039f80018c0b3006011b800e3f407000000e0004d
:103a0800010035000044eb000804e0000500320026
:103a1800f04180000142800001f0a200f0418800de
:103a2800014288001442800025428000f041800055
:103a38000142800018c0b3000001be000400be00af
:103a4800d3f407000000e00001003c000044eb0054
:103a58000804e00013003200a0a0200061c0b300f9
:103a6800014878006000b800504b8800614b88001e
:103a78000c00370050a0200041c0b3000148780076
:103a8800f09f200021c0b3000148780010a020005a
:103a980021c0b3000148780040a0200021c0b30035
:103aa800014878004f0478000080fa000000060002
:103ab8000000fa00881f7800a0a0200010407800bd
:103ac800e74f500006003200304a8000414a80002b
:103ad8006011b800acf407000000e0002f003a00c5
:103ae800744b8000854b8000504b8000614b8000f8
:103af80018c0b3000001be000400be00a2f4070015
:103b08000000e000010035000044eb000804e0007c
:103b18000a003200744b8000854b8000d04b800037
:103b2800e14b80000001be000400be0064f3070002
:103b3800704b8800814b880016003700744b80005a
:103b4800854b8000504b8000614b800018c0b3004b
:103b58000001be000400be008df407000000e00074
:103b680001003c000044eb000804e00009003200ba
:103b7800744b8000854b8000104c8000214c8000e5
:103b88000001be000400be004cf30700704b880023
:103b9800814b880010c0b3001bf9070010a020005b
:103ba80010407800e14f500002003a0030c0b300e6
:103bb8002e010700944a8000a54a8000704b8000bf
:103bc800814b80000001be000400be003cf30700ea
:103bd800904a8800a14a8800f44a8000054b80007a
:103be800704b8000814b80000001be000400be00c5
:103bf80033f30700f04a8800014b88004f0478002f
:103c08000080fa00000006000000fa00881f780013
:103c180020c0b30015010700704188008141880069
:103c2800704180008141800018c0b300f2a82200d2
:103c3800f321240056f407000000e00001003c00d6
:103c48000044eb000804e0000b003a0070418000db
:103c58008141800018c0b300f2a82200f3212c0093
:103c680049f407000000e000010035000044eb00c3
:103c78000804e0007e00320040a0200061c0b300cc
:103c880001487800704180008141800018c0b3006d
:103c98006011b8003ef407000000e00001003c009d
:103ca8000044eb000804e0000e00320020408000d1
:103cb80031408000304a8800414a8800544a8000d8
:103cc800654a8000f04b8000014c80000001be0076
:103cd8000400be00dbf3070090418800a141880082
:103ce80018003700704180008141800018c0b3007f
:103cf8006011b80024f407000000e000010035005e
:103d08000044eb000804e0000e0032002040800070
:103d18003140800001f0a200304a8800414a880002
:103d2800544a8000654a8000b04b8000c14b800037
:103d38000001be000400be00c2f3070090418800e5
:103d4800a14188007441800085418000504a80006c
:103d5800614a80000001be000400be00b9f30700fc
:103d6800b0418800c141880090418000a141800095
:103d780018c0b3006011b80003f407000000e000a9
:103d8800010035000044eb000804e00005003200a3
:103d980090418000a141800001f0a200904188007c
:103da800a1418800b0418000c141800018c0b30023
:103db8006011b800f4f307000000e00001003500ce
:103dc8000044eb000804e00005003200b041800028
:103dd800c141800001f0a200b0418800c1418800c3
:103de80094418000a5418000b0418000c14180001d
:103df80018c0b3000001be000400be00e4f30700d1
:103e08000000e00001003c000044eb000804e00072
:103e18002000320060a02000104078000004e0007c
:103e280003003a0090a0200061c0b3000148780068
:103e380060a0200010407800e34f500008003a00ce
:103e480080a0200010407800e24f500004003a00a3
:103e580040a0200021c0b300014878000d003700c1
:103e68006000b800304a8800414a880009003700dd
:103e78006000b800504a8800614a880040a02000cd
:103e880021c0b3000148780090a0200071c0b300a1
:103e9800014878004f0478000080fa00000006000e
:103ea8000000fa00881f780090a0200010407800d9
:103eb800e74f500006003200304a8000414a800037
:103ec8006011b800b0f307000000e0002f003a00ce
:103ed800544a8000654a8000304a8000414a800088
:103ee80018c0b3000001be000400be00a6f307001e
:103ef8000000e000010035000044eb000804e00089
:103f08000a003200544a8000654a8000b04b8000a5
:103f1800c14b80000001be000400be0068f207002b
:103f2800504a8800614a880016003700544a8000c9
:103f3800654a8000304a8000414a800018c0b300ba
:103f48000001be000400be0091f307000000e0007d
:103f580001003c000044eb000804e00009003200c6
:103f6800544a8000654a8000f04b8000014c800074
:103f78000001be000400be0050f20700504a88004d
:103f8800614a880020c0b3001ff80700944a8000e7
:103f9800a54a8000504a8000614a80000001be00a6
:103fa8000400be0046f20700904a8800a14a880033
:103fb800f44a8000054b8000504a8000614a800026
:103fc8000001be000400be003cf20700f04a880071
:103fd800014b88004f0478000080fa0000000600ba
:103fe8000000fa006066260061ee2300f0448800b5
:103ff80001458800a0702d0031ca230010458800b3
:10400800214588000000200001e823003045880091
:10401800414588000000200001f823007046880010
:10402800814688006000b80090468800a146880054
:104038006000b800b0468800c14688000000200033
:1040480001f82300b0458800c14588006000b80029
:10405800d0458800e14588006000b800f045880038
:10406800014688000080fa00000006000200fa00fd
:10407800889fbe00004f78001e4078000004e000d2
:104088007a003a00944a8000a54a8000d04a80000d
:10409800e14a80000001be000400be0007f20700ec
:1040a800d04c8800e14c8800f44c8000054d80001d
:1040b800d04c8000e14c80000001be000400be002e
:1040c800fff10700f04c8800014d8800f44a800099
:1040d800054b8000304b8000414b80000001be0042
:1040e8000400be00f5f10700704d8800814d88007e
:1040f800944d8000a54d8000704d8000814d80005a
:104108000001be000400be00edf10700904d8800dc
:10411800a14d88004ff807009df80700d44c800097
:10412800e54c8000f0448000014580000001be009d
:104138000400be00aef307000004be00f44c80008b
:10414800054d800010458000214580000001be001b
:104158000400be00a6f307000001be000800be0070
:10416800d7f107000004be00d44c8000e54c800065
:10417800304d8000414d80000001be000400be00ab
:10418800cef107000002be003045800041458000a6
:104198000001be000400be0095f307000001be0048
:1041a8000800be00c6f10700c28020000089be00da
:1041b800744d8000854d8000f044800001458000ea
:1041c8000001be000400be0089f307000004be0021
:1041d800944d8000a54d8000104580002145800049
:1041e8000001be000400be0081f307000001be000c
:1041f8000800be00b2f107000004be00744d800044
:10420800854d8000d04d8000e14d80000001be004a
:104218000400be00a9f107000002be00304580007e
:10422800414580000001be000400be0070f3070095
:104238000001be000800be00a1f10700c2802000f6
:104248002001980031019800d04c8000e14c80009a
:10425800304d8800414d8800704d8000814d8000b0
:10426800d04d8800e14d8800c20037001e4078001c
:10427800e14f50001d003a00b4488000c548800056
:10428800f0488000014980000001be000400be0023
:104298008af10700304c8800414c8800544c80005b
:1042a800654c8000304c8000414c80000001be000d
:1042b8000400be0082f10700504c8800614c880061
:1042c800304c8000414c80003041880041418800da
:1042d800304c8000414c8000904c8800a14c8800f4
:1042e8003041800041418000a30037001e40780023
:1042f800e24f500062003a001449800025498000ce
:1043080050498000614980000001be000400be00e1
:104318006af10700104e8800214e88000700370018
:10432800104e8000214e800082462e00b378240073
:1043380062f10700104e8800214e8800104e800060
:10434800214e800018c0b30082462e00b3702400ae
:104358008ff207000000e00001003c000044eb0081
:104368000804e000eeff3a0007003700104e800016
:10437800214e800082462e00b378240050f10700b9
:10438800104e8800214e8800104e8000214e80007b
:1043980018c0b30082462e00b3702c007af20700d2
:1043a8000000e000010035000044eb000804e000d4
:1043b800eeff3a00344e8000454e8000104e8000db
:1043c800214e80000001be000400be003cf1070041
:1043d800304e8800414e8800304e8000414e8000ab
:1043e80018c0b30082462e00b370240068f207009c
:1043f8000000e00001003c000044eb000804e0007d
:104408000500320080462e00b1702400304e88002e
:10441800414e88000f003700304e8000414e80002a
:1044280018c0b30082462e00b3702c0056f2070065
:104438000000e000010035000044eb000804e00043
:104448000400320080462e00b1702c00304e8800e7
:10445800414e8800104e8000214e80005041880057
:1044680061418800104e8000214e8000704e880007
:10447800814e880050418000614180003e00370035
:104488001e407800e34f50003a003a00104e80007a
:10449800214e800018c0b3006011b8003cf207003c
:1044a8000000e00001003c000044eb000804e000cc
:1044b80008003200104e8000214e800082462e00f7
:1044c800b3702400dff10700004088001140880025
:1044d80008003700104e8000214e800001f0a20035
:1044e80082462e00b3702400d6f1070000408800f1
:1044f8001140880060a0200010407800e24f500072
:104508000b003a00a0a0200010407800e74f5000b0
:1045180007003a000040800011408000d2cc2c00f7
:10452800c3d42300b2f2070000408800114088007d
:1045380000408000114080000001be000000200003
:1045480001f82300ddf007000040880011408800d2
:10455800744b8000854b8000004080001140800033
:104568000001be000400be00a1f20700704b8800e5
:10457800814b88006000b8004f04be000080fa003c
:10458800000006000000fa00889fbe00100020000e
:104598009b1507002000200099150700305d80005a
:1045a800415d800038f20700d254210003f823004f
:1045b8008ff20700f8f10700305d8800415d880040
:1045c800705d8000815d80002ff2070022f32800d3
:1045d80003f8230086f20700eff10700705d8800fa
:1045e800815d8800325d8000435d8000705d8000e1
:1045f800815d800000005100818059004f09de0074
:104608008001eb0002004000838048008180d100d7
:104618000080d300b0408800c1408800325d80002f
:10462800435d8000705d8000815d80000200400075
:10463800838048004f09de008001eb000200400043
:10464800838048008180d1000080d300d04088005a
:10465800e140880020a0200010407800e14f500081
:1046680014003a003848800049488000305d8000d6
:10467800415d800004f207000001be000800be0092
:104688008ef007003048880041488800984880002c
:10469800a9488000705d8000815d8000faf1070004
:1046a8000001be000800be0084f0070090488800a2
:1046b800a1488800f848800009498000d04080005f
:1046c800e1408000f0f107000001be000800be00d4
:1046d8007bf00700f048880001498800d04080003e
:1046e800e1408000e8f10700904b8800a14b88006a
:1046f800305d8000415d8000e3f10700d04a88000a
:10470800e14a8800705d8000815d8000def107006d
:10471800304b8800414b8800b0408000c140800089
:10472800d9f10700704a8800814a880058498000fa
:1047380069498000b0408000c1408000d2f1070084
:104748000001be000800be005df007005049880067
:1047580061498800504980006149800018c0b30051
:1047680082462e00b370240089f107000000e000a3
:1047780001003c000044eb000804e000080032009f
:10478800504980006149800082462e00b378240099
:104798004af0070050498800614988001200370034
:1047a800504980006149800018c0b30082462e003d
:1047b800b3702c0074f107000000e0000100350020
:1047c8000044eb000804e000070032005049800074
:1047d8006149800082462e00b378240038f0070033
:1047e800504988006149880050498000614980002b
:1047f80052dc21002363240012f107009044880052
:10480800a144880090448000a14480000bf1070077
:104818000004be00d0408000e14080009af107000b
:104828000001be000800be00f1f10700f04088005a
:104838000141880090448000a144800089f207006b
:104848000004be00d0408000e14080008ef10700e7
:104858000001be000800be00e5f107001041880015
:10486800214188007447800085478000f04080001f
:10487800014180000001be000400be0010f00700e6
:104888007047880081478800d4478000e54780004a
:1048980010418000214180000001be000400be00dc
:1048a80007f00700d0478800e1478800b844800037
:1048b800c9448000f04080000141800002f22300da
:1048c800d3c52300caf107000001be000800be00de
:1048d800fbef0700b0448800c1448800d84480003a
:1048e800e9448000104180002141800002f2230049
:1048f800d3c52300bef107000001be000800be00ba
:10490800efef0700d0448800e1448800904480001d
:10491800a14480000200200043332400b4f10700c2
:10492800b2fd200093042400c6f0070070448800fc
:10493800814488004f04be000080fa000000060091
:104948000600fa00004f7800120798002307980025
:104958001e407800e14f500024003a001e009000ed
:10496800ae0090004a0007004011880021e2a9002b
:1049780022a2a900101180000060a1000070a1000f
:10498800101188002362a90023c2a90023a2a9004c
:1049980023e2a90022c2a90022e2a9002002a9005c
:1049a800001180000010a1000020a1000011880063
:1049b8002062a8002082a90020a2a90020c2a90084
:1049c80020e2a900001180000080a1000090a10051
:1049d800001188002162a9002182a90021a2a90052
:1049e80021e2a8002342a800270037001e407800d3
:1049f800e34f500024003a001e009000ae009000e3
:104a080023000700c011880031e2a90032a2a900e2
:104a1800901180000060a1000070a1009011880032
:104a28003362a90033c2a90033a2a80033e2a90067
:104a380032c2a90032e2a9003002a9008011800028
:104a48000010a1000020a100801188003062a80099
:104a58003082a90030a2a90030c2a90030e2a90022
:104a6800801180000080a1000090a10080118800c2
:104a78003162a9003182a90031a2a90031e2a8005f
:104a88003342a800c202a8000080fa000000060015
:104a98000400fa00008fbe001e00be0002d42000f1
:104aa80033002000820f5000838f580042003200ec
:104ab80002d4200033002000820f5000838f58005a
:104ac8001b003e0002b0240003002000820f5000ab
:104ad800838f58003e00320002b0240003002000fb
:104ae800820f5000838f580006003e0002582200b3
:104af80003002000820f5000838f580036003200d8
:104b08003700370002102e0003002000820f5000eb
:104b1800838f58002c00320002202c001300200044
:104b2800820f5000838f5800250032002c00370078
:104b380002a8210063002000820f5000838f5800d4
:104b48001900320002a8210063002000820f5000e3
:104b5800838f580006003e0002092d003300200014
:104b6800820f5000838f5800110032001c0037005c
:104b780002122a0073002000820f5000838f580011
:104b88000700320002242400f3002000820f5000a6
:104b9800838f580012003a00900020001a00370056
:104ba800300120001800370080012000160037006f
:104bb8007002200014003700100320001200370094
:104bc8006005200010003700d00a20000e003700d2
:104bd800802020000c003700104120000a00370018
:104be8001e00be006011b8000203be000002be0035
:104bf80000682900810920006011b80084f20700cc
:104c0800000078000000e9000080fa0000000600bb
:104c18000600fa00004f7800120798002307980052
:104c28001e407800e14f500007003a0021e2a90039
:104c38001e009000ae00900095ff0700401188000c
:104c480021e2a8000600370031e2a9001e0090000a
:104c5800ae0090008eff0700c011880031e2a80066
:104c68000080fa00000006000400fa0020479800bf
:104c78002e409000e34f50000b003a00020037002e
:104c8800b0118000004f7800901180006100600032
:104c98000000e000faff3a000800370030118000f9
:104ca800004f78000100370000000000101180005c
:104cb800610060000000e000f8ff3a000080fa00a0
:104cc800000006000200fa00004f78001147980023
:104cd8001e407800e14f50000a003a000000000032
:104ce8001111800000202000008060000000e0001a
:104cf800fbff3a001e4090000080fb002011880056
:104d08000f0037001e407800e34f50000c003a00b7
:104d180060a220008040eb000148780000000000fd
:104d28009111800000202000008060000000e00059
:104d3800fbff3a001e4090000080fb00a011880095
:104d48000080fa00000006000400fa00004f780016
:104d5800110798001e0090001040780080407800ed
:104d68001e407800d7ff07001e0090001040780012
:104d78000080fb000000ea004f00de0000407800e1
:104d88009e0090008100e800110798000004e000f0
:104d9800f0ff3a000080fa00000006000800fa0060
:104da8002047980021079800320798000000eb0080
:104db800000f7800160037002e409000e14f500099
:104dc80008003a001e007800ae0090000080400005
:104dd800104078008040780010c0b300b9ff070089
:104de8000a0037002e409000e34f500007003a00b9
:104df8001e007800ae00900000804000104078004f
:104e08008040780030c0b300aeff07001e0fe800f6
:104e18009e0078003e009000808f5000e6ff390029
:104e28000080fa00000006000e00fa0060079800f3
:104e38000000eb00000f78006e0090000000e0001a
:104e480008003d006e0090000000ea00600798002e
:104e580010bc20001e004000d1c2b30001487800f9
:104e68001e0fe800ee00900000712200000178009b
:104e7800110009008200d800100798009e009000d9
:104e8800008f2d000088b900800078006e00900027
:104e980080804000803e2000000178001100090059
:104ea8008200d800200798009e009000008f2d00f7
:104eb8000088b90000017800ae00900080c12f0082
:104ec8000088b90000007800800041006e00900062
:104ed8008080400040062000000178001100090091
:104ee8008200d800300798009e009000008f2d00a7
:104ef8000088b90000017800ae00900080c12f0042
:104f08000088b90000007800800041006e00900021
:104f180000814000be009000c0f92f000088b90051
:104f28000000780080004100a00020000001780007
:104f3800110009008200d800400798009e009000e8
:104f4800008f2d000088b90000017800ae009000a5
:104f580080c12f000088b90000007800800041005f
:104f68006e00900000814000ce00900060ff2f008e
:104f78000088b90080017800be009000c0f92f00b9
:104f88000088b9000000780000804100000041005e
:104f9800500798001e009000004078000043b000c1
:104fa8008040780010bc20001e00400001487800b6
:104fb8001e0fe8002e009000004078000043b0006b
:104fc8008040780010bc20001e0040000148780096
:104fd8001e0fe8003e009000004078000043b0003b
:104fe8008040780010bc20001e0040000148780076
:104ff8001e0fe8004e009000004078000043b0000b
:105008008040780010bc20001e0040000148780055
:105018001e0fe8005e009000004078000043b000da
:105028008040780010bc20001e0040000148780035
:105038001e0fe80010bc20001e0040008040eb005e
:10504800014878001e0fe80010bc20000080fa001c
:10505800000006002e00fa00889fbe005017980036
:10506800611798000000eb00000f78005e109000b8
:10507800ee109000e00f5000e08f58000b003d004c
:105088005e109000ee10900060001000e0801800a4
:10509800501798006117980020bb20001e004000a0
:1050a800d1c2b300014878001e0fe8005e109000de
:1050b800ee10900002a02c00a3b9230023ef0700f4
:1050c80010079800210798001e009000ae0090007d
:1050d800026023000289b9000201780053462c00bf
:1050e8000382b900840178000301410003602300b2
:1050f8000300b80001014100820078005e119000b1
:10510800ee119000000041008180490002102e003d
:10511800535f20000def0700300798004107980003
:105128001e009000ae009000026023000289b900c2
:105138000202780052462c000281b9000201780070
:1051480002024200026023000201b800030242008a
:10515800840178003e009000ce00900004f0210009
:10516800048ab90004027800a5a02f000583b900bd
:10517800860278000502420005f021000500b8000b
:105188000102420084007800020140008381480047
:105198005e109000ee1090000200400083804800ee
:1051a8000268290083092000e8ee070050079800ec
:1051b800610798001e009000ae0090000260230076
:1051c8000289b9000202780052462c000281b90017
:1051d8000201780002024200026023000201b800c6
:1051e80003024200840178003e009000ce00900047
:1051f80004f02100048ab90004027800a5a02f0059
:105208000583b900860278000502420005f02100f6
:105218000500b80001024200840078000201400045
:10522800838148005e109000ee109000020240005a
:10523800838248005e009000ee00900002982600ed
:105248000289b9000201780073f62f000383b900c0
:105258008601780003014100039826000300b80086
:105268000101410082007800040040008580480068
:1052780002242400f3002000b4ee07007007980011
:10528800010f98001e009000ae00900002602300fd
:105298000289b9000202780052462c000281b90046
:1052a8000201780002024200026023000201b800f5
:1052b80003024200840178003e009000ce00900076
:1052c80004f02100048ab90004027800a5a02f0088
:1052d8000583b900860278000502420005f0210026
:1052e8000500b80001024200840078000201400075
:1052f800838148005e109000ee1090000203400089
:10530800838348007e0090008e08900002dc2b000a
:105318000289b9000202780002ff2f000281b90059
:10532800020178000202420002dc2b000201b800f0
:1053380003024200840178005e009000ee009000b5
:1053480004982600048ab9000402780075f62f0034
:105358000584b900880278000502420005982600f5
:105368000500b800010242008400780002004000f5
:10537800838048000600400087804800026a2800b1
:105388001300200071ee0700100f9800210f9800fd
:105398001e009000ae009000026023000289b90050
:1053a8000202780052462c000281b90002017800fe
:1053b80002024200026023000201b8000302420018
:1053c800840178003e009000ce00900004f0210097
:1053d800048ab90004027800a5a02f000583b9004b
:1053e800860278000502420005f021000500b80099
:1053f80001024200840078000201400083814800d5
:105408005e109000ee109000020340008383480075
:105418007e0090008e08900002dc2b000289b90003
:105428000202780002ff2f000281b9000201780011
:105438000202420002dc2b000201b8000302420013
:10544800840178005e009000ee0090000498260029
:10545800048ab9000402780075f62f000584b900a3
:105468008802780005024200059826000500b80069
:105478000102420084007800020040008380480056
:1054880006024000878248001e089000ae0890007f
:10549800029627000289b90002017800e3ff2f0075
:1054a8000383b900860178000301410003962700b1
:1054b8000300b800010141008200780004004000a8
:1054c8008580480002712200030020001fee0700bb
:1054d800300f9800410f98001e009000ae00900019
:1054e800026023000289b9000202780052462c00ab
:1054f8000281b90002017800020242000260230022
:105508000201b80003024200840178003e009000c6
:10551800ce00900004f02100048ab900040278004b
:10552800a5a02f000583b900860278000502420075
:1055380005f021000500b80001024200840078004f
:1055480002014000838148005e109000ee10900038
:1055580002034000838348007e0090008e0890007c
:1055680002dc2b000289b9000202780002ff2f003a
:105578000281b900020178000202420002dc2b001d
:105588000201b80003024200840178005e00900026
:10559800ee00900004982600048ab90004027800fe
:1055a80075f62f000584b9008802780005024200cc
