:020000040000fa
:080000000002040000000000f2
:020000040000fa
:10000800a8040000a8040000a8040000a804000038
:10001800a8040000a8040000a8040000a804000028
:10002800a8040000a8040000a80400009a02000028
:10003800a8040000a8040000a8040000a804000008
:1000480014030000a8040000a80400003a040000fb
:10005800a8040000a8040000a8040000a8040000e8
:10006800a8040000a8040000a8040000a8040000d8
:10007800a8040000a8040000a8040000a8040000c8
:10008800a8040000a8040000a8040000ac030000b5
:10009800d0030000a80400007404000096040000c7
:1000a800a8040000a8040000a8040000a804000098
:1000b800a8040000a8040000a8040000a804000088
:1000c800a8040000a8040000a8040000a804000078
:1000d800a8040000a8040000a8040000a804000068
:1000e800a8040000a8040000a8040000a804000058
:1000f800a8040000a8040000a8040000a804000048
:10010800a8040000a8040000f2030000a8040000ee
:10011800a8040000a8040000a8040000a804000027
:10012800a8040000a8040000a8040000a804000017
:10013800a8040000a8040000a8040000a804000007
:10014800a8040000a8040000a80400001604000089
:10015800a8040000a8040000a8040000a8040000e7
:10016800a8040000a8040000a8040000a8040000d7
:10017800a8040000a8040000a8040000a8040000c7
:10018800a8040000a8040000a8040000a8040000b7
:10019800a8040000a8040000a8040000a8040000a7
:1001a800a8040000a8040000a8040000a804000097
:1001b800a8040000a8040000a8040000a804000087
:1001c800a8040000a8040000a8040000a804000077
:1001d800a8040000a8040000a8040000a804000067
:1001e800a8040000a8040000a8040000a804000057
:0801f800a8040000a8040000a7
:020000040000fa
:10020800a8040000a8040000a8040000a804000036
:10021800a8040000a8040000a8040000a804000026
:10022800a8040000a8040000a80400009a02000026
:10023800a8040000a8040000a8040000a804000006
:1002480014030000a8040000a80400003a040000f9
:10025800a8040000a8040000a8040000a8040000e6
:10026800a8040000a8040000a8040000a8040000d6
:10027800a8040000a8040000a8040000a8040000c6
:10028800a8040000a8040000a8040000ac030000b3
:10029800d0030000a80400007404000096040000c5
:1002a800a8040000a8040000a8040000a804000096
:1002b800a8040000a8040000a8040000a804000086
:1002c800a8040000a8040000a8040000a804000076
:1002d800a8040000a8040000a8040000a804000066
:1002e800a8040000a8040000a8040000a804000056
:1002f800a8040000a8040000a8040000a804000046
:10030800a8040000a8040000f2030000a8040000ec
:10031800a8040000a8040000a8040000a804000025
:10032800a8040000a8040000a8040000a804000015
:10033800a8040000a8040000a8040000a804000005
:10034800a8040000a8040000a80400001604000087
:10035800a8040000a8040000a8040000a8040000e5
:10036800a8040000a8040000a8040000a8040000d5
:10037800a8040000a8040000a8040000a8040000c5
:10038800a8040000a8040000a8040000a8040000b5
:10039800a8040000a8040000a8040000a8040000a5
:1003a800a8040000a8040000a8040000a804000095
:1003b800a8040000a8040000a8040000a804000085
:1003c800a8040000a8040000a8040000a804000075
:1003d800a8040000a8040000a8040000a804000065
:1003e800a8040000a8040000a8040000a804000055
:0803f800a8040000a8040000a5
:020000040000fa
:10040000ef9c21000e7f24000e01880000000000f8
:10041000000020000000e000020032000001200087
:10042000200288000c000700a0c428000100200062
:1004300011000700000020000000e0000200320070
:100440000000020000000000b88c02000000000064
:100450000040da000000fe004440a9002001200016
:100460000000e0000300320000002000a00188002e
:100470004440a80000000600910188008000780038
:100480000000eb0015003700e280400032a0b4000d
:100490009101ba00e280400032a0b4009102ba009b
:1004a000e280400032a0b4000002eb00472bde00e7
:1004b000f507b200602ce10004003a000059eb009f
:1004c0008301e900fdff3e00040037006128e100e0
:1004d000010032000082eb00040007001101ba00a5
:1004e0000200e000e8ff3a00000006003159ba00bf
:1004f0008301e9000c0032002159ba008301e900b0
:10050000080032000400e00003003a00e2804000ee
:1005100032a0b400f5ff370011d9ba008301e90019
:10052000faff3a008100e800e180400032a0b40008
:10053000000006003600f800809fbe00829fbe00cb
:10054000849fbe00869fbe000000fa008460a90060
:10055000e62f07002098210010407800e14f50005e
:1005600001003a00ef2a0700404480000000e80044
:10057000404488004144800040062000808f5000a5
:1005800013003a0090448000e10f500002003a004e
:100590009228ef00020037001000200090448800ed
:1005a0009044800000407800614060000080fb00c3
:1005b000610060004200dd0092168000b1ff2f0054
:1005c0008100610001007000901688008828ef000b
:1005d000a0448000e10f50000a003a007043800000
:1005e0000000e8007043880071438000c0122000c2
:1005f000808f500004003600c01220007043880035
:10060000010037006e28ef00000000000080fa00b3
:100610004f03be004f02be004f01be004f00be00a0
:100620003600f900004006003600f800809fbe004a
:10063000829fbe00849fbe00869fbe000000fa001d
:100640005ac8bf000040e8005ae8b700a185200062
:100650009140780060c3b30080cf500006003600a0
:1006600087c8bf000004e00003003a0010c0b300d8
:1006700087e8b70030003700a1852000914078005e
:1006800040c5b30080cf50000600360087c8bf00c9
:10069000e14f500003003a0020c0b30087e8b700e4
:1006a00025003700a18520009140780090c5b30057
:1006b00080cf500020003600d2a2a90094e0a9000b
:1006c0009460a9009760a9009780a9009b40a900a9
:1006d0009d60a900c2e2a9001fe1a90005e1a900ef
:1006e00011e1a90021e1a9006011b8000040eb0070
:1006f000924207006011b80010c0b3008f4207009b
:100700006011b80020c0b3008c4207009005800043
:1007100000c0a00000d0a00000e0a000900588006c
:10072000900580000080a0000090a00000a0a00024
:1007300090058800ffff37008500a9000080fa00bf
:100740004f03be004f02be004f01be004f00be006f
:100750003600f900004006003600f800809fbe0019
:10076000829fbe00849fbe00869fbe000000fa00ec
:100770001fe1a900254007001421ef008760a900b0
:100780001fe1a8000080fa004f03be004f02be0028
:100790004f01be004f00be003600f90000400600c9
:1007a0003600f800809fbe00829fbe00849fbe007e
:1007b000869fbe000000fa0021e1a90074410700f5
:1007c0008780a90021e1a8000080fa004f03be0045
:1007d0004f02be004f01be004f00be003600f900c0
:1007e00000400600809fbe000000fa008b40a90078
:1007f000010f800000802000008060000000e00009
:1008000004003200d0cc80000000e800d0cc88008a
:1008100003003700d0cc80000000e900d0cc880075
:100820000080fa004f00be0000400600809fbe001e
:100830000000fa008d60a900810f80000080200078
:10084000008060000000e00004003200e0cc800086
:100850000000e800e0cc880003003700e0cc800016
:100860000000e900e0cc88000080fa004f00be00e4
:1008700000400600809fbe00821f78000200fa0040
:100880009560a9008560a90030118000004f7800b4
:1008900086c8bf00614060000080fb00610060000e
:1008a0004500dd0092168000f1fd2f0081006100ff
:1008b000010070009016880086c8bf000004e000a8
:1008c00003003a0010c0b30086e8b700010037000b
:1008d0008668ef009560a8000080fa004f0178005c
:1008e0004f00be00004006003600f800809fbe00aa
:1008f000829fbe00849fbe00869fbe000000fa005b
:1009000097c0a90087c0a9004a37070097c0a80070
:100910000080fa004f03be004f02be004f01be0030
:100920004f00be003600f90000400600809fbe0068
:100930000000fa0087e0a900806c210011c0b3001c
:10094000014878000080fa004f00be000040060019
:100950000040da000000fe0003f0a200889fbe0005
:100960008a9fbe008c1f7800b0010700b7013300da
:100970006450e1004f0032006420e1005200320078
:1009800003826c0007003b000905d0000306d0007d
:10099000820f54000c065d00020039000200320094
:1009a00089017800030678008582550004003d0027
:1009b0000003fd008103fd008502ea008b854200f3
:1009c000840f720002003b0060001000e0801800fd
:1009d0006011b8000005eb007a28e1000a00390038
:1009e00006007800c75ddd00f707b200878075005c
:1009f0002d003700828171000a01780061056000d6
:100a00008180d1000080d3008502e900f9ff3b001e
:100a1000060440008784480002003b006004140084
:100a2000e0841c000988a300070032008a8171005d
:100a300082817100610164008904d1000884d300bf
:100a40008b05e800170037000978a30013003a006f
:100a50000b00e000130034008b05e900080444009b
:100a600089844c000a4474000978a3000d003a0000
:100a70000b00e000070034008b05e9000804440087
:100a800089844c0001003a000b0020000978a30083
:100a9000f7ff32000001eb00020037008281710095
:100aa0000a017800260107000cf0a70001f0a00061
:100ab0006f0137006420e10002003a00838f6c0070
:100ac0006f0133000801be000200be00680137005c
:100ad000889fbe008a9fbe008c1f780053010700cc
:100ae0001002200002003b00b0448800570137008c
:100af0008a0062006408e10002003a00b044880005
:100b00005f0137006108e100fcff32000800be0011
:100b1000030478007200070001f0a100090007003b
:100b200008f0a600040037000001be009104240074
:100b3000b0fd200088ff070009f0a70001f0a20027
:100b40004b013700889fbe008a9fbe008c9fbe006d
:100b50000004be00200107000800be0089067800de
:100b60006420e10008003900040032000160a000a8
:100b700012022000b24488005300370091fc230089
:100b8000b0fd20004e0037000006eb0009f0a10088
:100b900003f82300020020000800be00a1000700a7
:100ba0000600340001f82300000020000801be0008
:100bb0004b0007000004be002c0020000800be000f
:100bc00093e82300320a2300960007001200340045
:100bd0000801be00d1fd2300703d2b005fff070020
:100be0000005be00b3f32300f27a26000800be0021
:100bf0002601070003f823000200200056ff07002b
:100c00000801be0055ff07000a01be0034000700be
:100c10000004be000c06e8000800be0001f0a100c0
:100c200002002000039823007e0007000800be0099
:100c3000160035000801be00140107000005be00c3
:100c400032cd2c0043fb230044ff0700809fbe00f1
:100c50001269280003d52b000a00be000b01070013
:100c6000620f210013ef2b003cff07000a01be00ba
:100c7000060107004f01be00190007000801be0071
:100c8000020107000801be0034ff07000c00e0006d
:100c90000b0032000c10a70001f0a200b2fd2000f2
:100ca00093fc23006260e1000400320022a92000ce
:100cb00063f023000c10a70063f8230027ff070050
:100cc0000df0a70001f0a2004f06be004f05be00c8
:100cd0004f04be00000006000081eb001f0137003a
:100ce000889fbe008a9fbe008c1f7800cf0007003f
:100cf000d600330003866c006450e1002e00320001
:100d00006420e100330032006150e1002f00320026
:100d10006120e1003100320085855500eb07b0000d
:100d200009002000080420000500370008044400e2
:100d300089844c000a0031000603430087834b007e
:100d40000001530081815b00f8ff33000203be0005
:100d50000800a0000804440089844c00f6ff390014
:100d6000c639dd008301730001003200130020004a
:100d70008904d1000884d3000998a300050032003b
:100d80000800a7000300a0008904d1000884d30054
:100d90008b05e8008904d1000884d3000001eb0032
:100da0000281d2006600070001f0a1000cf0a7004c
:100db00001f0a000ae0037006420e100b000320076
:100dc0000801be000200be00f7ff37006120e1000d
:100dd000ab0032006000b800f3ff370000002000d5
:100de00001f82700f0ff3700839f68000100e00052
:100df00002003d0060001000e08018000300e000e9
:100e000002003d0060011100e0811900730107003c
:100e10004f00e00002003b0060001000e08018007e
:100e200000000600140020007e023700f4ff2f00af
:100e30007c0237000001be00670007000470a700b5
:100e400003f0a1006509b100160032000d00350065
:100e50006828e10006003500f0ff2f00f1ff2700b1
:100e60000300e00013003b00010028000000050023
:100e700000004000818048008502e900fcff3a0044
:100e800008003700f88f420002003c008000eb00b1
:100e9000000005008100d1000080d3008502e80039
:100ea000fcff3a000300e00002003b00600010007d
:100eb000e0801800000006000001be0046000700a8
:100ec0000470a70003f0a10003f8a30013003a0088
:100ed0006509b10010003200090035006928e10001
:100ee000020035000100280000000500000040005d
:100ef000818048008502e900fcff3a0000000600fe
:100f0000f88f4200050035008100d1000080d30039
:100f10008502e800fcff3a00000006008000eb00bc
:100f2000000005004f89de0082017800580237007a
:100f30006011b80066023700040020003902370053
:100f400081002000618055000b003d000b00200057
:100f500061fe2f000100e1001d003400828171005c
:100f6000610164008904d1000884d3000000e80016
:100f7000faff3a0071002000610064000300700075
:100f8000020060000900320061044400e0844c006b
:100f90000988a500050032008b05e8006808e1001b
:100fa00002003a008904d1000884d300f20f200027
:100fb0000258e10005003d00c75ddd00f907b20001
:100fc0008980750008007800000006000bf82700f3
:100fd0008b00780000000500c70ade00f107b200b0
:100fe000f50fb20008003200e1cf420002003200eb
:100ff0000170a00024000500810f70000100320084
:101000000408050044000500810f700002003a004a
:10101000140005008502e9000000400081c048007e
:10102000fcff3b000170a000240005000004be008e
:10103000e9ff07000003be000405be000200be0079
:10104000e5ff0700844f7500000006000200be00a7
:101050006450e100050036006420e1000200360023
:101060000968a30001003a000800be000160a0006a
:101070004f0678004f05be004f04be00000006007a
:10108000f0ff2f00f1ff2700f9ff3700889fbe0017
:101090008a9fbe008c1f7800e4ff0700ebff33003f
:1010a00003866c006450e100240032006420e100fb
:1010b000270032006150e100220032006120e1008f
:1010c000210032008b854200eb07b1000134b800eb
:1010d000003ab8000804420089844a00013ab80086
:1010e0000030b8008880400009014a000400330045
:1010f0000000400081804800020149008b05e900a2
:10110000c909dd00830170000100320013002000d6
:10111000c814de004814dd004709de001200b200ea
:10112000c808de000884700085ff070001f0a100f8
:101130000cf0a70001f0a000cdff37006120e10016
:10114000cfff32000801be000200be00f7ff3700eb
:101150006150e100fcff3a00c9ff3700889fbe00e4
:101160008a9fbe008c9fbe00820578000004be00ee
:1011700099ff07000800be006420e1000700390065
:1011800002003a00f1ff2700f0ff2f000160a000ed
:1011900012022000b2448800550037006120e100af
:1011a00003003a000b00a70001f8230050003700ad
:1011b00001f0a100020021009364240019ff070040
:1011c0000800be0004003500b2fd2000930c24008e
:1011d000ee0107000004be000005eb000b00a600b6
:1011e0004f0dde0001f0a1000004be0032982f0078
:1011f00023ea2300a5ff07000001eb0003f0230012
:101200000b00a70003f82300d4fd070009ff070027
:101210000000a7000a00a20042ff07000b00e00048
:10122000030032000200200003f02300cafd070083
:1012300001f0a2000006be0002002000930424007a
:1012400092ff07000801be00c4fd0700809fbe009a
:101250000c00be0022a22a00d3a723008bff0700a8
:101260004f01be00bdfd07000004be0001f0a1005b
:101270000200200003982300eafe07000800be00d9
:10128000190035000001be0080ff07000006be0007
:10129000b2c52900e36223007cff070022222b0055
:1012a000f3942b00adfd07000c01be0077ff070093
:1012b000e273280083c02300a8fd07000c01be00d4
:1012c00072ff070042aa2a00a3e22b00a3fd070039
:1012d0000c01be006dff07000801be006bff070098
:1012e0000801be009dfd07000a00a70001f0a20052
:1012f0004f06be004f05be004f04be0000000600b2
:101300000001eb0095ff3700889fbe008a9fbe005a
:101310008c1f78000004be002fff07000478a30094
:1013200026003a006120e1002500320009f8a30000
:1013300025003a006420e10021003200f507b100e9
:101340000508a30002003200000040008180480030
:101350006044b8000310200002002000000040009c
:10136000818048000805440089854c000a05410039
:101370008b8549000a0550008b8558000300330017
:101380000a00be0002047400838474008301d1004b
:101390000281d300830f7100f0ff3a008904d1006d
:1013a0000884d3006001490082017800c1adde00ed
:1013b000fb07b000e2fe07002dff37000960a00028
:1013c0000800be002aff370012022000b244880045
:1013d000f0ff2f00f1ff270025ff37006022b80043
:1013e000060220000000d0008180d2000482d200da
:1013f0008582d2000000a0000202520083825a00bf
:10140000030031000202420083824a000000a10072
:101410000603e900f3ff3a0000000600889fbe00c3
:101420008a9fbe0030044200b0844a0030054b0061
:1014300090854b006000b1000898be000a90be0085
:101440000440e10005c8e10006d0e10007d8e10052
:1014500002003100680040001008e8004f05be009f
:101460004f04be0000000600889fbe008a9fbe0099
:101470003004be002005be000418540005985c002e
:1014800006185d0007985d00110020000440e1008f
:1014900005c8e10006d0e10007d8e10001003900ed
:1014a0008000eb00108810004f05be004f04be0006
:1014b000000006001200fa00889fbe008a9fbe004e
:1014c0008c9fbe00e0b79f00f1b79f0082bf9f00d6
:1014d00093bf9f000605be000404be000000eb00a1
:1014e000d0b79f00c0b79f00b0b79f00a0b79f00c4
:1014f00090b79f000006eb005fb19700cfb0970058
:10150000820141003fb097000200e00004003d006e
:10151000370007007e805700c0ff07000300370038
:10152000330007007e805700cfff0700dfb697002b
:101530000d00e0000c0035006fb29700ffb297007d
:101540000fbb97009fbb97001000200001002000f8
:101550006011b80000027200818272000203730001
:10156000838373001b0007000c06e80001042000c1
:10157000810f5600e0ff3a000d00e00004003d003e
:101580000802be000a03be007e805700a3ff0700ca
:101590005fa897000000e00005003a001fb2970026
:1015a000afb297003fb39700cfb397000900070091
:1015b0006fb09700ffb097000fb997009fb99700e1
:1015c0004f06be004f05be004f04be000080fa006b
:1015d000000006000100070000000600a4b79f00fd
:1015e000b5b79f00c6b79f00d7b79f0000000600a1
:1015f0004f09de0082817100b3b79f004f01de000a
:101600008180400082807000a1b79f008fb097005a
:101610004f09de00000040000200700090b79f00fc
:101620007fa897004f01de0081804000828070001b
:1016300081b79f000d0007004f3ade000000400018
:1016400004007000f0af9f00080007000402420091
:1016500085824a0006034b0087834b00dfff0700ab
:101660000802be000a03be00000006002fb2970069
:10167000bfb297004fb39700dfb39700000006009a
:10168000881f780018002000881f780089ff070055
:101690008f87e9004f04780000000600801feb00f0
:1016a00084ff07008f87e90000000600889fbe00c6
:1016b0008a9fbe00e00f5000e08f5800e00f5900f5
:1016c000e08f59000c003d006044b8006055b80040
:1016d0000000540081805c0002015d0083815d0098
:1016e000180020001500070008003d001800070042
:1016f0000004eb00050037000004eb000f000700ba
:1017000002003d001200070018002000dcff070067
:101710000800e000060032006022b8006033b80024
:101720000000520081805a0002015b0083815b004f
:101730004f05be004f04be0000000600e00f52003f
:10174000e08f5a00e00f5b00e08f5b0000000600b6
:101750006044b8006055b8000402540085825c0003
:1017600006035d0087835d0000000600889fbe00c1
:101770008a9fbe008c1f7800e00f5000e08f580059
:10178000e00f5900e08f59000d003d006044b800a3
:101790006055b8000000540081805c0002015d00cb
:1017a00083815d001c0020000820e10009a8e10001
:1017b0000ab0e1000bb8e1000d003d000800370061
:1017c0000006eb00e00f5200e08f5a00e00f5b00d4
:1017d000e08f5b0006003d006044b8006055b80033
:1017e0000402540085825c0006035d0087835d006f
:1017f000aaff07000c00e000060032006022b800db
:101800006033b8000000520081805a0002015b0082
:1018100083815b004f0678004f05be004f04be0079
:1018200000000600889fbe008a9fbe00841f7800cb
:10183000fefd07004f00780011003300f0ff2f007d
:10184000838f6c0006003b00040565000a00a700ba
:101850000800370009f0a60010002000080037003b
:10186000820f5400838f5c000300390010002000b9
:1018700001003e000000200009f0a7000000ea007f
:101880004f05be004f04be000000e000000006004f
:10189000881f7800030478000300e00007003d0083
:1018a00060001000e080180060011900e08119005c
:1018b00002003b0001f02d00030037000400070088
:1018c00008f0a70001f0a0004f0478000000060017
:1018d000889fbe008a9fbe000082700004027100d3
:1018e00004827100260032000004be000200be0027
:1018f0006011b8006b092000950220000182cf0022
:101900000a0039000541b1000082cf00070039000c
:101910000541b1000982cf00040039000541b10042
:101920000882cf00010039000541b1000542520094
:10193000120032000a003b008281710061016400e4
:101940008100d1000080d3008984d3000884d300b3
:101950008b05e8000442e800f7ff3a000700370073
:101960000804440089844c0000004800818048003d
:101970008b05e9000442e900f9ff3a0070fd070019
:101980004f05be004f04be0000000600040020000a
:1019900000003700889fbe008a9fbe008c1f780021
:1019a0004f26dd00a1fd0700a8fd33006120e10006
:1019b000430032006250e10041003e003e00390029
:1019c0006420e1003c003200058255000f003b001e
:1019d0000402e80038003a00800f5300818f5b005a
:1019e000350034000800be0003f0a10001f0a6009d
:1019f00003f0a0000cf0a700d8fb07009cfd370007
:101a00000603430087834b000c4646000005530045
:101a100081855b00020033000a03be000c00a000b9
:101a20000402e900f6ff3b0085057800060243004a
:101a300087824b0004003a006000b80009f0a7005c
:101a400001f0a0008afd37000002520081825a0096
:101a50000704e000040033000603430087834b00c3
:101a60008b05e900faff3700090578000604be007f
:101a70000203be006011b80031fd0700e00f520004
:101a8000e08f5a000700350002003c000c08a3005c
:101a9000040032000601be0003f0a0000cf0a70015
:101aa000aefb07000a85680001f0a1000af0a7005c
:101ab00001f0a0006efd37000800be006cfd37008d
:101ac000100220000cf0a600b04488006cfd370026
:020000040000fa
:101ad000202000004944000020000000203a0000bf
:101ae000200000000d000000090000000a0d0000a9
:041af00000000000f2
:020000040000fa
:101af4000000fa0090168000680060000000e0001a
:101b040002003a0010c0b300010037000040eb00af
:101b14000080fa00000006000400fa00008fbe00f6
:101b24004ec8bf00e14f500002003a001e00be0044
:101b3400020037001e00be0001f0a2000080fa007f
:101b4400000006000200fa00004f780006002000a2
:101b5400872c24001e42780002002000a33f2400aa
:101b640000002000a1472400ca020700060020004c
:101b7400872c24001e4278006011b8000000200069
:101b8400a1472400c302070006002000872c24007c
:101b94001e42780002002000a33f24006000b80029
:101ba400bc02070006002000872c24001e42780097
:101bb4006011b8006000b800b602070002002000ff
:101bc400832c24006000b8008d0207000080fa0016
:101bd400000006000200fa00004f78008042eb008b
:101be40006002000673924001e4278006011b80006
:101bf4000000200081342400fc02070025c0b3004b
:101c040006002000872c24001e42780002002000d9
:101c14006328240000002000113e2400f302070082
:101c240025c0b30006002000872c24001e42780043
:101c340002002000a337240000002400e141240016
:101c4400ea02070025c0b30006002000872c240008
:101c54001e42780002002000a33f24000000200060
:101c6400f1422400e102070025c0b3000600200071
:101c7400872c24001e42780002002800b34324006d
:101c840000002400e1412400d802070025c0b3006d
:101c940006002000872c24001e4278000200240045
:101ca4009346240000002000113e2400cf020700c8
:101cb40015c0b30006002000872c24001e427800c3
:101cc40002002000a34724000000200081342400e7
:101cd400c60207000080fa00000006000200fa00b5
:101ce400004f78008042eb0006002000a73f24004c
:101cf4001e4278006011b8000000200081342400e6
:101d0400ba02070025c0b30006002000872c240077
:101d14001e427800020020006330240000002000ee
:101d2400f1422400b102070025c0b30006002000e0
:101d3400872c24001e42780002002000a33f2400c8
:101d44000000240051482400a802070025c0b30065
:101d540006002000872c24001e4278000200200088
:101d6400a347240000002000614924009f020700cb
:101d740025c0b30006002000872c24001e427800f2
:101d840002002800b34b2400000024005148240022
:101d94009602070025c0b30006002000872c24000b
:101da4001e42780002002400934e2400000020000c
:101db400f14224008d02070015c0b3000600200084
:101dc400872c24001e42780002002000a34f240028
:101dd4000000200081342400840207000080fa00ff
:101de400000006000200fa00004f78000600200000
:101df400872c24001e4278006011b80000002000e7
:101e0400a13f24002302070006002000872c2400a1
:101e14001e42780002002000a33f2400000020009e
:101e2400a13f24001b02070006002000872c240089
:101e34001e42780002002000a33f24006000b80086
:101e44001402070006002000872c24001e4278009c
:101e54006011b8006000b8000e0207000080fa00ac
:101e6400000006000000fa000080fa0000000600ee
:101e74000000fa00a0428000e50f50000300320089
:101e8400e60f50003c003200ae01370070c8bf00be
:101e94000004e0001b003a0050c8bf00e14f5000ae
:101ea40018003a0020c0b30050e8b70010c0b300d7
:101eb40051e8b70006002000872c240000c2eb0084
:101ec40002002000a347240000002000f13a24006f
:101ed400f00107005ac8bf008ee8b70000000000f8
:101ee4005ac8bf008080fb008ec8bf000080fb0082
:101ef40000805000e10f5000f9ff34007068ef00db
:101f04001c00370070c8bf000004e00009003a005c
:101f140050c8bf00e24f500006003a0020c0b30092
:101f240051e8b70010c0b30050e8b7007068ef0084
:101f34001000370070c8bf00e14f500080013a0024
:101f44005ac8bf008ee8b700000000005ac8bf009e
:101f54008080fb008ec8bf000080fb000080500022
:101f6400e10f5000f9ff340010c0b30070e8b7006f
:101f740074013700730137005bc8bf000080fb00a9
:101f8400e30f5000dd003200e30f500005003c0079
:101f9400e10f500008003200e20f5000a2003200ae
:101fa40068013700e40f500009013200e50f5000ca
:101fb4003c0132006301370071c8bf000004e00037
:101fc40029003a0030002000a042880025c0b30058
:101fd40006002000872c240014c0b3000200200057
:101fe400f33a240000002400814d2400ff0107007f
:101ff40025c0b30006002000872c240014c0b300c1
:10200400020020008334240000002000814c2400be
:10201400f601070025c0b30006002000472b24006a
:1020240014c0b30002002000833424000000280000
:10203400614b2400ed0107000042eb00f13f20005a
:102044006011b800b0c0b300353007000042eb00a7
:10205400f13f20006011b80080c0b30030300700a9
:1020640020c0b30071e8b70071c8bf00e14f500051
:1020740038003a0002002000031a24000000200067
:10208400713824005e01070020c0b30050e8b70097
:1020940025c0b30006002000872c240014c0b30020
:1020a40002002000f342240000002800214a2400fa
:1020b400ce01070030002000a042880010c0b30009
:1020c40050e8b70025c0b30006002000872c240088
:1020d40014c0b300020028002342240000002000a2
:1020e40011462400c101070015c0b30006002000fa
:1020f4000727240014c0b3000200280093482400da
:102104000000200061362400b801070010c0b300ad
:1021140051e8b7000000000051c8bf00e14f500073
:10212400fdff3a0006002000872c240000c2eb00cb
:10213400020028009340240000002800914024005d
:102144005401070020c0b30051e8b70030c0b30009
:1021540071e8b70071c8bf00e24f500026003a0092
:102164008042eb0006002000872c240014c0b3003a
:1021740002002000e33b240000002000713824000a
:102184009a01070025c0b30006002000872c240014
:1021940014c0b30002002000133e240000002000fd
:1021a400613624009101070025c0b3000600200019
:1021b400872c240014c0b30002002800b343240079
:1021c40000002000613624008801070015c0b30018
:1021d40006002000872c240014c0b300020028004d
:1021e4009348240000002000613624007f0107008a
:1021f40040c0b30071e8b70071c8bf00e34f50009e
:1022040008003a0006002000872c240014c0b30004
:1022140002002800934824000000200061362400b6
:102224001c010700c500370071c8bf000004e000ae
:102234005b003a008042eb0006002000872c24005b
:1022440014c0b30002002000e33b2400000020007f
:10225400713824006501070025c0b3000600200082
:10226400872c240014c0b30002002000133e240075
:1022740000002000613624005c01070025c0b30083
:1022840006002000872c240014c0b300020028009c
:10229400b343240000002000a137240053010700a9
:1022a40015c0b30006002000872c240014c0b3001e
:1022b4000200280093482400000020006136240016
:1022c4004a01070020c0b30071e8b70071c8bf001d
:1022d400e14f500008003a0006002000872c24003b
:1022e40014c0b3000200280093482400000020001a
:1022f40061362400e70007009000370071c8bf0072
:102304000004e00026003a008042eb0006002000b2
:10231400872c240014c0b30002002000e33b2400f7
:1023240000002000713824003001070025c0b300ec
:1023340006002000872c240014c0b30002002000f3
:10234400133e24000000200061362400270107000a
:1023540025c0b30006002000872c240014c0b3005d
:1023640002002800b343240000002000a137240009
:102374001e01070015c0b30006002000872c2400ae
:1023840014c0b30002002800934824000000200079
:10239400613624001501070020c0b30071e8b700be
:1023a40071c8bf00e14f500008003a000600200049
:1023b400872c240014c0b300020028009348240092
:1023c4000000200061362400b20007005b003700e3
:1023d40071c8bf000004e00026003a008042eb0010
:1023e40006002000872c240014c0b3000200200043
:1023f400e33b24000000200071382400fb000700a8
:1024040025c0b30006002000872c240014c0b300ac
:1024140002002000133e2400000020006136240046
:10242400f200070025c0b30006002000872c24001a
:1024340014c0b30002002800b343240000002000ad
:1024440061362400e900070015c0b300060020002f
:10245400872c240014c0b3000200280093482400f1
:102464000000200061362400e000070020c0b30013
:1024740071e8b70071c8bf00e14f500008003a008e
:1024840006002000872c240014c0b300020028009a
:102494009348240000002000613624007d000700da
:1024a4002600370071c8bf000004e00017003a009e
:1024b40006002000872c240014c0b3000200200072
:1024c400f342240000002000f142240071000700c0
:1024d40002002000832c240000002000413324004b
:1024e4004700070006002000872c240014c0b30016
:1024f40002002800934824000000200061362400d4
:102504006400070020c0b30071e8b70071c8bf00c1
:10251400e24f500008003a0006002000872c2400f7
:1025240014c0b300020028009348240000002000d7
:102534006136240057000700000000000100370046
:102544000000000010c0b30073e8b7000080fa0078
:10255400000006000e00fa001007980021079800fa
:1025640032079800430798005407980065079800bd
:1025740073c8bf000004e0001f003a005e02900030
:10258400ee0290003e019000ce0190001e009000eb
:10259400ae009000ce000700004f78001e40780087
:1025a400e24f500014003a0052c8bf00e24f5000fe
:1025b40002003a002efe07000f00370052c8bf0089
:1025c400e34f500008003a005e029000ee029000d3
:1025d4003e019000ce0190001e009000ae009000dd
:1025e400dcff07000400370052c8bf00e44f50006e
:1025f40001003a001efe07000080fa0000000600f9
:102604000a00fa0010079800210798003207980082
:102614004307980073c8bf000004e0001b003a00a1
:102624003e019000ce0190001e009000ae0090008c
:1026340016010700004f78001e407800e24f50005a
:1026440012003a0052c8bf00e24f500002003a00a4
:1026540004fe07000d00370052c8bf00e34f5000ce
:1026640006003a003e019000ce0190001e0090004a
:10267400ae009000e2ff07000400370052c8bf001c
:10268400e44f500001003a00f9fd07000080fa0011
:10269400000006001000fa00881f78001007980058
:1026a400210798003207980043079800244f9800a8
:1026b400660798007707980073c8bf000004e0001d
:1026c40028003a006e039000fe0390002e4a90000a
:1026d4003e019000ce0190001e009000ae009000dc
:1026e400bf010700004f78001e407800e24f500001
:1026f4001c003a0052c8bf00e24f500002003a00ea
:10270400d8fd07001700370052c8bf00e34f500040
:1027140010003a003e009000ce009000c4f907007b
:10272400000478001e009000ae009000c0f907007d
:10273400000078001600200093c0b3006e029000e1
:10274400fe0290002e499000880078002e190700a0
:102754000400370052c8bf00e44f500001003a00a3
:10276400c3fd07004f0478000080fa000000060053
:102774000a00fa0010079800210798003207980011
:102784004307980073c8bf000004e00015003a0036
:102794003e019000ce0190001e009000ae0090001b
:1027a400e7010700004f78001e407800e24f500018
:1027b4000c003a0052c8bf00e24f500002003a0039
:1027c400a8fd07000700370052c8bf00e34f5000c0
:1027d4000400320052c8bf00e44f500001003a0028
:1027e400a3fd07000080fa00000006001200fa00b2
:1027f400881f780010079800210798003207980076
:1028040043079800244f98006607980077079800bc
:102814000557980073c8bf000004e00029003a007f
:102824008e5290006e039000fe0390002e4a90009a
:102834003e019000ce0190001e009000ae0090007a
:1028440008020700004f78001e407800e24f500055
:102854001c003a0052c8bf00e24f500002003a0088
:1028640080fd07001700370052c8bf00e34f500037
:1028740010003a003e009000ce0090006cf9070072
:10288400000478001e009000ae00900068f9070074
:1028940000007800160020008e5190006e02900017
:1028a400fe0290002e49900088007800d618070098
:1028b4000400370052c8bf00e44f500001003a0042
:1028c4006bfd07004f0478000080fa00000006004a
:1028d4000c00fa00889fbe00008fbe0022079800fb
:1028e4003307980044079800550798002e0090007d
:1028f400be00900088fc070020079800310798006c
:102904006098210021c0b30001487800d71c07005b
:1029140022bc2100032b24001e00be00daf90700ac
:10292400008fbe0022bc2100032b24002e00900047
:10293400be009000d4f907002007980031079800e2
:1029440010c0b30014e8b700f0c3800001c48000d5
:102954000001be002e009000be009000fdf70700ad
:102964006011b80073f907000000e00009003a00a4
:1029740090c38000a1c380000001be001e00be0001
:10298400f4f707006011b8006af907000000e000de
:102994003900320090c38000a1c380000001be0052
:1029a4001e00be00ebf707000004be00f0c3800069
:1029b40001c480000001be002e009000be00900003
:1029c400e4f707000801be0040f8070032e02f00da
:1029d400136a2400acf9070002002000030024005d
:1029e400bef8070030c5880041c588004e0090003d
:1029f400de009000d61f07002d200700309821002c
:102a040021c0b300014878005098210011c0b300e0
:102a1400014878004098210011c0b30001487800b3
:102a2400a09821008040eb000148780080982100a4
:102a340061c0b300014878009098210041c0b30000
:102a440001487800049921006000b8006011b800c2
:102a5400009abe000292be00b09821008040eb00b4
:102a64000148780000000000b09821001040780070
:102a7400e14f5000fcff3a00f0982100104078002c
:102a84004f04be000080fa00000006000800fa00af
:102a9400008fbe0022079800330798001e00be0076
:102aa4001dfc0700008fbe006098210021c0b30008
:102ab400014878006d1c070010c0b30014e8b7008b
:102ac400b2fd2000930424001e00be006ef907002e
:102ad400020020004333240080f8070032e02f0076
:102ae4001362240068f9070030c5880041c58800d6
:102af4002e009000be009000951f0700ec1f0700f9
:102b04003098210021c0b30001487800509821007a
:102b140011c0b300014878004098210011c0b300ef
:102b240001487800a09821008040eb00014878001b
:102b34008098210061c0b30001487800909821007a
:102b440041c0b30001487800049921006000b80036
:102b54006011b800009abe000292be00b098210035
:102b64008040eb000148780000000000b09821008c
:102b740010407800e14f5000fcff3a00f09821002b
:102b8400104078000080fa00000006000800fa00f7
:102b9400300798003e0090000000e00008003d006f
:102ba4003e0090000000ea0030079800000020007a
:102bb40001f82b0010079800210798000400370043
:102bc4000000200001f82300100798002107980056
:102bd40002002000032f24001e009000ae0090008d
:102be40029f907000041eb00250007000000eb0075
:102bf400000f78001200370002002000032f2c0081
:102c04001e009000ae0090001ff9070022c0b30020
:102c14001b00070022c0b3006000b80018000700c2
:102c240002002000032f24001e009000ae0090003c
:102c340015f9070022c0b300110007001e0fe800b9
:102c44003e0090000000e9009e0f5000eaff3c00a7
:102c540002002000032f2c001e009000ae00900004
:102c640009f9070022c0b3000500070012c0b30031
:102c74006000b800020007000080fa0000000600af
:102c84000600fa00008fbe00424798004e409000b4
:102c94000004e00006003a006098210021c0b3005f
:102ca40001487800f11b070010c0b30014e8b70016
:102cb4001e00be0098fb0700008fbe00b2fd20007e
:102cc400930424001e00be00eff807000200200059
:102cd4004333240001f8070032e02f00136224007c
:102ce400e9f8070030c5880041c588006033280032
:102cf400b1312400204088003140880000002000c9
:102d040001082400d0c78800e1c788000000200023
:102d14000104240010c8880021c8880030982100cc
:102d240021c0b300014878005098210011c0b300bd
:102d3400014878004098210011c0b3000148780090
:102d4400e098210071c0b30001487800d0982100b8
:102d540071c0b30001487800a098210031c0b300cd
:102d6400014878008098210061c0b30001487800d0
:102d74009098210041c0b3000148780004992100d3
:102d84006000b8006011b800009abe000292be0054
:102d94004e409000e14f500004003a00c0982100da
:102da40011c0b3000148780003003700c098210027
:102db40021c0b30001487800b09821008040eb00a6
:102dc4000148780000000000b0982100104078000d
:102dd400e14f5000fcff3a000080fa0000000600ba
:102de4000e00fa00008fbe002207980033079800f7
:102df400044f980056079800670798002e0090002b
:102e0400be00900044fb070020079800310798009b
:102e14006098210021c0b30001487800931b07008b
:102e240022bc2100032b24001e00be0096f80700dc
:102e340050c3880061c3880022bc2100032b2400f6
:102e44002e009000be0090008ff80700b0c38800e9
:102e5400c1c3880020c0b30014e8b70070982100f3
:102e64008e489000014878005e009000ee009000cb
:102e7400aa1d0700191e070060332800b131240081
:102e84002040880031408800000020000104240014
:102e9400d0c78800e1c78800000020000104240096
:102ea40010c8880021c888003098210011c0b300e0
:102eb400014878005098210011c0b30001487800ff
:102ec4004098210011c0b300014878008098210087
:102ed40061c0b300014878009098210061c0b3003c
:102ee40001487800a098210011c0b300014878007f
:102ef400c098210011c0b300014878000499210052
:102f04006000b8006011b800009abe000292be00d2
:102f1400b09821008040eb000148780000000000d8
:102f2400b098210010407800e14f5000fcff3a00b7
:102f3400f0982100104078000080fa00000006009c
:102f44000800fa00881f7800008fbe00220798004e
:102f5400330798006098210021c0b300014878002d
:102f6400421b070010c0b30014e8b70022bc2100c4
:102f7400032b24001e00be0043f80700d0c48800c1
:102f8400e1c4880018c0b3006011b8001e00be0080
:102f9400a3f707000000e000010035000044eb0047
:102fa4000804e000040032007098210080c0eb00a7
:102fb40001487800030037007098210011c0b30065
:102fc400014878002e009000be009000531d0700b9
:102fd400c21d07003098210011c0b30001487800d9
:102fe4005098210021c0b300014878004098210086
:102ff40011c0b30001487800c098210011c0b3008b
:10300400014878008098210021c0b300014878006d
:103014009098210061c0b300014878000499210010
:103024006000b8006011b800009abe000292be00b1
:10303400b09821008040eb000148780000000000b7
:10304400b098210010407800e14f5000fcff3a0096
:10305400f0982100104078004f0478000080fa00b6
:10306400000006001000fa00008fbe00220798003e
:1030740033079800044f9800560798006707980094
:10308400654f98006e4890000004e00006003a0086
:103094006098210021c0b30001487800f31a0700aa
:1030a40020c0b30014e8b7002e009000be009000ca
:1030b40099fa0700200798003107980022bc2100e4
:1030c400032b24001e00be00eff7070050c3880046
:1030d40061c3880022bc2100032b24002e00900031
:1030e400be009000e8f70700b0c38800c1c38800a1
:1030f4005e009000ee009000081d0700771d070099
:1031040060332800b1312400204088003140880019
:103114000000200001082400d0c78800e1c788000f
:10312400000020000104240010c8880021c8880081
:103134003098210011c0b300014878005098210054
:1031440011c0b300014878004098210011c0b300b9
:1031540001487800709821008e489000014878005a
:10316400e098210071c0b30001487800d098210094
:1031740071c0b30001487800a098210021c0b300b9
:10318400014878008098210061c0b30001487800ac
:103194009098210061c0b30001487800049921008f
:1031a4006000b8006011b800009abe000292be0030
:1031b4006e489000e14f500004003a00c09821008e
:1031c40011c0b3000148780003003700c098210003
:1031d40021c0b30001487800b09821008040eb0082
:1031e4000148780000000000b098210010407800e9
:1031f400e14f5000fcff3a00f098210010407800a5
:103204000080fa00000006001000fa00889fbe004b
:10321400004f98005207980063079800614f980088
:1032240010002000000f780041438000110798002f
:1032340050c8bf000080fb002007980051c8bf00a1
:103244000080fb003007980020c0b30051e8b700ad
:1032540020c0b30050e8b70020c0b3004fe8b70067
:103264001e0078006600b900000078008080e80045
:10327400801f21000080400090007800400620005c
:103284000088b90000007800cf80de0024f7070032
:103294000200200083242400aff507000004be00d0
:1032a4001e0078006600b90080007800801f2100ad
:1032b4000080400090007800400620000088b9009b
:1032c40000007800cf80de0015f707000200200020
:1032d40083242400a0f507005e029000ee02900013
:1032e4000801be009bfc07003e00900000407800ef
:1032f40051e8b7002e0090000040780050e8b70075
:1033040020c0b3004fe8b7005c0037006e4890005f
:10331400e94f500028003a00404380009e0090008e
:10332400808f500024003a001e0078006600b90027
:10333400000078008080e800801f210000804000a9
:1033440090007800400620000088b9000000780052
:10335400cf80de00f2f60700020020008324240060
:103364007df507000004be001e0078006600b90069
:1033740080007800801f21000080400090007800c9
:10338400400620000088b90000007800cf80de00ed
:10339400e3f6070002002000832424006ef50700f2
:1033a4005e039000ee0390000e4a90000801be00f8
:1033b400b8fc0700300037001e007800e10f500011
:1033c40003003a000040eb00604f98000200370011
:1033d40020c0b300604f9800404380009e009000de
:1033e400808f500024003a001e00e8006600b900f7
:1033f400000078008080e800801f210000804000e9
:1034040090007800400620000088b9000000780091
:10341400cf80de00c2f607000200200083242400cf
:103424004df507000004be001e00e8006600b90068
:1034340080007800801f2100008040009000780008
:10344400400620000088b90000007800cf80de002c
:10345400b3f6070002002000832424003ef5070091
:10346400ee4a90005e039000ee0390000e4a900036
:103474000801be00ddfc07001e0fe800e0428000ea
:103484009e007800808f50000c003d004043800077
:103494009e009000808f500008003a001e007800c3
:1034a4006600b90080007800801f21000080400081
:1034b40010007800e10f400094ff3a004f04be0072
:1034c4000080fa00000006000600fa000000eb008d
:1034d400000f78000000eb0010079800330037005d
:1034e4001e0078006600b9008000780080d42000b7
:1034f40000804000100178001e00e8006600b9005a
:103504008000780080d42000008040001000780003
:1035140000005100200798002e0090000000e000f9
:1035240003003d002e0090000000ea0020079800f0
:103534009e0090002e00900000804000100798002c
:103544001e0078006600b900000078008080e80062
:1035540080d4200000804000100178001e00e800a4
:103564006600b900000078008080e80080d4200064
:1035740000804000100078000000510020079800ef
:103584002e0090000000e00003003d002e0090009b
:103594000000ea00200798009e0090002e00900092
:1035a40000804000100798001e0fe800e0428000f1
:1035b4009e007800808f500004003d00714380001d
:1035c40050092000808f5000c5ff36001e00900077
:1035d4000080fa00000006000400fa006828ef00ea
:1035e4006a28ef005e28ef000080eb0040b58800f9
:1035f4000080eb0050b588000080eb0060b58800c7
:103604000080eb0070b588000000eb001007980004
:103614002b0037000000eb00000f78002200370079
:103624001e0078000000e000090034001e0078004d
:10363400fc0f500006003c001e0090000000e0005b
:10364400030034001e009000f20f50000b00340001
:103654001e0078007400b900800078001e009000fd
:1036640000804000800040008089200000804000ed
:1036740011002000010878000a0037001e007800bd
:103684007400b900800078001e00900000804000a3
:103694008000400080892000008040008000eb0012
:1036a400010878001e0fe8001e007800fd0f50008e
:1036b400dbff34001e0090000000e80010079800b3
:1036c4001e009000f30f5000d2ff340010002000c1
:1036d4006048880010002000a049880010002000e5
:1036e400e04a880010002000204c880010002000d0
:1036f400604d880010002000a04e880010002000bb
:103704006061880010002000a0678800100020007d
:1037140060668800100020002065880010002000ea
:10372400e063880010002000a06288009000200060
:10373400000f780014003700c00020001007980024
:103744000d0037001e0078007400b9008000780076
:103754001e0090000080400080004000808920000e
:103764000080400011002000010878001e00900035
:103774000000e800100798001e009000f30f5000ae
:10378400f0ff34001e0fe8001e007800f40f500014
:10379400e9ff3400a0002000000f78001400370077
:1037a4000000eb00100798000d0037001e007800a1
:1037b4007400b900800078001e0090000080400072
:1037c400800040008089200000804000110020001b
:1037d400010878001e0090000000e800100798001f
:1037e4001e009000e10f5000f0ff34001e0fe800af
:1037f4001e007800f30f5000e9ff34000000eb00d6
:10380400000f7800140037004000200010079800d3
:103814000d0037001e0078007400b90080007800a5
:103824001e0090000080400080004000808920003d
:103834000080400011002000010878001e00900064
:103844000000e800100798001e009000e70f5000e9
:10385400f0ff34001e0fe8001e007800e40f500053
:10386400e9ff34000000eb00000f7800140037007b
:10387400c0002000100798000d0037001e007800db
:103884007400b900800078001e00900000804000a1
:10389400800040008089200000804000110020004a
:1038a400010878001e0090000000e800100798004e
:1038b4001e009000ef0f5000f0ff34001e0fe800d0
:1038c4001e007800e40f5000e9ff3400700120006e
:1038d400000f7800140037006000200010079800e3
:1038e4000d0037001e0078007400b90080007800d5
:1038f4001e0090000080400080004000808920006d
:103904000080400011002000010878001e00900093
:103914000000e800100798001e009000ed0f500012
:10392400f0ff34001e0fe8001e007800fe0f500068
:10393400e9ff34000080fa00000006000200fa00eb
:10394400000f78001e007800e30f50000c003200d6
:10395400e30f500003003c00e10f5000060032006a
:103964000d003700e50f500007003200e70f50004c
:10397400070032000800370050002000070037001d
:1039840020002000050037006000200003003700fd
:1039940010002000010037000080eb000080fa00d6
:1039a400000006000800fa0010079800210798009c
:1039b400320798000000eb00000f78003e009000f2
:1039c400e40f500084023200e40f500007003c0072
:1039d400e20f5000e2003200e20f5000af013c0061
:1039e400e10f50000f00320086063700e60f50004a
:1039f4001c043200e60f500046033500e70f500068
:103a0400e7043200e80f5000b40532007d063700a9
:103a1400104380000000e800104388001e0fe800f7
:103a24000100370000000000104380000000e8009f
:103a3400f30f500024003c00004380001143800039
:103a44000101e8007400b9000000780002004000a1
:103a54008000400080892000008040001000780031
:103a64000000e00018003a00004380000000e90074
:103a7400124380007400b900000078000200400086
:103a84008000400080892000008040001000780001
:103a94000000e0000c003200014380001e00900092
:103aa400808f500004003a00114380002e009000e3
:103ab400808f5000040032007143800050092000c0
:103ac400808f5000d2ff3600004380000000e900e0
:103ad400124380007400b900000078000200400026
:103ae40080004000808920000080400010007800a1
:103af4000000e00008003200014380001e00900036
:103b0400808f50003c003a00114380002e0090004a
:103b1400808f500038003a001e0078000000e0005a
:103b240033003200e04280006600b9008000780073
:103b3400c0d420000080400011002000010878005b
:103b4400e04280000000e800e0428800e04280009b
:103b5400024380006600b9008000780080d4200011
:103b64000080400002087800e04280001243800098
:103b74006600b90080007800a0d4200000804000d6
:103b840002087800e04280006600b90080007800f6
:103b9400c0d420000080400071002000010878009b
:103ba400e04280000000e800e0428800004380001a
:103bb4000000e90000438800e042800002438000e6
:103bc4006600b9008000780080d4200000804000a6
:103bd40002087800e0428000124380006600b900c9
:103be40080007800a0d42000008040000208780003
:103bf4000000eb000406370010438000f30f500070
:103c04000c00320000438000114380000101e800f1
:103c14007400b900000078000200400080004000f9
:103c24008089200000804000100078000000e0003f
:103c340044003200004380000000e800124380008a
:103c44007400b900000078000200400080004000c9
:103c54008089200000804000100078000000e0000f
:103c640038003a001e0078000000e0003300320003
:103c7400e04280006600b90080007800c0d42000d3
:103c8400008040001100200001087800e04280001c
:103c94000000e800e0428800e04280000243800027
:103ca4006600b9008000780080d4200000804000c5
:103cb40002087800e0428000124380006600b900e8
:103cc40080007800a0d42000008040000208780022
:103cd400e04280006600b90080007800c0d4200073
:103ce400008040003100200001087800e04280009c
:103cf4000000e800e0428800004380000000e80083
:103d040000438800e0428000024380006600b9005e
:103d14008000780080d420000080400002087800f1
:103d2400e0428000124380006600b9008000780001
:103d3400a0d4200000804000020878005000200039
:103d4400b10537000080eb00af0537001043800059
:103d54000000e800104388001e0fe800010037004f
:103d640000000000104380000000e800f30f500042
:103d740024003c0000438000114380000101e8005e
:103d84007400b90000007800020040008000400088
:103d94008089200000804000100078000000e000ce
:103da40018003a00004380000000e800124380003d
:103db4007400b90000007800020040008000400058
:103dc4008089200000804000100078000000e0009e
:103dd4000c003200014380001e009000808f5000d0
:103de40004003a00114380002e009000808f5000a0
:103df400040032007143800050092000808f50007d
:103e0400d2ff3600004380000000e8001243800027
:103e14007400b900000078000200400080004000f7
:103e24008089200000804000100078000000e0003d
:103e340008003200014380001e009000808f500073
:103e44003c003a00114380002e009000808f500007
:103e540038003a001e0078000000e0003300320011
:103e6400e04280006600b90080007800c0d42000e1
:103e7400008040001100200001087800e04280002a
:103e84000000e800e0428800e04280000243800035
:103e94006600b9008000780080d4200000804000d3
:103ea40002087800e0428000124380006600b900f6
:103eb40080007800a0d42000008040000208780030
:103ec400e04280006600b90080007800c0d4200081
:103ed400008040003100200001087800e0428000aa
:103ee4000000e800e0428800004380000000e80091
:103ef40000438800e0428000024380006600b9006d
:103f04008000780080d420000080400002087800ff
:103f1400e0428000124380006600b900800078000f
:103f2400a0d4200000804000020878000000eb00cc
:103f34003505370010438000f30f50000c003200a9
:103f440000438000114380000101e8007400b900bf
:103f540000007800020040008000400080892000ba
:103f640000804000100078000000e00044003200af
:103f7400004380000000e900124380007400b9008f
:103f8400000078000200400080004000808920008a
:103f940000804000100078000000e00038003a0083
:103fa4001e0078000000e00033003200e042800090
:103fb4006600b90080007800c0d420000080400072
:103fc4001100200001087800e04280000000e800b1
:103fd400e0428800e0428000024380006600b900ad
:103fe4008000780080d4200000804000020878001f
:103ff400e0428000124380006600b900800078002f
:10400400a0d420000080400002087800e042800034
:104014006600b90080007800c0d420000080400011
:104024007100200001087800e04280000000e800f0
:10403400e0428800004380000000e900004388005b
:10404400e0428000024380006600b90080007800ee
:1040540080d420000080400002087800e042800004
:10406400124380006600b90080007800a0d42000cc
:10407400008040000208780070002000e20437004d
:104084000080eb00e0043700104380000000e900ea
:10409400104388001e0fe8000100370000000000f4
:1040a400104380000000e9000000e0002400350017
:1040b40000438000114380000101e9007400b9004d
:1040c4000000780002004000800040008089200049
:1040d40000804000100078000000e00018003a0062
:1040e400004380000000e900124380007400b9001e
:1040f4000000780002004000800040008089200019
:1041040000804000100078000000e0000c00320045
:10411400014380001e009000808f500004003a008c
:10412400114380002e009000808f50000400320064
:104134007143800050092000808f5000d2ff360068
:10414400004380000000e900124380007400b900bd
:1041540000007800020040008000400080892000b8
:1041640000804000100078000000e00008003200e9
:10417400014380001e009000808f50003c003a00f4
:10418400114380002e009000808f500038003a00c8
:104194001e0078000000e00033003200e04280009e
:1041a4006600b90080007800c0d420000080400080
:1041b4005100200001087800e04280000000e8007f
:1041c400e0428800e0428000024380006600b900bb
:1041d4008000780080d4200000804000020878002d
:1041e400e0428000124380006600b900800078003d
:1041f400a0d420000080400002087800e042800043
:104204006600b90080007800c0d42000008040001f
:104214007100200001087800e04280000000e800fe
:10422400e0428800004380000000e9000043880069
:10423400e0428000024380006600b90080007800fc
:1042440080d420000080400002087800e042800012
:10425400124380006600b90080007800a0d42000da
:1042640000804000020878000000eb00660437007c
:10427400104380000000e0000c0032000043800086
:10428400114380000101e9007400b90000007800c6
:10429400020040008000400080892000008040002f
:1042a400100078000000e000440032000043800069
:1042b4000000e800124380007400b9000000780098
:1042c40002004000800040008089200000804000ff
:1042d400100078000000e00038003a001e0078006a
:1042e4000000e00033003200e04280006600b900c4
:1042f40080007800c0d420000080400051002000dd
:1043040001087800e04280000000e800e0428800f4
:10431400e0428000024380006600b900800078001b
:1043240080d420000080400002087800e042800031
:10433400124380006600b90080007800a0d42000f9
:104344000080400002087800e04280006600b90066
:1043540080007800c0d4200000804000310020009c
:1043640001087800e04280000000e800e042880094
:10437400004380000000e80000438800e042800021
:10438400024380006600b9008000780080d42000d9
:104394000080400002087800e04280001243800060
:1043a4006600b90080007800a0d42000008040009e
:1043b4000208780060002000130437000080eb003e
:1043c40011043700104380000000e9001043880006
:1043d4001e0fe800010037000000000010438000b9
:1043e4000000e9000000e0002400350000438000e4
:1043f400114380000101e9007400b9000000780055
:1044040002004000800040008089200000804000bd
:10441400100078000000e00018003a00004380001b
:104424000000e800124380007400b9000000780026
:10443400020040008000400080892000008040008d
:10444400100078000000e0000c00320001438000fe
:104454001e009000808f500004003a001143800039
:104464002e009000808f50000400320071438000c1
:1044740050092000808f5000d2ff36000043800096
:104484000000e800124380007400b90000007800c6
:10449400020040008000400080892000008040002d
:1044a400100078000000e0000800320001438000a2
:1044b4001e009000808f50003c003a0011438000a1
:1044c4002e009000808f500038003a001e007800c3
:1044d4000000e00033003200e04280006600b900d2
:1044e40080007800c0d420000080400051002000eb
:1044f40001087800e04280000000e800e042880003
:10450400e0428000024380006600b9008000780029
:1045140080d420000080400002087800e04280003f
:10452400124380006600b90080007800a0d4200007
:104534000080400002087800e04280006600b90074
:1045440080007800c0d420000080400031002000aa
:1045540001087800e04280000000e800e0428800a2
:10456400004380000000e80000438800e04280002f
:10457400024380006600b9008000780080d42000e7
:104584000080400002087800e0428000124380006e
:104594006600b90080007800a0d4200000804000ac
:1045a400020878000000eb009703370010438000f6
:1045b4000000e0000c003200004380001143800042
:1045c4000101e9007400b900000078000200400015
:1045d40080004000808920000080400010007800a6
:1045e4000000e00044003200004380000000e900c5
:1045f400124380007400b9000000780002004000fb
:104604008000400080892000008040001000780075
:104614000000e00038003a001e0078000000e000ce
:1046240033003200e04280006600b9008000780068
:10463400c0d4200000804000510020000108780010
:10464400e04280000000e800e0428800e042800090
:10465400024380006600b9008000780080d4200006
:104664000080400002087800e0428000124380008d
:104674006600b90080007800a0d4200000804000cb
:1046840002087800e04280006600b90080007800eb
:10469400c0d4200000804000710020000108780090
:1046a400e04280000000e800e0428800004380000f
:1046b4000000e90000438800e042800002438000db
:1046c4006600b9008000780080d42000008040009b
:1046d40002087800e0428000124380006600b900be
:1046e40080007800a0d420000080400002087800f8
:1046f40080002000440337000080eb0042033700b1
:10470400004380000000e800004388001e0fe8001a
:104714000100370000000000004380000000e800b2
:10472400fd0f500024003c00004380000000e8001e
:10473400124380007400b9000000780002004000b9
:104744008000400080892000008040001000780034
:104754000000e00018003a0000438000114380008c
:104764000101e8007400b900000078000200400074
:104774008000400080892000008040001000780004
:104784000000e0000c003200014380001e00900095
:10479400808f500004003a00114380002e009000e6
:1047a400808f5000040032007143800050092000c3
:1047b400808f5000d2ff360000438000fe0f50006f
:1047c40002003a000080eb000f0337000043800032
:1047d400114380000101e8007400b9000000780072
:1047e40002004000800040008089200000804000da
:1047f400100078000000e00008003200014380004f
:104804001e009000808f50003c003a00114380004d
:104814002e009000808f500038003a001e0078006f
:104824000000e00033003200e04280006600b9007e
:1048340080007800c0d420000080400031002000b7
:1048440001087800e04280000000e800e0428800af
:10485400e0428000024380006600b90080007800d6
:1048640080d420000080400002087800e0428000ec
:10487400124380006600b90080007800a0d42000b4
:104884000080400002087800e04280006600b90021
:1048940080007800c0d42000008040001100200077
:1048a40001087800e04280000000e800e04288004f
:1048b400104380000000e80010438800e0428000bc
:1048c400024380006600b9008000780080d4200094
:1048d4000080400002087800e0428000124380001b
:1048e4006600b90080007800a0d420000080400059
:1048f400020878000000eb00c30237000043800088
:10490400fd0f50000c003200004380000000e8005e
:10491400124380007400b9000000780002004000d7
:104924008000400080892000008040001000780052
:104934000000e00044003200004380001143800086
:104944000101e9007400b900000078000200400091
:104954008000400080892000008040001000780022
:104964000000e00038003a001e0078000000e0007b
:1049740033003200e04280006600b9008000780015
:10498400c0d42000008040003100200001087800dd
:10499400e04280000000e800e0428800e04280003d
:1049a400024380006600b9008000780080d42000b3
:1049b4000080400002087800e0428000124380003a
:1049c4006600b90080007800a0d420000080400078
:1049d40002087800e04280006600b9008000780098
:1049e400c0d420000080400051002000010878005d
:1049f400e04280000000e800e042880010438000ac
:104a04000000e90010438800e04280000243800077
:104a14006600b9008000780080d420000080400047
:104a240002087800e0428000124380006600b9006a
:104a340080007800a0d420000080400002087800a4
:104a440040002000700237000080eb006e02370047
:104a5400004380000000e800004388001e0fe800c7
:104a64000100370000000000004380000000e8005f
:104a7400fd0f500024003c00004380000000e800cb
:104a8400124380007400b900000078000200400066
:104a940080004000808920000080400010007800e1
:104aa4000000e00018003a00004380001143800039
:104ab4000101e9007400b900000078000200400020
:104ac40080004000808920000080400010007800b1
:104ad4000000e0000c003200014380001e00900042
:104ae400808f500004003a00114380002e00900093
:104af400808f500004003200714380005009200070
:104b0400808f5000d2ff36000043800011438000a4
:104b14000101e9007400b9000000780002004000bf
:104b24008000400080892000008040001000780050
:104b34000000e00008003200014380001e009000e5
:104b4400808f50003c003a00114380002e009000fa
:104b5400808f500038003a001e0078000000e0000a
:104b640033003200e04280006600b9008000780023
:104b7400c0d42000008040003100200001087800eb
:104b8400e04280000000e800e0428800e04280004b
:104b9400024380006600b9008000780080d42000c1
:104ba4000080400002087800e04280001243800048
:104bb4006600b90080007800a0d420000080400086
:104bc40002087800e04280006600b90080007800a6
:104bd400c0d420000080400051002000010878006b
:104be400e04280000000e800e042880010438000ba
:104bf4000000e90010438800e04280000243800086
:104c04006600b9008000780080d420000080400055
:104c140002087800e0428000124380006600b90078
:104c240080007800a0d420000080400002087800b2
:104c34000000eb00f401370000438000fd0f50003a
:104c44000c003200004380000000e80012438000a2
:104c54007400b900000078000200400080004000a9
:104c64008089200000804000100078000000e000ef
:104c74004400320000438000114380000101e80039
:104c84007400b90000007800020040008000400079
:104c94008089200000804000100078000000e000bf
:104ca40038003a001e0078000000e00033003200b3
:104cb400e04280006600b90080007800c0d4200083
:104cc400008040003100200001087800e0428000ac
:104cd4000000e800e0428800e042800002438000d7
:104ce4006600b9008000780080d420000080400075
:104cf40002087800e0428000124380006600b90098
:104d040080007800a0d420000080400002087800d1
:104d1400e04280006600b90080007800c0d4200022
:104d2400008040001100200001087800e04280006b
:104d34000000e800e0428800104380000000e80022
:104d440010438800e0428000024380006600b900fe
:104d54008000780080d420000080400002087800a1
:104d6400e0428000124380006600b90080007800b1
:104d7400a0d4200000804000020878002000200019
:104d8400a10137000080eb009f0137000043800041
:104d94000000e900004388001e0fe800010037000e
:104da40000000000004380000000e9000000e00073
:104db40024003500004380000000e9001243800015
:104dc4007400b90000007800020040008000400038
:104dd4008089200000804000100078000000e0007e
:104de40018003a0000438000114380000101e800ec
:104df4007400b90000007800020040008000400008
:104e04008089200000804000100078000000e0004d
:104e14000c003200014380001e009000808f50007f
:104e240004003a00114380002e009000808f50004f
:104e3400040032007143800050092000808f50002c
:104e4400d2ff360000438000114380000101e800d6
:104e54007400b900000078000200400080004000a7
:104e64008089200000804000100078000000e000ed
:104e740008003200014380001e009000808f500023
:104e84003c003a00114380002e009000808f5000b7
:104e940038003a001e0078000000e00033003200c1
:104ea400e04280006600b90080007800c0d4200091
:104eb400008040007100200001087800e04280007a
:104ec4000000e800e0428800e042800002438000e5
:104ed4006600b9008000780080d420000080400083
:104ee40002087800e0428000124380006600b900a6
:104ef40080007800a0d420000080400002087800e0
:104f0400e04280006600b90080007800c0d4200030
:104f1400008040001100200001087800e042800079
:104f24000000e800e0428800104380000000e80030
:104f340010438800e0428000024380006600b9000c
:104f44008000780080d420000080400002087800af
:104f5400e0428000124380006600b90080007800bf
:104f6400a0d4200000804000020878000000eb007c
:104f740025013700004380000000e0000c003200ef
:104f8400004380000000e900124380007400b9006f
:104f9400000078000200400080004000808920006a
:104fa40000804000100078000000e000440032005f
:104fb40000438000114380000101e9007400b9003e
:104fc400000078000200400080004000808920003a
:104fd40000804000100078000000e00038003a0033
:104fe4001e0078000000e00033003200e042800040
:104ff4006600b90080007800c0d420000080400022
:105004007100200001087800e04280000000e80000
:10501400e0428800e0428000024380006600b9005c
:105024008000780080d420000080400002087800ce
:10503400e0428000124380006600b90080007800de
:10504400a0d420000080400002087800e0428000e4
:105054006600b90080007800c0d4200000804000c1
:105064005100200001087800e04280000000e800c0
:10507400e0428800104380000000e90010438800eb
:10508400e0428000024380006600b900800078009e
:1050940080d420000080400002087800e0428000b4
:1050a400124380006600b90080007800a0d420007c
:1050b400008040000208780030002000d200370051
:1050c4000080eb00d0003700004380000000e900be
:1050d400004388001e0fe8000100370000000000b4
:1050e400004380000000e9000000e00024003500d7
:1050f400004380000000e900124380007400b900fe
:1051040000007800020040008000400080892000f8
:1051140000804000100078000000e00018003a0011
:1051240000438000114380000101e9007400b900cc
:1051340000007800020040008000400080892000c8
:1051440000804000100078000000e0000c003200f5
:10515400014380001e009000808f500004003a003c
:10516400114380002e009000808f50000400320014
:105174007143800050092000808f5000d2ff360018
:1051840000438000114380000101e9007400b9006c
:105194000000780002004000800040008089200068
:1051a40000804000100078000000e0000800320099
:1051b400014380001e009000808f50003c003a00a4
:1051c400114380002e009000808f500038003a0078
:1051d4001e0078000000e00033003200e04280004e
:1051e4006600b90080007800c0d420000080400030
:1051f4007100200001087800e04280000000e8000f
:10520400e0428800e0428000024380006600b9006a
:105214008000780080d420000080400002087800dc
:10522400e0428000124380006600b90080007800ec
:10523400a0d420000080400002087800e0428000f2
:105244006600b90080007800c0d4200000804000cf
:105254005100200001087800e04280000000e800ce
:10526400e0428800104380000000e90010438800f9
:10527400e0428000024380006600b90080007800ac
:1052840080d420000080400002087800e0428000c2
:10529400124380006600b90080007800a0d420008a
:1052a40000804000020878000000eb005600370040
:1052b400004380000000e0000c0032000043800046
:1052c4000000e900124380007400b9000000780077
:1052d40002004000800040008089200000804000df
:1052e400100078000000e000440032000043800019
:1052f400114380000101e8007400b9000000780047
:1053040002004000800040008089200000804000ae
:10531400100078000000e00038003a001e00780019
:105324000000e00033003200e04280006600b90073
:1053340080007800c0d4200000804000710020006c
:1053440001087800e04280000000e800e0428800a4
:10535400e0428000024380006600b90080007800cb
:1053640080d420000080400002087800e0428000e1
:10537400124380006600b90080007800a0d42000a9
:105384000080400002087800e04280006600b90016
:1053940080007800c0d4200000804000110020006c
:1053a40001087800e04280000000e800e042880044
:1053b400104380000000e80010438800e0428000b1
:1053c400024380006600b9008000780080d4200089
:1053d4000080400002087800e04280001243800010
:1053e4006600b90080007800a0d42000008040004e
:1053f4000208780010002000030037000080eb0052
:10540400010037000080eb000080fa000000060075
:105414000400fa00100798000000eb00000f780069
:10542400004380009e009000808f50004c003400a8
:1054340004003700004380000000e80000438800b7
:105444001e0fe800004380000000e800fd0f50003c
:1054540014003c00004380000000e8001243800078
:105464007400b90000007800020040008000400091
:105474008089200000804000100078000000e000d7
:1054840008003a00004380009e009000808f500086
:10549400040032007143800050092000808f5000c6
:1054a400e4ff36001e0078000000e000180032001f
:1054b400e04280006600b90080007800c0d420007b
:1054c400008040003100200001087800e0428000a4
:1054d4000000e800e0428800e042800002438000cf
:1054e4006600b9008000780080d42000008040006d
:1054f40002087800e0428000124380006600b90090
:1055040080007800a0d420000080400002087800c9
:10551400004380009e009000808f500002003a00fb
:105524000000eb005f003700004380000000e8004b
:10553400124380007400b9000000780002004000ab
:105544008000400080892000008040001000780026
:105554000000e0005200320030002000510037000b
:10556400004380009e009000808f50004c003d005e
:1055740004003700004380000000e9000043880075
:105584001e0fe800004380000000e9000000e00076
:1055940014003500004380000000e900124380003d
:1055a4007400b90000007800020040008000400050
:1055b4008089200000804000100078000000e00096
:1055c40008003a00004380009e009000808f500045
:1055d400040032007143800050092000808f500085
:1055e400e4ff36001e0078000000e00018003200de
:1055f400e04280006600b90080007800c0d420003a
:10560400008040007100200001087800e042800022
:105614000000e800e0428800e0428000024380008d
:105624006600b9008000780080d42000008040002b
:1056340002087800e0428000124380006600b9004e
:1056440080007800a0d42000008040000208780088
:10565400004380009e009000808f500002003a00ba
:105664000000eb000f003700004380000000e90059
:10567400124380007400b90000007800020040006a
:1056840080004000808920000080400010007800e5
:105694000000e0000200320070002000010037002a
:1056a4000080eb000080fa00000006000400fa000d
:1056b400100798000000eb00000f780010438000f2
:1056c4009e009000808f50004c003400040037008e
:1056d400104380000000e800104388001e0fe8001b
:1056e400104380000000e800f30f500014003c0059
:1056f40000438000114380000101e8007400b900f8
:1057040000007800020040008000400080892000f2
:1057140000804000100078000000e00008003a001b
:10572400104380009e009000808f500004003200df
:105734007143800050092000808f5000e4ff360040
:105744001e0078000000e00018003200e0428000f3
:105754006600b90080007800c0d4200000804000ba
:105764001100200001087800e04280000000e800f9
:10577400e0428800e0428000024380006600b900f5
:105784008000780080d42000008040000208780067
:10579400e0428000124380006600b9008000780077
:1057a400a0d420000080400002087800104380004c
:1057b4009e009000808f500002003a000000eb0031
:1057c4005f00370000438000114380000101e800be
:1057d4007400b9000000780002004000800040001e
:1057e4008089200000804000100078000000e00064
:1057f4005200320010002000510037001043800096
:105804009e009000808f50004c003d000400370043
:10581400104380000000e900104388001e0fe800d8
:10582400104380000000e9000000e000140035008f
:1058340000438000114380000101e9007400b900b5
:1058440000007800020040008000400080892000b1
:1058540000804000100078000000e00008003a00da
:10586400104380009e009000808f5000040032009e
:105874007143800050092000808f5000e4ff3600ff
:105884001e0078000000e00018003200e0428000b2
:105894006600b90080007800c0d420000080400079
:1058a4005100200001087800e04280000000e80078
:1058b400e0428800e0428000024380006600b900b4
:1058c4008000780080d42000008040000208780026
:1058d400e0428000124380006600b9008000780036
:1058e400a0d420000080400002087800104380000b
:1058f4009e009000808f500002003a000000eb00f0
:105904000f00370000438000114380000101e900cb
:105914007400b900000078000200400080004000dc
:105924008089200000804000100078000000e00022
:105934000200320050002000010037000080eb001c
:105944000080fa00000006000600fa000000eb00e8
:10595400000f78000000eb00100798006200370089
:105964000000eb0020079800040037001e0fe80039
:105974002e0090000000e800200798001e00780028
:105984006600b90000007800e400400080d42000e4
:1059940000804000100178001e00e8006600b90095
:1059a40000007800e400400080d420000080400023
:1059b40010007800800f510004003a007143800009
:1059c40050092000808f5000e8ff36002e00900020
:1059d4000000e000430034002e0090001e00100080
:1059e4000000e800100798002f0037009e00900088
:1059f4002e009000008040006600b900800078000e
:105a040080d4200000804000100178001e00900027
:105a14006600b9008000780080d420000080400037
:105a2400020878009e0090002e0090000080400044
:105a34006600b900000078008080e80080d420006f
:105a440000804000100178001e0090006600b9003c
:105a540080007800a0d42000008040000208780074
:105a64009e0090002e009000008040006600b90067
:105a740000007800e400400080d420000080400052
:105a8400100178001e0090006600b90080007800c4
:105a9400c0d4200000804000020878001e0090005e
:105aa4000000e80010079800e04280009e0090008b
:105ab400808f5000cdff3400e14280002e00900022
